:100000000C943E000C945B000C945B000C945B0021
:100010000C945B000C945B000C945B000C945B00F4
:100020000C945B000C945B000C945B000C945B00E4
:100030000C945B000C945B000C945B000C945B00D4
:100040000C949A000C945B000C945B000C945B0085
:100050000C9414010C945B000C945B000C945B00FA
:100060000C945B000C945B000C945B000C945B00A4
:100070000C945B000C945B000C945B0011241FBE7D
:10008000CFEFD0E1DEBFCDBF11E0A0E0B1E0EEE503
:10009000F2E002C005900D92AE30B107D9F711E041
:1000A000AEE0B1E001C01D92A831B107E1F70E94B6
:1000B0005D000C942D010C9400008CE090E00E94F7
:1000C000F4000E94700078948FEF81B912B884B95F
:1000D00015B887B918B88AB91BB80E942401FDCF9A
:1000E0001092140184E6809313018093120180938F
:1000F00010011092150110921101089580911401C0
:100100008150877080931401E2E0F1E0E80FF11D67
:10011000808182B90895809114018F5F87708093E8
:100120001401E2E0F1E0E80FF11D808182B9089549
:10013000089508951F920F920FB60F9211242F93D6
:100140003F934F935F936F937F938F939F93AF935F
:10015000BF93EF93FF93289A0E948B008091110127
:10016000813051F0813028F08230C1F08330A1F429
:100170000DC0289815BC12C087B5815087BD87B5C2
:100180008E3061F482E08093110108C087B58F5FE3
:1001900087BD87B58F3F11F410921101FF91EF9148
:1001A000BF91AF919F918F917F916F915F914F918F
:1001B0003F912F910F900FBE0F901F90189584B50F
:1001C000826084BD85B5856085BD8FEF87BDEEE615
:1001D000F0E080818260808381E080931101089546
:1001E00083E08093110108959093C5008093C4002B
:1001F000E1ECF0E088E1808386E08093C2008081BA
:100200008068808380E280930E0108959091C00001
:1002100095FFFCCF8093C60008958091C00087FFB2
:10022000FCCF8091C60008951F920F920FB60F92D7
:1002300011248F938091C60080930E018F910F90AF
:100240000FBE0F901F90189580910E01813421F4FC
:0E0250000E940D010E9406010895F894FFCF50
:0E025E006004080A02060405010908020401F2
:00000001FF
