:100000000C943E000C945B000C945B000C945B0021
:100010000C945B000C945B000C945B000C945B00F4
:100020000C945B000C9497090C945B000C945B009F
:100030000C945B000C940B080C945B000C945B001C
:100040000C946C060C945B000C945B000C945B00AD
:100050000C94D70B0C945B000C945B000C945B002D
:100060000C945B000C945B000C945B000C945B00A4
:100070000C945B000C945B000C945B0011241FBE7D
:10008000C0E0D0E1DEBFCDBF11E0A0E0B1E0EAEA20
:10009000F9E102C005900D92A43AB107D9F712E038
:1000A000A4EAB1E001C01D92AB31B107E1F70E94B3
:1000B0005D000C94D30C0C940000AF92BF92CF92D1
:1000C000DF92EF92FF920F931F93CF93DF938CE019
:1000D00090E00E94400B80E091E00E94B10B0E94F2
:1000E0008D020E9484011092F1011092F001109291
:1000F000F3011092F2011092F8011092F701789436
:100100008FEF81B912B884B915B887B918B88AB910
:100110001BB88CE091E00E94B10BCCE0D0E007E48A
:1001200010E097E4E92EF12C84E6C82ED12C8091C2
:10013000ED01813009F0E5C08091B901893509F4FC
:100140003FC08A3590F48C3409F48AC08D3438F479
:10015000803309F4BCC0893409F0C6C064C083355B
:10016000E9F1883509F0C0C024C0843609F443C0E1
:10017000853630F48A3559F1813609F0B5C034C07E
:10018000873621F0833709F0AFC03CC08091EC0185
:1001900080FF02C00E945C068091F60180FF02C0D1
:1001A0000E9460068091EB0180FFA2C00E9466065B
:1001B0009FC0C601B701A8019E010E94B20298C06B
:1001C000C601B701A8019E010E94ED0391C0C601BE
:1001D000B701A8019E010E9429058AC08BEB91E01E
:1001E0000E94AD0C6C0184C08BEB91E00E94AD0CC1
:1001F000E82EF92E7DC08BEB91E00E94AD0C082F0C
:10020000192F76C08BEB91E00E94AD0CA82EE50172
:100210005E01B92EE50191E0CF35D90708F468C039
:1002200085E191E063C085E391E00E94B10BC601D6
:100230000E94630B8FE391E00E94B10BC7010E9403
:10024000630B89E491E00E94B10BCE010E94630B25
:1002500083E591E00E94B10BC8010E94630B48C086
:1002600088E50E94550B8DE30E94550B8091F001AB
:100270009091F1010E94630B8DE00E94550B8AE082
:100280000E94550B89E50E94550B8DE30E94550B8A
:100290008091F2019091F3010E94630B8DE00E9426
:1002A000550B8AE00E94550B8AE50E94550B8DE3A1
:1002B0000E94550B8091F7019091F8010E94630B09
:1002C0008DE00E94550B8AE00E94550B11C01092E0
:1002D000F1011092F0011092F3011092F2011092CC
:1002E000F8011092F70104C08DE591E00E94B10B76
:1002F0001092ED010E94C40B8FE691E00E94B10BB9
:1003000016CF82B182B913CF8BB18F708BB98AB1FE
:10031000806F8AB982B18F7082B981B1806F81B9E3
:1003200085B18F7085B984B1806F84B908959BB110
:10033000E4E8F1E0E80FF11D80818295807F982B41
:100340009BB99BB18F6089238BB908951F9320912E
:10035000F7013091F801813039F421503040309369
:10036000F8012093F70108C02F5F3F4F3093F80149
:100370002093F701882321F08091A6018F5F03C0AD
:100380008091A60181508093A6011091A60117705B
:100390001093A601812F0E949701812F1F9108952C
:1003A00092B1E4E8F1E0E80FF11D80818295807F51
:1003B000982B92B992B18F60892382B908951F93C7
:1003C0002091F0013091F101813039F42150304019
:1003D0003093F1012093F00108C02F5F3F4F30931D
:1003E000F1012093F001882321F08091A5018F5F16
:1003F00003C08091A50181508093A5011091A501B2
:1004000017701093A501812F0E94D001812F1F9199
:10041000089595B1E4E8F1E0E80FF11D808182953F
:10042000807F982B95B995B18F60892385B9089500
:100430001F932091F2013091F301813039F4215062
:1004400030403093F3012093F20108C02F5F3F4FFB
:100450003093F3012093F201882321F08091A401CD
:100460008F5F03C08091A40181508093A4011091FB
:10047000A40117701093A401812F0E940902812FFB
:100480001F910895AF92BF92CF92DF92EF92FF92A9
:100490000F931F93E0E1F0E0A12CB12CC12C10E4EC
:1004A000D12E20E030E0A90186017501E20EF31E95
:1004B000041F151F6E157F058007910730F06E1918
:1004C0007F09800B910BA1E001C0A0E056954795F4
:1004D00037952795AA2321F02A0D3B1D4C1D5D1D44
:1004E000A2E0D694C794B794A794AA95D1F7319770
:1004F000D9F6261737074807590720F42F5F3F4FD3
:100500004F4F5F4FB901CA011F910F91FF90EF90BC
:10051000DF90CF90BF90AF90089580910502887FC3
:100520008093050298E09093810082E080936F00B1
:100530002091FA01287F2093FA0195BD80936E00E7
:100540001092F5011092F40120911002287F20935F
:1005500010029093B100809370001092EF011092FE
:10056000EE0108952F923F924F925F926F927F9289
:100570008F929F92AF92BF92CF92DF92EF92FF92B3
:100580000F931F93DF93CF9300D000D000D0CDB74F
:10059000DEB79E838D831B012A011092F501109214
:1005A000F40141E02E35340710F02EE531E0139AC6
:1005B0008091FA01ED81FE81F7FF09C08860809388
:1005C000FA01F095E195FF4FFE83ED8303C0877F2D
:1005D0008093FA014D815E814130510599F48FEF8E
:1005E0009FEF90930402809303028091FA01887F29
:1005F00082608093FA0188EE93E09093FC018093EF
:10060000FB01C3C08D819E81009709F4C5C05901CB
:10061000CC24DD2463E27EED86E290E0A601950124
:100620000E94920C2B833C832093010230930202A0
:1006300031018824992460E07DE58EE394E1A401F2
:1006400093010E94920CCA01B9010E9442022CE956
:1006500037E240E050E00E943D0C24E6E22EF12C0F
:10066000012D112DA80197010E94700C3A83298356
:100670003093FC012093FB01C601B501A601950151
:100680000E943D0C5B016C01C401B30123E531E024
:1006900040E050E00E943D0CA80197010E94920C9E
:1006A000C601B5010E94920C89012115310511F492
:1006B00001E010E06201EE24FF24ED81FE81BF0124
:1006C000882777FD8095982FA70196010E943D0C01
:1006D0009201220D331D40E050E00E94920C211542
:1006E000310521F00217130740F002C021E030E08D
:1006F0004D815E81241B350B12C0B80180E090E073
:10070000A40193010E943D0C909580957095619590
:100710007F4F8F4F9F4FA70196010E94920C3093FD
:1007200000022093FF018091FF0190910002009749
:1007300031F48FEF9FEF909300028093FF0180913F
:10074000FF0190910002ED81FE818E0F9F1F90931B
:10075000FE018093FD018B819C8129813A81821762
:10076000930748F09093FC018093FB018091FA017C
:10077000887F836004C08091FA01887F81608093C4
:10078000FA0110920402109203028091EC01816040
:100790008093EC018AE087BD8091FB019091FC0180
:1007A0009093F5018093F40126960FB6F894DEBF7E
:1007B0000FBECDBFCF91DF911F910F91FF90EF90B2
:1007C000DF90CF90BF90AF909F908F907F906F9071
:1007D0005F904F903F902F9008952F923F924F92AD
:1007E0005F926F927F928F929F92AF92BF92CF92C1
:1007F000DF92EF92FF920F931F93DF93CF9300D07E
:1008000000D000D0CDB7DEB79E838D831B012A01B7
:100810001092EF011092EE0141E02E35340710F0F6
:100820002EE531E02B9A80911002ED81FE81F7FFD9
:1008300009C0886080931002F095E195FF4FFE8318
:10084000ED8303C0877F809310024D815E8141302C
:10085000510599F48FEF9FEF90931A02809319023C
:1008600080911002887F82608093100288EE93E06E
:100870009093120280931102C3C08D819E810097D4
:1008800009F4C6C05901CC24DD2463E27EED86E282
:1008900090E0A60195010E94920C2B833C8320934B
:1008A00017023093180231018824992460E07DE515
:1008B0008EE394E1A40193010E94920CCA01B90154
:1008C0000E9442022CE937E240E050E00E943D0CD9
:1008D00034E6E32EF12C012D112DA80197010E9481
:1008E000700C3A8329833093120220931102C601BF
:1008F000B501A60195010E943D0C5B016C01C4018C
:10090000B30123E531E040E050E00E943D0CA80136
:1009100097010E94920CC601B5010E94920C8901B8
:100920002115310511F401E010E06201EE24FF24ED
:10093000ED81FE81BF01882777FD8095982FA70163
:1009400096010E943D0C9201220D331D40E050E0C3
:100950000E94920C2115310521F00217130740F077
:1009600002C021E030E04D815E81241B350B12C0B6
:10097000B80180E090E0A40193010E943D0C9095A5
:100980008095709561957F4F8F4F9F4FA70196017E
:100990000E94920C3093160220931502809115024A
:1009A00090911602009731F48FEF9FEF909316020B
:1009B000809315028091150290911602ED81FE81BF
:1009C0008E0F9F1F90931402809313028B819C8142
:1009D00029813A818217930748F0909312028093FD
:1009E000110280911002887F836004C08091100200
:1009F000887F81608093100210921A02109219026F
:100A00008091F60181608093F6018AE08093B300C3
:100A100080911102909112029093EF018093EE0168
:100A200026960FB6F894DEBF0FBECDBFCF91DF91F3
:100A30001F910F91FF90EF90DF90CF90BF90AF90FC
:100A40009F908F907F906F905F904F903F902F90EE
:100A500008952F923F924F925F926F927F928F9262
:100A60009F92AF92BF92CF92DF92EF92FF920F933D
:100A70001F93DF93CF9300D000D000D0CDB7DEB767
:100A80009E838D831B012A0141E02E35340710F02F
:100A90002EE531E05B9A80910502ED81FE81F7FF42
:100AA00009C0886080930502F095E195FF4FFE83B1
:100AB000ED8303C0877F809305024D815E814130C5
:100AC000510599F48FEF9FEF90930F0280930E02E0
:100AD00080910502887F82608093050288EE93E012
:100AE0009093070280930602C3C08D819E81009778
:100AF00009F4C9C05901CC24DD2463E27EED86E20D
:100B000090E0A60195010E94920C2B833C832093D8
:100B10000C0230930D0231018824992460E07DE5B8
:100B20008EE394E1A40193010E94920CCA01B901E1
:100B30000E9442022CE937E240E050E00E943D0C66
:100B400044E6E42EF12C012D112DA80197010E94FD
:100B5000700C3A8329833093070220930602C60162
:100B6000B501A60195010E943D0C5B016C01C40119
:100B7000B30123E531E040E050E00E943D0CA801C4
:100B800097010E94920CC601B5010E94920C890146
:100B90002115310511F401E010E06201EE24FF247B
:100BA000ED81FE81BF01882777FD8095982FA701F1
:100BB00096010E943D0C9201220D331D40E050E051
:100BC0000E94920C2115310521F00217130740F005
:100BD00002C021E030E04D815E81241B350B12C044
:100BE000B80180E090E0A40193010E943D0C909533
:100BF0008095709561957F4F8F4F9F4FA70196010C
:100C00000E94920C30930B0220930A0280910A02F8
:100C100090910B02009731F48FEF9FEF90930B02AE
:100C200080930A0280910A0290910B02ED81FE816D
:100C30008E0F9F1F90930902809308028B819C81E5
:100C400029813A818217930748F090930702809395
:100C5000060280910502887F836004C080910502AE
:100C6000887F81608093050210920F0210920E021D
:100C70008091EB0181608093EB018AE090E090939A
:100C800089008093880026960FB6F894DEBF0FBEC9
:100C9000CDBFCF91DF911F910F91FF90EF90DF902B
:100CA000CF90BF90AF909F908F907F906F905F900C
:100CB0004F903F902F90089585B5826085BD08952F
:100CC000E1EBF0E08081826080830895E1E8F0E06C
:100CD00080818260808308951F920F920FB60F92D9
:100CE00011244F925F926F927F928F929F92AF9258
:100CF000BF92CF92DF92EF92FF920F931F932F93A9
:100D00003F934F935F936F937F938F939F93AF9393
:100D1000BF93CF93DF93EF93FF938091F401909172
:100D2000F5018F3F910551F04CF08F5F904090930B
:100D3000F5018093F4018FEF87BD4CC18091FB01D9
:100D40009091FC019093F5018093F4018F3F910500
:100D500011F00CF08FEF87BD8091FA01282F2770DA
:100D600030E02130310511F12230310524F4211514
:100D7000310551F02BC12230310509F4C8C02330B0
:100D8000310509F023C191C013981092B601109259
:100D9000B5011092B4011092B30185B5887F85BD6D
:100DA0008091EC018E7F8093EC0110C18695869531
:100DB000869581700E94DF010091B5011091B60106
:100DC0000F5F1F4F1093B6010093B501C09003024F
:100DD000D09004020894C11CD11CD0920402C0928D
:100DE0000302C091FB01D091FC014E01AA24BB2457
:100DF0004090B3015090B40166247724CC0CDD1CE4
:100E0000CC0CDD1C0894C11CD11CEE24D7FCE09452
:100E1000FE2CC501B4012EEF3FEF4FEF5FEF0E94B4
:100E20003D0C6419750986099709A70196010E946E
:100E3000920CC20FD31FC501B401660F771F881F24
:100E4000991F640D751D861D971DA70196010E94AF
:100E5000920C7093B4016093B3018091FD01909165
:100E6000FE010817190748F08091FF0190910002D8
:100E7000909304028093030245C0809101029091F7
:100E800002028C179D0708F4A1C0D093B801C0934B
:100E9000B7011092B4011092B3012091FA01287F9A
:100EA00023602093FA01EC0191C086958695869582
:100EB00081700E94DF018091B5019091B601019689
:100EC0009093B6018093B5015091010240910202C6
:100ED0002091FD013091FE018217930738F4CA0179
:100EE000E92EE7017E01F82EE70170C08091FF0135
:100EF000909100029093040280930302C091B70185
:100F0000D091B8018091FA01887F82605DC08091A4
:100F1000100286958695869581700E94DF018091EA
:100F2000B5019091B60101969093B6018093B501F9
:100F300000910302109104020F5F1F4F10930402EF
:100F400000930302C091FB01D091FC014E01AA2441
:100F5000BB244090B3015090B4016624772468010B
:100F6000CC0CDD1CCC0CDD1C0894C11CD11CEE2467
:100F7000D7FCE094FE2CC501B4012EEF3FEF4FEFFC
:100F80005FEF0E943D0C6419750986099709A70156
:100F900096010E94920CC20FD31FC501B401660FC7
:100FA000771F881F991F640D751D861D971DA7014A
:100FB00096010E94920C7093B4016093B30117FDE7
:100FC00005C08091FA01887F8093FA01D093FC01DB
:100FD000C093FB01FF91EF91DF91CF91BF91AF9152
:100FE0009F918F917F916F915F914F913F912F9141
:100FF0001F910F91FF90EF90DF90CF90BF90AF9037
:101000009F908F907F906F905F904F900F900FBE4A
:101010000F901F9018951F920F920FB60F921124E8
:101020004F925F926F927F928F929F92AF92BF92F8
:10103000CF92DF92EF92FF920F931F932F933F93E4
:101040004F935F936F937F938F939F93AF93BF93D0
:10105000CF93DF93EF93FF93119A809106029091C3
:101060000702909389008093880045E0C42E42E0F7
:10107000D42E80910502282F277030E021303105D1
:1010800021F12230310524F42115310551F029C117
:101090002230310509F4C9C02330310509F021C1DE
:1010A00093C05B981092B0011092AF011092AE0104
:1010B0001092AD0180918100887F809381008091A2
:1010C000EB018E7F8093EB010CC18695869586950A
:1010D00081700E94A6010091AF011091B0010F5FD5
:1010E0001F4F1093B0010093AF01C0900E02D0903B
:1010F0000F020894C11CD11CD0920F02C0920E02A4
:10110000C0910602D09107024E01AA24BB24409050
:10111000AD015090AE0166247724CC0CDD1CCC0CC4
:10112000DD1C0894C11CD11CEE24D7FCE094FE2CDD
:10113000C501B4012EEF3FEF4FEF5FEF0E943D0C72
:101140006419750986099709A70196010E94920CF6
:10115000C20FD31FC501B401660F771F881F991FE7
:10116000640D751D861D971DA70196010E94920CA6
:101170007093AE016093AD018091080290910902D5
:101180000817190748F080910A0290910B0290937A
:101190000F0280930E0244C080910C0290910D02C8
:1011A0008C179D0708F49DC0D093B201C093B10184
:1011B0001092AE011092AD0120910502287F2360AC
:1011C00020930502EC018DC08695869586958170E9
:1011D0000E94A6018091AF019091B0010196909379
:1011E000B0018093AF0150910C0240910D0220910B
:1011F0000802309109028217930738F4CA01E92ED8
:10120000E7017E01F82EE7016CC080910A029091FF
:101210000B02F60192878187C091B101D091B20192
:1012200080910502887F82605AC086958695869552
:1012300081700E94A6018091AF019091B00101964A
:101240009093B0018093AF0100910E0210910F02B4
:101250000F5F1F4FF60112870187C0910602D091E0
:1012600007024E01AA24BB244090AD015090AE016C
:10127000662477246801CC0CDD1CCC0CDD1C0894A2
:10128000C11CD11CEE24D7FCE094FE2CC501B40196
:101290002EEF3FEF4FEF5FEF0E943D0C6419750991
:1012A00086099709A70196010E94920CC20FD31FCD
:1012B000C501B401660F771F881F991F640D751D46
:1012C000861D971DA70196010E94920C7093AE0196
:1012D0006093AD0117FD05C080910502887F809362
:1012E0000502D0930702C09306021198FF91EF9177
:1012F000DF91CF91BF91AF919F918F917F916F912E
:101300005F914F913F912F911F910F91FF90EF901F
:10131000DF90CF90BF90AF909F908F907F906F9015
:101320005F904F900F900FBE0F901F9018951F92D7
:101330000F920FB60F9211244F925F926F927F928D
:101340008F929F92AF92BF92CF92DF92EF92FF92D5
:101350000F931F932F933F934F935F936F937F93BD
:101360008F939F93AF93BF93CF93DF93EF93FF93AD
:101370008091EE019091EF018F3F910559F054F06B
:101380008F5F90409093EF018093EE018FEF8093F9
:10139000B3004DC180911102909112029093EF0120
:1013A0008093EE018F3F910511F00CF08FEF809349
:1013B000B30080911002282F277030E021303105D2
:1013C00021F12230310524F42115310551F02BC1D2
:1013D0002230310509F4CAC02330310509F023C198
:1013E00093C02B981092AA011092A9011092A80103
:1013F0001092A7018091B100887F8093B100809105
:10140000F6018E7F8093F6010EC1869586958695AE
:1014100081700E9418020091A9011091AA010F5F2A
:101420001F4F1093AA010093A901C0901902D090F8
:101430001A020894C11CD11CD0921A02C09219023F
:10144000C0911102D09112024E01AA24BB244090F7
:10145000A7015090A80166247724CC0CDD1CCC0C8D
:10146000DD1C0894C11CD11CEE24D7FCE094FE2C9A
:10147000C501B4012EEF3FEF4FEF5FEF0E943D0C2F
:101480006419750986099709A70196010E94920CB3
:10149000C20FD31FC501B401660F771F881F991FA4
:1014A000640D751D861D971DA70196010E94920C63
:1014B0007093A8016093A701809113029091140288
:1014C0000817190748F08091150290911602909321
:1014D0001A028093190245C0809117029091180258
:1014E0008C179D0708F49FC0D093AC01C093AB014B
:1014F0001092A8011092A70120911002287F23606A
:1015000020931002EC018FC0869586958695817098
:101510000E9418028091A9019091AA0101969093CE
:10152000AA018093A90150911702409118022091BD
:101530001302309114028217930738F4CA01E92E7E
:10154000E7017E01F82EE7016EC0809115029091AF
:10155000160290931A0280931902C091AB01D091A8
:10156000AC0180911002887F82605BC08695869571
:10157000869581700E9418028091A9019091AA011C
:1015800001969093AA018093A901009119021091EC
:101590001A020F5F1F4F10931A0200931902C09195
:1015A0001102D09112024E01AA24BB244090A7013F
:1015B0005090A801662477246801CC0CDD1CCC0C6B
:1015C000DD1C0894C11CD11CEE24D7FCE094FE2C39
:1015D000C501B4012EEF3FEF4FEF5FEF0E943D0CCE
:1015E0006419750986099709A70196010E94920C52
:1015F000C20FD31FC501B401660F771F881F991F43
:10160000640D751D861D971DA70196010E94920C01
:101610007093A8016093A70117FD05C08091100287
:10162000887F80931002D0931202C0931102FF9121
:10163000EF91DF91CF91BF91AF919F918F917F916A
:101640006F915F914F913F912F911F910F91FF905B
:10165000EF90DF90CF90BF90AF909F908F907F9052
:101660006F905F904F900F900FBE0F901F90189546
:10167000262F372F8217930708F49C01C90108957C
:101680009093C5008093C400E1ECF0E088E1808392
:1016900086E08093C2008081806880831092F90187
:1016A0001092B9011092ED0108959091C00095FF3C
:1016B000FCCF8093C60008958091C00087FFFCCFC7
:1016C0008091C6000895AF92BF92DF92EF92FF9291
:1016D0000F931F93DF93CF930F92CDB7DEB78C019B
:1016E00097FF06C0109501951F4F8DE20E94550B84
:1016F00024E030E090E1A92E97E2B92EEAE0F0E094
:1017000008C0C501BF010E945C0C5B012150304044
:1017100019F00A151B05A8F38AE0E82EF12CC80180
:10172000B5010E945C0CD82E68567E4FFB0180816B
:1017300099830E94550B0D2D9981192FC501B70171
:101740000E945C0C5B016115710549F70F90CF9108
:10175000DF911F910F91FF90EF90DF90BF90AF90BE
:1017600008951F93CF93DF93EC0110E003C01F5F38
:101770000E94550BFE01E10FF11D80818823B9F70E
:10178000DF91CF911F9108951092ED01E9EBF1E007
:101790008091F90190E08E0F9F1F01C01192E81710
:1017A000F907E1F71092F9011092B90108951F921B
:1017B0000F920FB60F9211240F931F932F933F9305
:1017C0004F935F936F937F938F939F93AF93BF9349
:1017D000CF93DF93EF93FF930091C6000036D1F4CF
:1017E0008CE891E00E94B10B09EB11E0C0E0D0E081
:1017F00006C0F80181918F010E94550B21968091BE
:10180000F90190E0C817D907A4F385E991E00E9497
:10181000B10B0AC00C3A19F40E94C40B05C00D307C
:1018200051F481E08093ED018DE00E94550B8AE038
:101830000E94550B0DC0802F0E94550B8091F9011D
:10184000E82FF0E0E754FE4F00838F5F8093F901AB
:10185000FF91EF91DF91CF91BF91AF919F918F91C8
:101860007F916F915F914F913F912F911F910F91B8
:101870000F900FBE0F901F901895629FD001739F1D
:10188000F001829FE00DF11D649FE00DF11D929F1C
:10189000F00D839FF00D749FF00D659FF00D99275B
:1018A000729FB00DE11DF91F639FB00DE11DF91F7F
:1018B000BD01CF0111240895AA1BBB1B51E107C034
:1018C000AA1FBB1FA617B70710F0A61BB70B881FD0
:1018D000991F5A95A9F780959095BC01CD0108955F
:1018E000A1E21A2EAA1BBB1BFD010DC0AA1FBB1F24
:1018F000EE1FFF1FA217B307E407F50720F0A21B96
:10190000B30BE40BF50B661F771F881F991F1A9402
:1019100069F760957095809590959B01AC01BD012C
:10192000CF01089597FB092E05260ED057FD04D050
:10193000D7DF0AD0001C38F450954095309521959A
:101940003F4F4F4F5F4F0895F6F7909580957095F4
:1019500061957F4F8F4F9F4F0895FC0188279927EE
:10196000E89421912032E9F3293010F02E30C8F3A9
:101970002B3241F02D3239F4689404C00E94CB0C14
:10198000820F911D219120532A30C0F31EF49095AF
:1019900081959F4F08957AE0979F902D879F802D86
:0A19A000910D11240895F894FFCF73
:1019AA005365742055702E2E2E0A0D0052656164FF
:1019BA0079210A0D005741524E494E473A2045585F
:1019CA00434545444544204D4158494D554D2053C2
:1019DA0050454544000A0D53746570733A20000A55
:1019EA000D416363656C3A20000A0D5370656564A6
:1019FA003A20000A0D446563656C3A2000496E631B
:101A0A006F727265637420436F6D6D616E64000A54
:101A1A000D3E00436F6D6D616E64205265636569AA
:101A2A0076656400080A02060405010942756666BD
:101A3A0065723A220022200030313233343536378B
:041A4A003839000027
:00000001FF
