:100000000C943E000C945B000C945B000C945B0021
:100010000C945B000C945B000C945B000C945B00F4
:100020000C945B000C9415090C945B000C945B0021
:100030000C945B000C9489070C945B000C945B009F
:100040000C94EA050C945B000C945B000C945B0030
:100050000C94550B0C945B000C945B000C945B00AF
:100060000C945B000C945B000C945B000C945B00A4
:100070000C945B000C945B000C945B0011241FBE7D
:10008000CFEFD0E1DEBFCDBF11E0A0E0B1E0E6EA06
:10009000F8E102C005900D92AE38B107D9F712E031
:1000A000AEE8B1E001C01D92A530B107E1F70E94B2
:1000B0005D000C94510C0C940000AF92BF92CF9253
:1000C000DF92EF92FF920F931F93CF93DF938CE019
:1000D00090E00E94BE0A0E940E020E9405017894E0
:1000E0008FEF81B912B884B915B887B918B88AB931
:1000F0001BB8CCE0D0E007E410E097E4E92EF12C47
:1001000084E6C82ED12C8091DC01813009F07AC0C0
:100110008091A9018734F1F48091AA01813339F4E7
:10012000C601B701A8019E010E94B20462C08233D9
:1001300039F4C601B701A8019E010E94330259C0DB
:10014000833309F056C0C601B701A8019E010E9481
:1001500071034FC0833531F48BEA91E00E942B0C80
:100160006C0147C0813439F48BEA91E00E942B0C7A
:10017000E82EF92E3EC0843639F48BEA91E00E94D5
:100180002B0C082F192F35C0833781F48BEA91E0AF
:100190000E942B0CA82EE5015E01B92EE50191E02D
:1001A000CF35D90730F180E091E021C08934E9F4FE
:1001B00080E291E00E942F0BC6010E94E10A8AE2D0
:1001C00091E00E942F0BC7010E94E10A84E391E0B5
:1001D0000E942F0BCE010E94E10A8EE391E00E9463
:1001E0002F0BC8010E94E10A04C088E491E00E943C
:1001F0002F0B1092DC010E94420B8AE591E00E94D5
:100200002F0B81CF82B182B97ECF8BB18F708BB92A
:100210008AB1806F8AB982B18F7082B981B1806FE3
:1002200081B985B18F7085B984B1806F84B9089523
:100230009BB1EFE6F1E0E80FF11D80818295807FB0
:10024000982B9BB99BB18F6089238BB908951F931D
:1002500020918E0130918F01813039F4215030404E
:1002600030938F0120938E0108C02F5F3F4F309352
:100270008F0120938E01882321F0809196018F5F5A
:1002800003C0809196018150809396011091960150
:10029000177010939601812F0E941801812F1F91D2
:1002A000089592B1EFE6F1E0E80FF11D80818295AB
:1002B000807F982B92B992B18F60892382B908957B
:1002C0001F932091900130919101813039F4215098
:1002D0003040309391012093900108C02F5F3F4F31
:1002E0003093910120939001882321F08091950112
:1002F0008F5F03C08091950181508093950110918B
:100300009501177010939501812F0E945101812F43
:100310001F91089595B1EFE6F1E0E80FF11D80819E
:100320008295807F982B95B995B18F60892385B987
:1003300008951F932091920130919301813039F4F7
:1003400021503040309393012093920108C02F5FD9
:100350003F4F3093930120939201882321F08091A5
:1003600094018F5F03C08091940181508093940128
:1003700010919401177010939401812F0E948A01AB
:10038000812F1F910895AF92BF92CF92DF92EF928B
:10039000FF920F931F93E0E1F0E0A12CB12CC12C50
:1003A00010E4D12E20E030E0A90186017501E20EB3
:1003B000F31E041F151F6E157F058007910730F08F
:1003C0006E197F09800B910BA1E001C0A0E056954A
:1003D000479537952795AA2321F02A0D3B1D4C1DE3
:1003E0005D1DA2E0D694C794B794A794AA95D1F7BF
:1003F0003197D9F6261737074807590720F42F5F9A
:100400003F4F4F4F5F4FB901CA011F910F91FF90AE
:10041000EF90DF90CF90BF90AF9008958091EF0163
:10042000887F8093EF0198E09093810082E0809331
:100430006F002091E401287F2093E40195BD809313
:100440006E001092E0011092DF012091FA01287FE6
:100450002093FA019093B100809370001092DE0116
:100460001092DD0108952F923F924F925F926F920A
:100470007F928F929F92AF92BF92CF92DF92EF9234
:10048000FF920F931F93DF93CF9300D000D000D043
:10049000CDB7DEB79E838D831B012A011092E00148
:1004A0001092DF0141E02E35340710F02EE531E0E7
:1004B000139A8091E401ED81FE81F7FF09C0886005
:1004C0008093E401F095E195FF4FFE83ED8303C037
:1004D000877F8093E4014D815E814130510599F41D
:1004E0008FEF9FEF9093EE018093ED018091E401F7
:1004F000887F82608093E40188EE93E09093E60128
:100500008093E501C3C08D819E81009709F4C8C026
:100510005901CC24DD2463E27EED86E290E0A60161
:1005200095010E94100C2B833C832093EB013093A8
:10053000EC0131018824992460E07DE58EE394E1AB
:10054000A40193010E94100CCA01B9010E94C301C9
:100550002CE937E240E050E00E94BB0B24E6E22E9B
:10056000F12C012D112DA80197010E94EE0B3A8369
:1005700029833093E6012093E501C601B501A60168
:1005800095010E94BB0B5B016C01C401B30123E523
:1005900031E040E050E00E94BB0BA80197010E94AF
:1005A000100CC601B5010E94100C890121153105FE
:1005B00011F401E010E06201EE24FF24ED81FE81E0
:1005C000BF01882777FD8095982FA70196010E948B
:1005D000BB0B9201220D331D40E050E00E94100C35
:1005E0002115310521F00217130740F002C021E068
:1005F00030E04D815E81241B350B12C0B80180E0D4
:1006000090E0A40193010E94BB0B9095809570959A
:1006100061957F4F8F4F9F4FA70196010E94100C4D
:100620003093EA012093E9018091E9019091EA0178
:10063000009731F48FEF9FEF9093EA018093E901E7
:100640008091E9019091EA01ED81FE818E0F9F1F5B
:100650009093E8018093E7018B819C8129813A8105
:100660008217930748F09093E6018093E50180910B
:10067000E401887F836004C08091E401887F816009
:100680008093E4011092EE011092ED018091DB0164
:1006900081608093DB018AE087BD85B5826085BD7E
:1006A0008091E5019091E6019093E0018093DF0154
:1006B00026960FB6F894DEBF0FBECDBFCF91DF9167
:1006C0001F910F91FF90EF90DF90CF90BF90AF9070
:1006D0009F908F907F906F905F904F903F902F9062
:1006E00008952F923F924F925F926F927F928F92D6
:1006F0009F92AF92BF92CF92DF92EF92FF920F93B1
:100700001F93DF93CF9300D000D000D0CDB7DEB7DA
:100710009E838D831B012A011092DE011092DD0160
:1007200041E02E35340710F02EE531E02B9A809110
:10073000FA01ED81FE81F7FF09C088608093FA011C
:10074000F095E195FF4FFE83ED8303C0877F809393
:10075000FA014D815E814130510599F48FEF9FEF91
:1007600090930402809303028091FA01887F826053
:100770008093FA0188EE93E09093FC018093FB0153
:10078000C3C08D819E81009709F4CBC05901CC2450
:10079000DD2463E27EED86E290E0A60195010E94F1
:1007A000100C2B833C832093010230930202310111
:1007B0008824992460E07DE58EE394E1A40193010F
:1007C0000E94100CCA01B9010E94C3012CE937E252
:1007D00040E050E00E94BB0B34E6E32EF12C012DEB
:1007E000112DA80197010E94EE0B3A8329833093C3
:1007F000FC012093FB01C601B501A60195010E94F1
:10080000BB0B5B016C01C401B30123E531E040E0A7
:1008100050E00E94BB0BA80197010E94100CC6017A
:10082000B5010E94100C89012115310511F401E078
:1008300010E06201EE24FF24ED81FE81BF018827D4
:1008400077FD8095982FA70196010E94BB0B92011E
:10085000220D331D40E050E00E94100C211531059F
:1008600021F00217130740F002C021E030E04D8173
:100870005E81241B350B12C0B80180E090E0A4011A
:1008800093010E94BB0B90958095709561957F4F69
:100890008F4F9F4FA70196010E94100C30930002CA
:1008A0002093FF018091FF0190910002009731F4A5
:1008B0008FEF9FEF909300028093FF018091FF01E3
:1008C00090910002ED81FE818E0F9F1F9093FE019B
:1008D0008093FD018B819C8129813A818217930746
:1008E00048F09093FC018093FB018091FA01887F8E
:1008F000836004C08091FA01887F81608093FA014F
:1009000010920402109203028091E10181608093B1
:10091000E1018AE08093B3008091B100826080930E
:10092000B1008091FB019091FC019093DE018093D6
:10093000DD0126960FB6F894DEBF0FBECDBFCF9176
:10094000DF911F910F91FF90EF90DF90CF90BF90BC
:10095000AF909F908F907F906F905F904F903F905F
:100960002F9008952F923F924F925F926F927F92B5
:100970008F929F92AF92BF92CF92DF92EF92FF92AF
:100980000F931F93DF93CF9300D000D000D0CDB74B
:10099000DEB79E838D831B012A0141E02E3534078B
:1009A00010F02EE531E05B9A8091EF01ED81FE8140
:1009B000F7FF09C088608093EF01F095E195FF4F44
:1009C000FE83ED8303C0877F8093EF014D815E81BD
:1009D0004130510599F48FEF9FEF9093F901809387
:1009E000F8018091EF01887F82608093EF0188EEAB
:1009F00093E09093F1018093F001C3C08D819E81BB
:100A0000009709F4CEC05901CC24DD2463E27EEDC9
:100A100086E290E0A60195010E94100C2B833C8396
:100A20002093F6013093F70131018824992460E086
:100A30007DE58EE394E1A40193010E94100CCA01AC
:100A4000B9010E94C3012CE937E240E050E00E9466
:100A5000BB0B44E6E42EF12C012D112DA8019701CA
:100A60000E94EE0B3A8329833093F1012093F00129
:100A7000C601B501A60195010E94BB0B5B016C018B
:100A8000C401B30123E531E040E050E00E94BB0B1C
:100A9000A80197010E94100CC601B5010E94100C1C
:100AA00089012115310511F401E010E06201EE2405
:100AB000FF24ED81FE81BF01882777FD8095982F67
:100AC000A70196010E94BB0B9201220D331D40E04D
:100AD00050E00E94100C2115310521F00217130778
:100AE00040F002C021E030E04D815E81241B350BD7
:100AF00012C0B80180E090E0A40193010E94BB0BFA
:100B000090958095709561957F4F8F4F9F4FA7016E
:100B100096010E94100C3093F5012093F40180910E
:100B2000F4019091F501009731F48FEF9FEF9093CE
:100B3000F5018093F4018091F4019091F501ED812C
:100B4000FE818E0F9F1F9093F3018093F2018B81A2
:100B50009C8129813A818217930748F09093F10193
:100B60008093F0018091EF01887F836004C08091C1
:100B7000EF01887F81608093EF011092F90110925C
:100B8000F8018091E30181608093E3018AE090E0C5
:100B90009093890080938800809181008260809387
:100BA000810026960FB6F894DEBF0FBECDBFCF9161
:100BB000DF911F910F91FF90EF90DF90CF90BF904A
:100BC000AF909F908F907F906F905F904F903F90ED
:100BD0002F9008951F920F920FB60F9211244F92EB
:100BE0005F926F927F928F929F92AF92BF92CF92BD
:100BF000DF92EF92FF920F931F932F933F934F93A8
:100C00005F936F937F938F939F93AF93BF93CF9394
:100C1000DF93EF93FF938091DF019091E0018F3F8D
:100C2000910551F04CF08F5F90409093E0018093DC
:100C3000DF018FEF87BD4CC18091E5019091E60106
:100C40009093E0018093DF018F3F910511F00CF04C
:100C50008FEF87BD8091E401282F277030E021308D
:100C6000310511F12230310524F42115310551F0FF
:100C70002BC12230310509F4C8C02330310509F0F9
:100C800023C191C013981092A6011092A501109251
:100C9000A4011092A30185B5887F85BD8091DB01F9
:100CA0008E7F8093DB0110C1869586958695817035
:100CB0000E9460010091A5011091A6010F5F1F4FD6
:100CC0001093A6010093A501C090ED01D090EE0114
:100CD0000894C11CD11CD092EE01C092ED01C091CC
:100CE000E501D091E6014E01AA24BB244090A30166
:100CF0005090A40166247724CC0CDD1CCC0CDD1CA8
:100D00000894C11CD11CEE24D7FCE094FE2CC50134
:100D1000B4012EEF3FEF4FEF5FEF0E94BB0B641962
:100D2000750986099709A70196010E94100CC20F48
:100D3000D31FC501B401660F771F881F991F640D6B
:100D4000751D861D971DA70196010E94100C7093BA
:100D5000A4016093A3018091E7019091E801081735
:100D6000190748F08091E9019091EA019093EE0112
:100D70008093ED0145C08091EB019091EC018C17BF
:100D80009D0708F4A1C0D093A801C093A7011092B9
:100D9000A4011092A3012091E401287F23602093F5
:100DA000E401EC0191C086958695869581700E943C
:100DB00060018091A5019091A60101969093A601F2
:100DC0008093A5015091EB014091EC012091E70146
:100DD0003091E8018217930738F4CA01E92EE70140
:100DE0007E01F82EE70170C08091E9019091EA013F
:100DF0009093EE018093ED01C091A701D091A801DD
:100E00008091E401887F82605DC08091FA018695BF
:100E10008695869581700E9460018091A5019091D0
:100E2000A60101969093A6018093A5010091ED0182
:100E30001091EE010F5F1F4F1093EE010093ED0133
:100E4000C091E501D091E6014E01AA24BB24409057
:100E5000A3015090A401662477246801CC0CDD1C0A
:100E6000CC0CDD1C0894C11CD11CEE24D7FCE094F2
:100E7000FE2CC501B4012EEF3FEF4FEF5FEF0E9454
:100E8000BB0B6419750986099709A70196010E9491
:100E9000100CC20FD31FC501B401660F771F881F46
:100EA000991F640D751D861D971DA70196010E944F
:100EB000100C7093A4016093A30117FD05C08091ED
:100EC000E401887F8093E401D093E601C093E501BB
:100ED000FF91EF91DF91CF91BF91AF919F918F9152
:100EE0007F916F915F914F913F912F911F910F9142
:100EF000FF90EF90DF90CF90BF90AF909F908F903A
:100F00007F906F905F904F900F900FBE0F901F904B
:100F100018951F920F920FB60F9211244F925F9265
:100F20006F927F928F929F92AF92BF92CF92DF92F9
:100F3000EF92FF920F931F932F933F934F935F93E3
:100F40006F937F938F939F93AF93BF93CF93DF93D1
:100F5000EF93FF93119A8091F0019091F10190939A
:100F60008900809388004FEEC42E41E0D42E8091FA
:100F7000EF01282F277030E02130310521F1223098
:100F8000310524F42115310551F029C122303105F4
:100F900009F4C9C02330310509F021C193C05B9821
:100FA0001092A00110929F0110929E0110929D013B
:100FB00080918100887F809381008091E3018E7F02
:100FC0008093E3010CC186958695869581700E9479
:100FD000270100919F011091A0010F5F1F4F1093F7
:100FE000A00100939F01C090F801D090F9010894EE
:100FF000C11CD11CD092F901C092F801C091F0013E
:10100000D091F1014E01AA24BB2440909D01509043
:101010009E0166247724CC0CDD1CCC0CDD1C0894CE
:10102000C11CD11CEE24D7FCE094FE2CC501B401F8
:101030002EEF3FEF4FEF5FEF0E94BB0B6419750976
:1010400086099709A70196010E94100CC20FD31FB1
:10105000C501B401660F771F881F991F640D751DA8
:10106000861D971DA70196010E94100C70939E018A
:1010700060939D018091F2019091F3010817190787
:1010800048F08091F4019091F5019093F9018093DB
:10109000F80144C08091F6019091F7018C179D07EB
:1010A00008F49DC0D093A201C093A10110929E01AB
:1010B00010929D012091EF01287F23602093EF0182
:1010C000EC018DC086958695869581700E942701DA
:1010D00080919F019091A00101969093A00180932F
:1010E0009F015091F6014091F7012091F20130915A
:1010F000F3018217930738F4CA01E92EE7017E0154
:10110000F82EE7016CC08091F4019091F501F60191
:1011100092878187C091A101D091A2018091EF01B6
:10112000887F82605AC086958695869581700E94D8
:10113000270180919F019091A00101969093A001B9
:1011400080939F010091F8011091F9010F5F1F4FEB
:10115000F60112870187C091F001D091F1014E0193
:10116000AA24BB2440909D0150909E0166247724C0
:101170006801CC0CDD1CCC0CDD1C0894C11CD11CFE
:10118000EE24D7FCE094FE2CC501B4012EEF3FEF16
:101190004FEF5FEF0E94BB0B641975098609970931
:1011A000A70196010E94100CC20FD31FC501B40104
:1011B000660F771F881F991F640D751D861D971D6B
:1011C000A70196010E94100C70939E0160939D01EF
:1011D00017FD05C08091EF01887F8093EF01D093C8
:1011E000F101C093F0011198FF91EF91DF91CF9140
:1011F000BF91AF919F918F917F916F915F914F912F
:101200003F912F911F910F91FF90EF90DF90CF9022
:10121000BF90AF909F908F907F906F905F904F9016
:101220000F900FBE0F901F9018951F920F920FB640
:101230000F9211244F925F926F927F928F929F92A2
:10124000AF92BF92CF92DF92EF92FF920F931F93D4
:101250002F933F934F935F936F937F938F939F93BE
:10126000AF93BF93CF93DF93EF93FF938091DD0113
:101270009091DE018F3F910559F054F08F5F9040BF
:101280009093DE018093DD018FEF8093B3004DC119
:101290008091FB019091FC019093DE018093DD0130
:1012A0008F3F910511F00CF08FEF8093B300809188
:1012B000FA01282F277030E02130310521F122304A
:1012C000310524F42115310551F02BC122303105AF
:1012D00009F4CAC02330310509F023C193C02B980B
:1012E00010929A0110929901109298011092970110
:1012F0008091B100887F8093B1008091E1018E7F61
:101300008093E1010EC186958695869581700E9435
:1013100099010091990110919A010F5F1F4F10934D
:101320009A0100939901C0900302D090040208949E
:10133000C11CD11CD0920402C0920302C091FB01D7
:10134000D091FC014E01AA24BB24409097015090FB
:10135000980166247724CC0CDD1CCC0CDD1C089491
:10136000C11CD11CEE24D7FCE094FE2CC501B401B5
:101370002EEF3FEF4FEF5FEF0E94BB0B6419750933
:1013800086099709A70196010E94100CC20FD31F6E
:10139000C501B401660F771F881F991F640D751D65
:1013A000861D971DA70196010E94100C709398014D
:1013B000609397018091FD019091FE010817190734
:1013C00048F08091FF019091000290930402809375
:1013D000030245C080910102909102028C179D0783
:1013E00008F49FC0D0939C01C0939B011092980178
:1013F000109297012091FA01287F23602093FA012F
:10140000EC018FC086958695869581700E94990122
:101410008091990190919A01019690939A018093FD
:10142000990150910102409102022091FD013091F9
:10143000FE018217930738F4CA01E92EE7017E0105
:10144000F82EE7016EC08091FF0190910002909309
:10145000040280930302C0919B01D0919C01809172
:10146000FA01887F82605BC086958695869581703B
:101470000E9499018091990190919A01019690930F
:101480009A018093990100910302109104020F5F69
:101490001F4F1093040200930302C091FB01D091EF
:1014A000FC014E01AA24BB24409097015090980162
:1014B000662477246801CC0CDD1CCC0CDD1C089460
:1014C000C11CD11CEE24D7FCE094FE2CC501B40154
:1014D0002EEF3FEF4FEF5FEF0E94BB0B64197509D2
:1014E00086099709A70196010E94100CC20FD31F0D
:1014F000C501B401660F771F881F991F640D751D04
:10150000861D971DA70196010E94100C70939801EB
:101510006093970117FD05C08091FA01887F809341
:10152000FA01D093FC01C093FB01FF91EF91DF9191
:10153000CF91BF91AF919F918F917F916F915F916B
:101540004F913F912F911F910F91FF90EF90DF905E
:10155000CF90BF90AF909F908F907F906F905F9053
:101560004F900F900FBE0F901F901895262F372F7A
:101570008217930708F49C01C90108959093C50050
:101580008093C400E1ECF0E088E1808386E0809302
:10159000C2008081806880831092E2011092A901CC
:1015A0001092DC0108959091C00095FFFCCF8093CC
:1015B000C60008958091C00087FFFCCF8091C600CF
:1015C0000895AF92BF92DF92EF92FF920F931F9315
:1015D000DF93CF930F92CDB7DEB78C0197FF06C094
:1015E000109501951F4F8DE20E94D30A24E030E050
:1015F00090E1A92E97E2B92EEAE0F0E008C0C5011B
:10160000BF010E94DA0B5B012150304019F00A152E
:101610001B05A8F38AE0E82EF12CC801B5010E9451
:10162000DA0BD82E6D577E4FFB01808199830E9483
:10163000D30A0D2D9981192FC501B7010E94DA0B2C
:101640005B016115710549F70F90CF91DF911F91F3
:101650000F91FF90EF90DF90BF90AF9008951F9390
:10166000CF93DF93EC0110E003C01F5F0E94D30A09
:10167000FE01E10FF11D80818823B9F7DF91CF9141
:101680001F9108951092DC01E9EAF1E08091E201F6
:1016900090E08E0F9F1F01C01192E817F907E1F744
:1016A0001092E2011092A90108951F920F920FB6B5
:1016B0000F9211240F931F932F933F934F935F9398
:1016C0006F937F938F939F93AF93BF93CF93DF934A
:1016D000EF93FF930091C6000036D1F487E791E0C5
:1016E0000E942F0B09EA11E0C0E0D0E006C0F8012B
:1016F00081918F010E94D30A21968091E20190E0AE
:10170000C817D907A4F380E891E00E942F0B0AC004
:101710000C3A19F40E94420B05C00D3051F481E0DF
:101720008093DC018DE00E94D30A8AE00E94D30AF4
:101730000DC0802F0E94D30A8091E201E82FF0E0D3
:10174000E755FE4F00838F5F8093E201FF91EF9199
:10175000DF91CF91BF91AF919F918F917F916F91C9
:101760005F914F913F912F911F910F910F900FBE5D
:101770000F901F901895629FD001739FF001829F78
:10178000E00DF11D649FE00DF11D929FF00D839F10
:10179000F00D749FF00D659FF00D9927729FB00DAD
:1017A000E11DF91F639FB00DE11DF91FBD01CF01C0
:1017B00011240895AA1BBB1B51E107C0AA1FBB1F20
:1017C000A617B70710F0A61BB70B881F991F5A95CD
:1017D000A9F780959095BC01CD010895A1E21A2E3C
:1017E000AA1BBB1BFD010DC0AA1FBB1FEE1FFF1FC5
:1017F000A217B307E407F50720F0A21BB30BE40B15
:10180000F50B661F771F881F991F1A9469F760955B
:101810007095809590959B01AC01BD01CF01089515
:1018200097FB092E05260ED057FD04D0D7DF0AD02E
:10183000001C38F450954095309521953F4F4F4FFF
:101840005F4F0895F6F790958095709561957F4F5D
:101850008F4F9F4F0895FC0188279927E894219185
:101860002032E9F3293010F02E30C8F32B3241F04A
:101870002D3239F4689404C00E94490C820F911DE6
:10188000219120532A30C0F31EF4909581959F4FEB
:1018900008957AE0979F902D879F802D910D1124B8
:0618A0000895F894FFCF4B
:1018A6005741524E494E473A2045584345454445CF
:1018B60044204D4158494D554D205350454544000F
:1018C6000A0D53746570733A20000A0D416363650F
:1018D6006C3A20000A0D53706565643A20000A0DC3
:1018E600446563656C3A2000496E636F7272656386
:1018F6007420436F6D6D616E64000A0D3E00436F88
:101906006D6D616E64205265636569766564000875
:101916000A0206040501094275666665723A2200E6
:0E192600222000303132333435363738390064
:00000001FF
