:100000000C943E000C945B000C945B000C945B0021
:100010000C945B000C945B000C945B000C945B00F4
:100020000C945B000C945B000C945B000C945B00E4
:100030000C945B000C945B000C945B000C945B00D4
:100040000C94A5000C945B000C945B000C945B007A
:100050000C9431010C945B000C945B000C945B00DD
:100060000C945B000C945B000C945B000C945B00A4
:100070000C945B000C945B000C945B0011241FBE7D
:10008000CFEFD0E1DEBFCDBF11E0A0E0B1E0E6E010
:10009000F3E002C005900D92A231B107D9F711E04B
:1000A000A2E1B1E001C01D92AD31B107E1F70E94BC
:1000B0005D000C9481010C9400008CE090E00E94A3
:1000C0000F010E946E0078948FEF81B912B884B945
:1000D00015B887B918B88AB91BB8FFCF10921801A4
:1000E00081E0809317018093160184E680931901C3
:1000F00010921A01109215010895809118018150F3
:10010000877080931801E5E0F1E0E80FF11D808130
:1001100082B90895809118018F5F877080931801CC
:10012000E5E0F1E0E80FF11D808182B908950097C4
:1001300019F41092150108958130910511F483E0AE
:1001400001C081E08093150108951F920F920FB6B0
:100150000F9211242F933F934F935F936F937F934D
:100160008F939F93AF93BF93EF93FF93289A0E942F
:100170008A0080911501813051F0813028F0823061
:10018000F1F08330D1F411C0289815BC18C087B5A0
:1001900090911701891B87BD97B580911901891727
:1001A00070F082E0809315010AC087B59091160126
:1001B000890F87BD87B5803F10F010921501FF9120
:1001C000EF91BF91AF919F918F917F916F915F91CF
:1001D0004F913F912F910F900FBE0F901F90189548
:1001E00084B5826084BD85B5856085BD8FEF87BD90
:1001F000EEE6F0E080818260808381E080931501EB
:10020000089583E0809315010895809580931901E6
:10021000089580931701089580931601089590938F
:10022000C5008093C400E1ECF0E088E1808386E0C3
:100230008093C20080818068808380E28093120175
:100240001092140108959091C00095FFFCCF809307
:10025000C60008958091C00087FFFCCF8091C60042
:1002600008951F920F920FB60F9211242F933F9370
:100270004F935F936F937F938F939F93AF93BF93AE
:10028000EF93FF938091C600809312019091140127
:10029000992319F48093140123C0973499F098346A
:1002A00028F4913491F09434B9F413C0933519F0D3
:1002B000933791F404C090E00E9405010DC00E94A4
:1002C00001010AC00E94F00007C090E00E940901ED
:1002D00003C090E00E940C011092140110921201D0
:1002E000FF91EF91BF91AF919F918F917F916F910E
:1002F0005F914F913F912F910F900FBE0F901F90E4
:060300001895F894FFCFF0
:100306009A99F94060080A020604050109080204E0
:020316000100E4
:00000001FF
