:100000000C943E000C945B000C945B000C945B0021
:100010000C945B000C945B000C945B000C945B00F4
:100020000C945B000C945B000C945B000C945B00E4
:100030000C945B000C945B000C945B000C945B00D4
:100040000C94A3000C945B000C945B000C945B007C
:100050000C94CA000C945B000C945B000C945B0045
:100060000C945B000C945B000C945B000C945B00A4
:100070000C945B000C945B000C945B0011241FBE7D
:10008000CFEFD0E1DEBFCDBF11E0A0E0B1E0E8EB03
:10009000F1E002C005900D92AE30B107D9F711E042
:1000A000AEE0B1E001C01D92A931B107E1F70E94B5
:1000B0005D000C94DA000C9400000F931F938CE009
:1000C00090E00E94AD000E94850078948FEF81B986
:1000D00012B884B915B810E201E080910E0188359C
:1000E00019F40E94950004C0883729F40E94880002
:1000F00010930E01F2CF863419F400930F01EDCF67
:10010000863659F710920F01E8CF10921601089524
:10011000809116018150877080931601E1E0F1E033
:10012000E80FF11D808182B90895809116018F5FDB
:10013000877080931601E1E0F1E0E80FF11D808106
:1001400082B9089508951F920F920FB60F9211244D
:100150000F900FBE0F901F9018959093C50080933D
:10016000C400E1ECF0E088E1808386E08093C20087
:1001700080818068808308959091C00095FFFCCFB6
:100180008093C60008958091C00087FFFCCF8091C6
:10019000C60008951F920F920FB60F9211248F93ED
:1001A0008091C60080930E018F910F900FBE0F902B
:0801B0001F901895F894FFCF91
:0E01B80060080A02060405010908020401009D
:00000001FF
