:100000000C943E000C945B000C945B000C945B0021
:100010000C945B000C945B000C945B000C945B00F4
:100020000C945B000C94CC0C0C945B000C945B0067
:100030000C945B000C94C00A0C945B000C945B0065
:100040000C9499080C945B000C945B000C945B007E
:100050000C94AD100C945B000C945B000C945B0052
:100060000C945B000C945B000C945B000C945B00A4
:100070000C945B000C945B000C945B0011241FBE7D
:10008000CFEFD0E1DEBFCDBF11E0A0E0B1E0E8EA04
:10009000F3E202C005900D92AE38B107D9F712E035
:1000A000AEE8B1E001C01D92A530B107E1F70E94B2
:1000B0005D000C94D2110C940000DF93CF93CDB768
:1000C000DEB728970FB6F894DEBF0FBECDBF8CE029
:1000D00090E00E94950F0E945B030E94C501109260
:1000E000DB011092DA011092DD011092DC01109216
:1000F000E2011092E101789481E290E02FEFFC019F
:10010000208382E290E0FC01108284E290E02FEFF5
:10011000FC01208385E290E0FC01108287E290E000
:100120002FEFFC01208388E290E0FC0110828AE23C
:1001300090E02FEFFC0120838BE290E0FC01108225
:1001400084E690E09A83898387E490E09C838B83A4
:100150008CE090E098878F8387E490E09E838D8386
:1001600001C000008091D7018130D9F78091A301AF
:10017000882F90E08935910509F454C08A3591059E
:10018000C4F48C34910509F4ABC08D3491054CF462
:100190008033910509F4DBC08934910509F47FC0EF
:1001A000E3C08335910509F453C08835910579F191
:1001B000DBC08436910509F459C08536910544F4B5
:1001C0008A359105D1F18136910509F448C0CCC03A
:1001D0008736910529F08337910509F44EC0C4C0D4
:1001E0008091D6018170882311F00E946908809166
:1001F000E0018170882311F00E9479088091D50177
:100200008170882309F4B5C00E948908B5C089812E
:100210009A816B817C814D815E812F8138850E941E
:100220009703AAC089819A816B817C814D815E810F
:100230002F8138850E9435059FC089819A816B8105
:100240007C814D815E812F8138850E94D30694C0C8
:1002500085EA91E00E94AC119A8389838DC085EA7A
:1002600091E00E94AC119C838B8386C085EA91E06B
:100270000E94AC119E838D837FC085EA91E00E942D
:10028000AC1198878F838F819885F1E08F359F0718
:1002900008F471C081E191E00E9457106DC081E3C4
:1002A00091E00E94571089819A810E94F90F8BE397
:1002B00091E00E9457108B819C810E94F90F85E488
:1002C00091E00E9457108F8198850E94F90F8FE46A
:1002D00091E00E9457108D819E810E94F90F4CC0C1
:1002E00088E50E94CD0F8DE30E94CD0F8091DA0149
:1002F0009091DB010E94F90F8DE00E94CD0F8AE002
:100300000E94CD0F89E50E94CD0F8DE30E94CD0F95
:100310008091DC019091DD010E94F90F8DE00E9437
:10032000CD0F8AE00E94CD0F8AE50E94CD0F8DE3AC
:100330000E94CD0F8091E1019091E2010E94F90F9E
:100340008DE00E94CD0F8AE00E94CD0F15C0109263
:10035000DB011092DA011092DD011092DC011092A3
:10036000E2011092E10108C089E591E00E94571076
:1003700003C0000001C000001092D7010E9480104D
:100380008BE691E00E945710EDCEDF93CF93CDB76F
:10039000DEB78BE290E02BE230E0F90120812F7094
:1003A000FC0120838AE290E02AE230E0F90120811A
:1003B000206FFC01208382E290E022E230E0F9012C
:1003C00020812F70FC01208381E290E021E230E067
:1003D000F9012081206FFC01208385E290E025E275
:1003E00030E0F90120812F70FC01208384E290E04D
:1003F00024E230E0F9012081206FFC012083CF91BD
:10040000DF910895DF93CF930F92CDB7DEB7898345
:100410008981813051F48091E1019091E20101974D
:100420009093E2018093E10109C08091E1019091F4
:10043000E20101969093E2018093E1018981882392
:1004400031F0809190018F5F8093900105C0809181
:1004500090018150809390018091900187708093EA
:100460009001809190010E94AD02809190010F90C7
:10047000CF91DF910895DF93CF930F92CDB7DEB781
:1004800089838981813051F48091DA019091DB0177
:1004900001979093DB018093DA0109C08091DA0122
:1004A0009091DB0101969093DB018093DA018981C1
:1004B000882331F080918F018F5F80938F0105C079
:1004C00080918F01815080938F0180918F0187707F
:1004D00080938F0180918F010E94E70280918F01AC
:1004E0000F90CF91DF910895DF93CF930F92CDB707
:1004F000DEB789838981813051F48091DC0190914C
:10050000DD0101979093DD018093DC0109C08091AA
:10051000DC019091DD0101969093DD018093DC0177
:100520008981882331F080918E018F5F80938E01C5
:1005300005C080918E01815080938E0180918E0143
:10054000877080938E0180918E010E94210380919B
:100550008E010F90CF91DF910895DF93CF9300D05C
:10056000CDB7DEB78A838A81882F90E081599E4F6C
:10057000FC01808189838BE290E02BE230E0F9017D
:100580002081422F2981222F30E022953295307F21
:100590003227207F3227242BFC0120838BE290E03E
:1005A0002BE230E0F9012081422F2981222F30E017
:1005B00022953295307F3227207F32272F602423E7
:1005C000FC0120830F900F90CF91DF910895DF936E
:1005D000CF9300D0CDB7DEB78A838A81882F90E091
:1005E00081599E4FFC018081898382E290E022E262
:1005F00030E0F9012081422F2981222F30E022951D
:100600003295307F3227207F3227242BFC01208334
:1006100082E290E022E230E0F9012081422F29813C
:10062000222F30E022953295307F3227207F3227EB
:100630002F602423FC0120830F900F90CF91DF9136
:100640000895DF93CF9300D0CDB7DEB78A838A8138
:10065000882F90E081599E4FFC018081898385E23B
:1006600090E025E230E0F9012081422F2981222FFC
:1006700030E022953295307F3227207F3227242B9D
:10068000FC01208385E290E025E230E0F901208141
:10069000422F2981222F30E022953295307F322758
:1006A000207F32272F602423FC0120830F900F909E
:1006B000CF91DF910895DF93CF93CDB7DEB78091CF
:1006C000EF01887F8093EF0181E890E028E0FC0152
:1006D00020838FE690E022E0FC0120838091E401FA
:1006E000887F8093E40185E490E028E0FC0120838A
:1006F0008EE690E022E0FC0120831092DF01109250
:10070000DE018091FA01887F8093FA0181EB90E00D
:1007100028E0FC01208380E790E022E0FC012083B8
:100720001092D9011092D801CF91DF910895EF92E4
:10073000FF920F931F93DF93CF93CDB7DEB72C9724
:100740000FB6F894DEBF0FBECDBF9E838D83788732
:100750006F835A8749873C872B871092DF0110925D
:10076000DE018B859C856EE571E00E94780F9C8789
:100770008B8782E290E022E230E0F901208128605C
:10078000FC0120838D819E8199236CF48091E4018A
:1007900088608093E4018D819E81909581959F4F23
:1007A0009E838D8305C08091E401877F8093E4015F
:1007B0008D819E8181309105E9F48FEF9FEF9093B9
:1007C000EE018093ED018091E401887F8260809347
:1007D000E40188EE93E09093E6018093E501809137
:1007E000D60181608093D60187E490E02AE0FC0185
:1007F000208326C18D819E81009709F421C18B85BC
:100800009C859C0140E050E083E29EEDA6E2B0E0D2
:10081000BC01CD010E949111DA01C9019093EC0154
:100820008093EB018F8198859C0140E050E080E04F
:100830009DE5AEE3B4E1BC01CD010E949111DA0166
:10084000C901BC01CD010E94F30EDC01CB012CE9F2
:1008500037E240E050E0BC01CD010E943C11DC01D8
:10086000CB0124E630E040E050E0BC01CD010E9425
:100870006F11DA01C9019093E6018093E5018B8540
:100880009C85CC01A0E0B0E02B853C85990140E03F
:1008900050E0BC01CD010E943C117B018C018F8195
:1008A0009885CC01A0E0B0E023E531E040E050E0E5
:1008B000BC01CD010E943C11DC01CB0124E630E0FB
:1008C00040E050E0BC01CD010E949111C801B70188
:1008D0000E949111DA01C9019A83898389819A81E1
:1008E000009721F481E090E09A8389838D819E8135
:1008F000AA2797FDA095BA2F29853A85990140E04E
:1009000050E0BC01CD010E943C11DC01CB014F81C4
:10091000588529853A85240F351F990140E050E01C
:10092000BC01CD010E949111DA01C9019C838B8326
:100930008B819C81009721F481E090E09C838B83E4
:100940002B813C8189819A818217930768F08D8180
:100950009E812B813C81A901481B590BCA019093B0
:10096000EA018093E90126C089819A81CC01A0E047
:10097000B0E02F813885990140E050E0BC01CD0105
:100980000E943C11DC01CB01B095A095909581951A
:100990009F4FAF4FBF4F29853A85990140E050E006
:1009A000BC01CD010E949111DA01C9019093EA01C5
:1009B0008093E9018091E9019091EA01009731F477
:1009C0008FEF9FEF9093EA018093E9012091E90175
:1009D0003091EA018D819E81820F931F9093E801EF
:1009E0008093E7012091E5013091E6018091EB01D0
:1009F0009091EC018217930778F08091EB01909130
:100A0000EC019093E6018093E5018091E401887FF9
:100A100083608093E40106C08091E401887F816057
:100A20008093E4011092EE011092ED018091D601C5
:100A300081608093D60187E490E02AE0FC01208366
:100A40008091E5019091E6019093DF018093DE01B2
:100A50002C960FB6F894DEBF0FBECDBFCF91DF91BD
:100A60001F910F91FF90EF900895EF92FF920F93D7
:100A70001F93DF93CF93CDB7DEB72C970FB6F894C3
:100A8000DEBF0FBECDBF9E838D8378876F835A876D
:100A900049873C872B871092D9011092D8018B850A
:100AA0009C856EE571E00E94780F9C878B8785E2BC
:100AB00090E025E230E0F90120812860FC012083EC
:100AC0008D819E8199236CF48091FA0188608093D6
:100AD000FA018D819E81909581959F4F9E838D8394
:100AE00005C08091FA01877F8093FA018D819E81F4
:100AF00081309105E9F48FEF9FEF9093040280938A
:100B000003028091FA01887F82608093FA0188EE67
:100B100093E09093FC018093FB018091E001816060
:100B20008093E00183EB90E02AE0FC01208326C162
:100B30008D819E81009709F421C18B859C859C0144
:100B400040E050E083E29EEDA6E2B0E0BC01CD01C2
:100B50000E949111DA01C90190930202809301026F
:100B60008F8198859C0140E050E080E09DE5AEE3F8
:100B7000B4E1BC01CD010E949111DA01C901BC01AF
:100B8000CD010E94F30EDC01CB012CE937E240E0FD
:100B900050E0BC01CD010E943C11DC01CB0124E6F8
:100BA00030E040E050E0BC01CD010E946F11DA015D
:100BB000C9019093FC018093FB018B859C85CC013E
:100BC000A0E0B0E02B853C85990140E050E0BC01FD
:100BD000CD010E943C117B018C018F819885CC0155
:100BE000A0E0B0E023E531E040E050E0BC01CD0101
:100BF0000E943C11DC01CB0124E630E040E050E0F3
:100C0000BC01CD010E949111C801B7010E94911150
:100C1000DA01C9019A83898389819A81009721F435
:100C200081E090E09A8389838D819E81AA2797FD38
:100C3000A095BA2F29853A85990140E050E0BC0182
:100C4000CD010E943C11DC01CB014F8158852985E3
:100C50003A85240F351F990140E050E0BC01CD01D9
:100C60000E949111DA01C9019C838B838B819C8145
:100C7000009721F481E090E09C838B832B813C8161
:100C800089819A818217930768F08D819E812B81DB
:100C90003C81A901481B590BCA0190930002809323
:100CA000FF0126C089819A81CC01A0E0B0E02F81AC
:100CB0003885990140E050E0BC01CD010E943C1113
:100CC000DC01CB01B095A095909581959F4FAF4FDA
:100CD000BF4F29853A85990140E050E0BC01CD0124
:100CE0000E949111DA01C901909300028093FF01E3
:100CF0008091FF0190910002009731F48FEF9FEFF8
:100D0000909300028093FF012091FF013091000237
:100D10008D819E81820F931F9093FE018093FD0130
:100D20002091FB013091FC0180910102909102021F
:100D30008217930778F080910102909102029093BC
:100D4000FC018093FB018091FA01887F836080938E
:100D5000FA0106C08091FA01887F81608093FA01D0
:100D600010920402109203028091E001816080934E
:100D7000E00183EB90E02AE0FC0120838091FB01FD
:100D80009091FC019093D9018093D8012C960FB6D5
:100D9000F894DEBF0FBECDBFCF91DF911F910F91B1
:100DA000FF90EF900895EF92FF920F931F93DF93C0
:100DB000CF93CDB7DEB72C970FB6F894DEBF0FBE3A
:100DC000CDBF9E838D8378876F835A8749873C8701
:100DD0002B878B859C856EE571E00E94780F9C8740
:100DE0008B878BE290E02BE230E0F90120812860D4
:100DF000FC0120838D819E8199236CF48091EF0109
:100E000088608093EF018D819E81909581959F4FA1
:100E10009E838D8305C08091EF01877F8093EF01D2
:100E20008D819E8181309105F9F48FEF9FEF909332
:100E3000F9018093F8018091EF01887F82608093AF
:100E4000EF0188EE93E09093F1018093F00180919F
:100E5000D50181608093D50188E890E02AE030E0F8
:100E6000FC013183208328C18D819E81009709F484
:100E700023C18B859C859C0140E050E083E29EED80
:100E8000A6E2B0E0BC01CD010E949111DA01C901D6
:100E90009093F7018093F6018F8198859C0140E043
:100EA00050E080E09DE5AEE3B4E1BC01CD010E94DD
:100EB0009111DA01C901BC01CD010E94F30EDC01E0
:100EC000CB012CE937E240E050E0BC01CD010E94AB
:100ED0003C11DC01CB0124E630E040E050E0BC01F5
:100EE000CD010E946F11DA01C9019093F101809345
:100EF000F0018B859C85CC01A0E0B0E02B853C8582
:100F0000990140E050E0BC01CD010E943C117B0101
:100F10008C018F819885CC01A0E0B0E023E531E021
:100F200040E050E0BC01CD010E943C11DC01CB014E
:100F300024E630E040E050E0BC01CD010E94911178
:100F4000C801B7010E949111DA01C9019A8389830E
:100F500089819A81009721F481E090E09A838983C6
:100F60008D819E81AA2797FDA095BA2F29853A8564
:100F7000990140E050E0BC01CD010E943C11DC0130
:100F8000CB014F81588529853A85240F351F99015A
:100F900040E050E0BC01CD010E949111DA01C9018D
:100FA0009C838B838B819C81009721F481E090E06E
:100FB0009C838B832B813C8189819A818217930743
:100FC00068F08D819E812B813C81A901481B590BC2
:100FD000CA019093F5018093F40126C089819A811A
:100FE000CC01A0E0B0E02F813885990140E050E0CD
:100FF000BC01CD010E943C11DC01CB01B095A09554
:10100000909581959F4FAF4FBF4F29853A859901A4
:1010100040E050E0BC01CD010E949111DA01C9010C
:101020009093F5018093F4018091F4019091F50182
:10103000009731F48FEF9FEF9093F5018093F401C7
:101040002091F4013091F5018D819E81820F931FD3
:101050009093F3018093F2012091F0013091F1011E
:101060008091F6019091F7018217930778F08091B3
:10107000F6019091F7019093F1018093F001809136
:10108000EF01887F83608093EF0106C08091EF01BC
:10109000887F81608093EF011092F9011092F8012E
:1010A0008091D50181608093D50188E890E02AE0A5
:1010B00030E0FC01318320832C960FB6F894DEBF1C
:1010C0000FBECDBFCF91DF911F910F91FF90EF9099
:1010D0000895DF93CF93CDB7DEB785E490E025E4A4
:1010E00030E0F90120812260FC012083CF91DF9163
:1010F0000895DF93CF93CDB7DEB781EB90E021EB7E
:1011000030E0F90120812260FC012083CF91DF9142
:101110000895DF93CF93CDB7DEB781E890E021E863
:1011200030E0F90120812260FC012083CF91DF9122
:1011300008951F920F920FB60F9211240F931F93D1
:101140002F933F934F935F936F937F938F939F93CF
:10115000AF93BF93EF93FF93DF93CF9300D0CDB7BF
:10116000DEB78091DE019091DF018F3F910589F01C
:1011700084F08091DE019091DF018F5F9040909329
:10118000DF018093DE0187E490E02FEFFC012083F4
:10119000E0C18091E5019091E6019093DF01809399
:1011A000DE018091DE019091DF018F3F910539F0E2
:1011B00034F087E490E02FEFFC01208308C087E43F
:1011C00090E02091DE013091DF01FC0120838091CD
:1011D000E4018770882F90E08130910579F18230A9
:1011E00091051CF4009751F0AEC18230910509F4CD
:1011F00019C18330910509F4DDC0A5C182E290E0F8
:1012000022E230E0F9012081277FFC012083109247
:101210009E0110929D011092A00110929F0185E401
:1012200090E025E430E0F9012081287FFC01208353
:101230008091D6018E7F8093D60185C18091E40193
:1012400086958695869581700E943B0280919D01CE
:1012500090919E01019690939E0180939D018091B3
:10126000ED019091EE0101969093EE018093ED01D6
:101270000091E5011091E6018091E5019091E60170
:10128000CC01A0E0B0E09C01AD01220F331F441F50
:10129000551F80919F019091A001CC01A0E0B0E08A
:1012A000820F931FA41FB51F2091ED013091EE0115
:1012B000220F331F220F331F2F5F3F4F442737FD6D
:1012C0004095542FBC01CD010E949111DA01C90152
:1012D0009801281B390BC9019A8389838091E50104
:1012E0009091E601CC01A0E0B0E09C01AD01220F9D
:1012F000331F441F551F80919F019091A001CC0185
:10130000A0E0B0E0820F931FA41FB51F2091ED0154
:101310003091EE01220F331F220F331F2F5F3F4FFB
:10132000442737FD4095542FBC01CD010E949111F7
:10133000DC01CB019093A00180939F012091E701F4
:101340003091E80180919D0190919E018217930751
:1013500078F08091E9019091EA019093EE018093F9
:10136000ED018091E401887F82608093E401EBC00D
:101370008091EB019091EC019C0189819A81281761
:10138000390708F4DBC089819A819093A201809388
:10139000A1018091EB019091EC019A8389831092D5
:1013A000A00110929F018091E401887F8360809367
:1013B000E401C9C08091E401869586958695817087
:1013C0000E943B0280919D0190919E010196909315
:1013D0009E0180939D018091EB019091EC019A8395
:1013E00089832091E7013091E80180919D019091DE
:1013F0009E018217930708F4A3C08091E9019091A0
:10140000EA019093EE018093ED018091A10190910A
:10141000A2019A8389838091E401887F826080930E
:10142000E40191C08091FA01869586958695817038
:101430000E943B0280919D0190919E0101969093A4
:101440009E0180939D018091ED019091EE010196A6
:101450009093EE018093ED010091E5011091E6017A
:101460008091E5019091E601CC01A0E0B0E09C0103
:10147000AD01220F331F441F551F80919F01909192
:10148000A001CC01A0E0B0E0820F931FA41FB51F04
:101490002091ED013091EE01220F331F220F331FF7
:1014A0002F5F3F4F442737FD4095542FBC01CD019E
:1014B0000E949111DA01C901F801E81BF90BCF0173
:1014C0009A8389838091E5019091E601CC01A0E0A7
:1014D000B0E09C01AD01220F331F441F551F8091C6
:1014E0009F019091A001CC01A0E0B0E0820F931F7A
:1014F000A41FB51F2091ED013091EE01220F331F83
:10150000220F331F2F5F3F4F442737FD4095542F45
:10151000BC01CD010E949111DC01CB019093A0018F
:1015200080939F018091ED019091EE01992354F0F9
:101530008091E401887F8093E40105C0000003C02E
:10154000000001C0000089819A819093E601809398
:10155000E5010F900F90CF91DF91FF91EF91BF9137
:10156000AF919F918F917F916F915F914F913F913B
:101570002F911F910F910F900FBE0F901F901895F4
:101580001F920F920FB60F9211240F931F932F9358
:101590003F934F935F936F937F938F939F93AF93FB
:1015A000BF93EF93FF93DF93CF9300D0CDB7DEB718
:1015B00082E290E022E230E0F90120812260FC0129
:1015C000208388E890E02091F0013091F101FC0146
:1015D000318320838091EF018770882F90E08130E4
:1015E000910579F1823091051CF4009751F0AEC15C
:1015F0008230910509F419C18330910509F4DDC0E9
:10160000A5C18BE290E02BE230E0F9012081277F39
:10161000FC012083109298011092970110929A0178
:101620001092990181E890E021E830E0F9012081F1
:10163000287FFC0120838091D5018E7F8093D50186
:1016400085C18091EF0186958695869581700E946F
:1016500002028091970190919801019690939801D0
:10166000809397018091F8019091F90101969093F0
:10167000F9018093F8010091F0011091F10180913E
:10168000F0019091F101CC01A0E0B0E09C01AD012E
:10169000220F331F441F551F8091990190919A0189
:1016A000CC01A0E0B0E0820F931FA41FB51F2091D2
:1016B000F8013091F901220F331F220F331F2F5FE2
:1016C0003F4F442737FD4095542FBC01CD010E9468
:1016D0009111DA01C9019801281B390BC9019A83BC
:1016E00089838091F0019091F101CC01A0E0B0E0FC
:1016F0009C01AD01220F331F441F551F809199019A
:1017000090919A01CC01A0E0B0E0820F931FA41F3A
:10171000B51F2091F8013091F901220F331F220FDC
:10172000331F2F5F3F4F442737FD4095542FBC0197
:10173000CD010E949111DC01CB0190939A0180931D
:1017400099012091F2013091F301809197019091DC
:1017500098018217930778F08091F4019091F50138
:101760009093F9018093F8018091EF01887F826066
:101770008093EF01EBC08091F6019091F7019C01FD
:1017800089819A812817390708F4DBC089819A81F9
:1017900090939C0180939B018091F6019091F701B9
:1017A0009A83898310929A01109299018091EF0196
:1017B000887F83608093EF01C9C08091EF01869597
:1017C0008695869581700E94020280919701909182
:1017D0009801019690939801809397018091F6016A
:1017E0009091F7019A8389832091F2013091F3015E
:1017F00080919701909198018217930708F4A3C0F4
:101800008091F4019091F5019093F9018093F80192
:1018100080919B0190919C019A8389838091EF0133
:10182000887F82608093EF0191C08091EF0186955F
:101830008695869581700E94020280919701909111
:101840009801019690939801809397018091F801F7
:101850009091F90101969093F9018093F80100911C
:10186000F0011091F1018091F0019091F101CC0112
:10187000A0E0B0E09C01AD01220F331F441F551FB3
:101880008091990190919A01CC01A0E0B0E0820F83
:10189000931FA41FB51F2091F8013091F901220F69
:1018A000331F220F331F2F5F3F4F442737FD4095D3
:1018B000542FBC01CD010E949111DA01C901F80138
:1018C000E81BF90BCF019A8389838091F0019091F5
:1018D000F101CC01A0E0B0E09C01AD01220F331F6B
:1018E000441F551F8091990190919A01CC01A0E06D
:1018F000B0E0820F931FA41FB51F2091F801309113
:10190000F901220F331F220F331F2F5F3F4F442750
:1019100037FD4095542FBC01CD010E949111DC018F
:10192000CB0190939A01809399018091F801909155
:10193000F901992354F08091EF01887F8093EF01A2
:1019400005C0000003C0000001C0000089819A8129
:101950009093F1018093F00182E290E022E230E086
:10196000F90120812D7FFC0120830F900F90CF91F2
:10197000DF91FF91EF91BF91AF919F918F917F91F7
:101980006F915F914F913F912F911F910F910F9008
:101990000FBE0F901F9018951F920F920FB60F92C7
:1019A00011240F931F932F933F934F935F936F9344
:1019B0007F938F939F93AF93BF93EF93FF93DF93A7
:1019C000CF9300D0CDB7DEB78091D8019091D901E7
:1019D0008F3F910589F084F08091D8019091D901D1
:1019E0008F5F90409093D9018093D80183EB90E072
:1019F0002FEFFC012083E0C18091FB019091FC015D
:101A00009093D9018093D8018091D8019091D90108
:101A10008F3F910539F034F083EB90E02FEFFC011C
:101A2000208308C083EB90E02091D8013091D90148
:101A3000FC0120838091FA018770882F90E081302B
:101A4000910579F1823091051CF4009751F0AEC1F7
:101A50008230910509F419C18330910509F4DDC084
:101A6000A5C185E290E025E230E0F9012081277FE1
:101A7000FC01208310929201109291011092940126
:101A80001092930181EB90E021EB30E0F90120818D
:101A9000287FFC0120838091E0018E7F8093E0010C
:101AA00085C18091FA0186958695869581700E9400
:101AB000740280919101909192010196909392010C
:101AC000809391018091030290910402019690937A
:101AD0000402809303020091FB011091FC018091AC
:101AE000FB019091FC01CC01A0E0B0E09C01AD01B4
:101AF000220F331F441F551F809193019091940131
:101B0000CC01A0E0B0E0820F931FA41FB51F20916D
:101B1000030230910402220F331F220F331F2F5F65
:101B20003F4F442737FD4095542FBC01CD010E9403
:101B30009111DA01C9019801281B390BC9019A8357
:101B400089838091FB019091FC01CC01A0E0B0E081
:101B50009C01AD01220F331F441F551F809193013B
:101B600090919401CC01A0E0B0E0820F931FA41FDC
:101B7000B51F2091030230910402220F331F220F60
:101B8000331F2F5F3F4F442737FD4095542FBC0133
:101B9000CD010E949111DC01CB01909394018093BF
:101BA00093012091FD013091FE018091910190916E
:101BB00092018217930778F08091FF0190910002C3
:101BC00090930402809303028091FA01887F8260DF
:101BD0008093FA01EBC080910102909102029C0176
:101BE00089819A812817390708F4DBC089819A8195
:101BF0009093960180939501809101029091020249
:101C00009A83898310929401109293018091FA0132
:101C1000887F83608093FA01C9C08091FA0186951C
:101C20008695869581700E947402809191019091B1
:101C3000920101969093920180939101809101020B
:101C4000909102029A8389832091FD013091FE01D7
:101C500080919101909192018217930708F4A3C09B
:101C60008091FF01909100029093040280930302FF
:101C700080919501909196019A8389838091FA01D0
:101C8000887F82608093FA0191C08091FA018695E5
:101C90008695869581700E94740280919101909141
:101CA0009201019690939201809391018091030299
:101CB0009091040201969093040280930302009194
:101CC000FB011091FC018091FB019091FC01CC0182
:101CD000A0E0B0E09C01AD01220F331F441F551F4F
:101CE0008091930190919401CC01A0E0B0E0820F2B
:101CF000931FA41FB51F2091030230910402220FED
:101D0000331F220F331F2F5F3F4F442737FD40956E
:101D1000542FBC01CD010E949111DA01C901F801D3
:101D2000E81BF90BCF019A8389838091FB01909185
:101D3000FC01CC01A0E0B0E09C01AD01220F331FFB
:101D4000441F551F8091930190919401CC01A0E014
:101D5000B0E0820F931FA41FB51F209103023091A2
:101D60000402220F331F220F331F2F5F3F4F4427E0
:101D700037FD4095542FBC01CD010E949111DC012B
:101D8000CB019093940180939301809103029091F1
:101D90000402992354F08091FA01887F8093FA011C
:101DA00005C0000003C0000001C0000089819A81C5
:101DB0009093FC018093FB010F900F90CF91DF91E6
:101DC000FF91EF91BF91AF919F918F917F916F9113
:101DD0005F914F913F912F911F910F910F900FBEE7
:101DE0000F901F9018956F927F928F929F92AF9253
:101DF000BF92CF92DF92EF92FF920F931F93DF93E8
:101E0000CF9300D000D0CDB7DEB769837A838B83C0
:101E10009C83EE24FF248701AA24BB2465016894D7
:101E2000D6F8A80197012A0D3B1D4C1D5D1D898127
:101E30009A81AB81BC8182179307A407B507C8F0CC
:101E4000D801C7018A0D9B1DAC1DBD1D29813A819A
:101E50004B815C8139014A01681A790A8A0A9B0A16
:101E6000D401C30189839A83AB83BC83992493945F
:101E700001C0992416950795F794E794992021F0CD
:101E8000EA0CFB1C0C1D1D1DD694C794B794A79497
:101E9000D694C794B794A794A114B104C104D104F3
:101EA00009F0BFCF89819A81AB81BC81E816F90620
:101EB0000A071B0730F4D801C7010196A11DB11D07
:101EC00002C0D801C701BC01CD010F900F900F9047
:101ED0000F90CF91DF911F910F91FF90EF90DF90C6
:101EE000CF90BF90AF909F908F907F906F9008950C
:101EF000DF93CF9300D000D0CDB7DEB79A8389832C
:101F00007C836B8329813A818B819C8128173907D7
:101F100018F489819A8102C08B819C810F900F9067
:101F20000F900F90CF91DF910895DF93CF9300D062
:101F3000CDB7DEB79A83898385EC90E029813A8119
:101F4000232F3327FC01208384EC90E02981FC01BE
:101F5000208381EC90E028E1FC01208382EC90E07A
:101F600026E0FC01208381EC90E021EC30E0F901D7
:101F700020812068FC0120831092E3018091E3011D
:101F8000882F90E08D559E4FFC0110821092D70152
:101F90000F900F90CF91DF910895DF93CF930F9221
:101FA000CDB7DEB78983000080EC90E0FC01808132
:101FB000882F90E0807290700097B1F386EC90E0EB
:101FC0002981FC0120830F90CF91DF910895DF9349
:101FD000CF93CDB7DEB7000080EC90E0FC018081AC
:101FE0008823D4F786EC90E0FC018081CF91DF91CB
:101FF0000895DF93CF9300D000D0CDB7DEB79C8398
:102000008B8380E197E29A8389838B819C819923DA
:10201000ACF48B819C81909581959F4F9C838B83A1
:102020008DE20E94CD0F0AC089819A812AE030E0BA
:10203000B9010E945B119B013A83298389819A81AE
:102040008230910538F02B813C8189819A81281753
:10205000390750F38B819C8129813A81B9010E9413
:102060005B119B01C9018D579E4FFC0180810E942D
:10207000CD0F8B819C8129813A81B9010E945B112E
:102080009C838B8389819A812AE030E0B9010E9488
:102090005B119B013A83298389819A810097D1F64C
:1020A0000F900F900F900F90CF91DF910895DF93D5
:1020B000CF9300D00F92CDB7DEB79B838A8319826E
:1020C0000EC08981882F90E02A813B81820F931F67
:1020D000FC01808199819F5F99830E94CD0F898146
:1020E000882F90E02A813B81820F931FFC01808121
:1020F000882339F70F900F900F90CF91DF910895BB
:10210000DF93CF9300D0CDB7DEB71092D7011A82FC
:1021100019820BC089819A818D559E4FFC011082D6
:1021200089819A8101969A8389838091E301282F7E
:1021300030E089819A818217930764F31092E3015A
:102140008091E301882F90E08D559E4FFC01108215
:102150000F900F90CF91DF9108951F920F920FB6BD
:102160000F9211242F933F934F935F936F937F931D
:102170008F939F93AF93BF93EF93FF93DF93CF938F
:1021800000D00F92CDB7DEB786EC90E0FC018081E5
:102190008B838B81803641F587E791E00E94571051
:1021A0001A8219820DC089819A818D559E4FFC013A
:1021B00080810E94CD0F89819A8101969A838983BB
:1021C0008091E301282F30E089819A81821793075B
:1021D00054F380E891E00E9457108DE00E94CD0FEB
:1021E0008AE00E94CD0F32C08B818C3A49F40E9464
:1021F00080108DE00E94CD0F8AE00E94CD0F26C096
:102200008B818D3051F481E08093D7018DE00E9465
:10221000CD0F8AE00E94CD0F19C08B810E94CD0F97
:102220002091E301822F90E08D559E4F3B81FC0170
:102230003083822F8F5F8093E3018B818D3031F467
:1022400089E58093D7018AE00E94CD0F2396DEBFF7
:10225000CDBFCF91DF91FF91EF91BF91AF919F9152
:102260008F917F916F915F914F913F912F910F903F
:102270000FBE0F901F901895629FD001739FF001C1
:10228000829FE00DF11D649FE00DF11D929FF00D06
:10229000839FF00D749FF00D659FF00D9927729F3D
:1022A000B00DE11DF91F639FB00DE11DF91FBD01C8
:1022B000CF0111240895AA1BBB1B51E107C0AA1F1F
:1022C000BB1FA617B70710F0A61BB70B881F991FD7
:1022D0005A95A9F780959095BC01CD010895A1E28A
:1022E0001A2EAA1BBB1BFD010DC0AA1FBB1FEE1F90
:1022F000FF1FA217B307E407F50720F0A21BB30BDB
:10230000E40BF50B661F771F881F991F1A9469F756
:1023100060957095809590959B01AC01BD01CF01B2
:10232000089597FB092E05260ED057FD04D0D7DF60
:102330000AD0001C38F450954095309521953F4FB8
:102340004F4F5F4F0895F6F7909580957095619582
:102350007F4F8F4F9F4F0895FC0188279927E8945E
:1023600021912032E9F3293010F02E30C8F32B32BE
:1023700041F02D3239F4689404C00E94CA11820FD2
:10238000911D219120532A30C0F31EF49095819520
:102390009F4F08957AE0979F902D879F802D910DF4
:0823A00011240895F894FFCF09
:1023A800436F6D6D616E642052656365697665641F
:1023B800005741524E494E473A20455843454544F7
:1023C8004544204D4158494D554D205350454544AD
:1023D800000A0D53746570733A20000A0D41636357
:1023E800656C3A20000A0D53706565643A20000A4E
:1023F8000D446563656C3A2000496E636F727265BF
:10240800637420436F6D6D616E64000A0D3E0008B1
:102418000A0206040501094275666665723A2200D9
:0E242800222000303132333435363738390057
:00000001FF
