:100000000C945C000C9479000C9479000C947900A9
:100010000C9479000C9479000C9479000C9479007C
:100020000C9479000C94300E0C9479000C947900A7
:100030000C9479000C94240C0C9479000C947900A5
:100040000C94FD090C9479000C9479000C947900BF
:100050000C9411120C9479000C9479000C94790092
:100060000C9479000C9479000C9479000C9479002C
:100070000C9479000C9479000C947900494E46490F
:100080004E4954594E414ECDCCCC3D0AD7233C1756
:10009000B7D13877CC2B329595E6241FB14F0A00A3
:1000A0000020410000C84200401C4620BCBE4CCA93
:1000B0001B0E5AAEC59D740011241FBECFEFD0E1B8
:1000C000DEBFCDBF11E0A0E0B1E0EEEAFCE202C08D
:1000D00005900D92A63BB107D9F712E0A6EBB1E06F
:1000E00001C01D92AF32B107E1F70E94A4010C9448
:1000F00055160C940000DF93CF93CDB7DEB78091F7
:10010000FE018170882311F00E94CD0980910802C0
:100110008170882311F00E94DD098091FD018170BA
:10012000882311F00E94ED09CF91DF910895DF93AC
:10013000CF93CDB7DEB766970FB6F894DEBF0FBE8C
:10014000CDBF83E090E09A838983E1C089819A8161
:1001500085539E4FFC018081883509F042C080E0C4
:1001600090E0DC018B839C83AD83BE8389819A817F
:1001700001969A83898389819A8185539E4F0E9433
:10018000F513DC01CB018B839C83AD83BE836B8134
:100190007C818D819E8120E030E048EC52E40E9419
:1001A000FA12DC01CB01BC01CD010E94A012DC01DE
:1001B000CB0198878F8380910202909103022F8157
:1001C0003885A901481B590BCA019A8789878985F7
:1001D0009A8564EF71E044EF51E02EE531E00E9432
:1001E000FB0489819A8185539E4FFC01808189356A
:1001F00009F042C080E090E0DC018B879C87AD87EE
:10020000BE8789819A8101969A83898389819A819F
:1002100085539E4F0E94F513DC01CB018B879C8791
:10022000AD87BE876B857C858D859E8520E030E01F
:1002300048EC52E40E94FA12DC01CB01BC01CD0172
:100240000E94A012DC01CB01988B8F878091040261
:10025000909105022F853889A901481B590BCA01C5
:100260009A87898789859A8564EF71E044EF51E028
:100270002EE531E00E94990689819A8185539E4F2F
:10028000FC0180818A3509F042C080E090E0DC0109
:10029000898B9A8BAB8BBC8B89819A8101969A83CF
:1002A000898389819A8185539E4F0E94F513DC01D1
:1002B000CB01898B9A8BAB8BBC8B69897A898B89B3
:1002C0009C8920E030E048EC52E40E94FA12DC0104
:1002D000CB01BC01CD010E94A012DC01CB019E8BA1
:1002E0008D8B8091090290910A022D893E89A90186
:1002F000481B590BCA019A87898789859A8564EFBB
:1003000071E044EF51E02EE531E00E943708898129
:100310009A8185539E4FFC01808121E0882309F456
:1003200020E089819A8101969A838983222309F0AA
:100330000DCF0E947B0066960FB6F894DEBF0FBE0D
:10034000CDBFCF91DF910895DF93CF93CDB7DEB7C7
:100350002A970FB6F894DEBF0FBECDBF8CE090E0B9
:100360000E94F91081E191E00E94BB110E94BF043C
:100370000E942903109203021092020210920502B9
:100380001092040210920A0210920902789481E2FB
:1003900090E02FEFFC01208382E290E0FC011082CC
:1003A00084E290E02FEFFC01208385E290E0FC01E5
:1003B000108287E290E02FEFFC01208388E290E03A
:1003C000FC0110828AE290E02FEFFC0120838BE297
:1003D00090E0FC01108284E690E09A83898387E4B0
:1003E00090E09C838B838CE090E098878F8387E4F8
:1003F00090E09E838D831A8619868DE191E00E949C
:10040000BB118091FF01813009F01AC18091CB01AD
:10041000882F90E08835910509F456C089359105FB
:10042000C4F48934910509F497C08A34910544F4E1
:100430008033910509F4E8C08734910529F1F1C0B2
:100440008C34910509F4A9C08335910509F45DC088
:10045000E8C08136910509F45FC08236910544F405
:1004600089359105E1F18A35910509F443C0D9C078
:100470008736910531F18337910509F45BC08436E5
:10048000910509F450C0CDC08091CC01882F90E037
:100490008033910581F48091CD01882F90E08033E5
:1004A000910519F40E94970005C086E291E00E9430
:1004B000BB11000005C086E291E00E94BB11000064
:1004C000B6C00E947B00B3C089819A816B817C8118
:1004D0004D815E812F8138850E94FB04A8C08981EF
:1004E0009A816B817C814D815E812F8138850E944C
:1004F00099069DC089819A816B817C814D815E8145
:100500002F8138850E94370892C08DEC91E00E94BF
:10051000F9139A8389838BC08DEC91E00E94F913C3
:100520009C838B8384C08DEC91E00E94F9139E83A1
:100530008D837DC08DEC91E00E94F91398878F83A5
:100540008F819885F1E08F359F0708F46FC089E3AC
:1005500091E00E94BB116BC089E591E00E94BB1144
:1005600089819A810E945D1183E691E00E94BB110E
:100570008B819C810E945D118DE691E00E94BB11F0
:100580008F8198850E945D1187E791E00E94BB11E1
:100590008D819E810E945D114AC088E50E943111C3
:1005A0008DE30E94311180910202909103020E941A
:1005B0005D118DE00E9431118AE00E94311189E5C0
:1005C0000E9431118DE30E943111809104029091BB
:1005D00005020E945D118DE00E9431118AE00E94A7
:1005E00031118AE50E9431118DE30E943111809111
:1005F000090290910A020E945D118DE00E94311162
:100600008AE00E94311113C010920302109202027C
:10061000109205021092040210920A02109209022E
:1006200006C081E891E00E94BB1101C00000109259
:10063000FF010E94E41183E991E00E94BB11E1CE29
:1006400082E290E022E230E0F9012081FC01208387
:10065000D8CEDF93CF93CDB7DEB78BE290E02BE21D
:1006600030E0F90120812F70FC0120838AE290E0C4
:100670002AE230E0F9012081206FFC01208382E230
:1006800090E022E230E0F90120812F70FC0120830C
:1006900081E290E021E230E0F9012081206FFC014D
:1006A000208385E290E025E230E0F90120812F707F
:1006B000FC01208384E290E024E230E0F901208113
:1006C000206FFC012083CF91DF910895DF93CF93BA
:1006D0000F92CDB7DEB789838981813051F4809143
:1006E000090290910A02019790930A0280930902ED
:1006F00009C08091090290910A02019690930A0222
:10070000809309028981882331F08091B8018F5F3D
:100710008093B80105C08091B80181508093B801E1
:100720008091B80187708093B8018091B8010E94D0
:1007300011048091B8010F90CF91DF910895DF935C
:10074000CF930F92CDB7DEB789838981813051F481
:10075000809102029091030201979093030280938B
:10076000020209C0809102029091030201969093C7
:100770000302809302028981882331F08091B701BE
:100780008F5F8093B70105C08091B701815080933E
:10079000B7018091B70187708093B7018091B7014D
:1007A0000E944B048091B7010F90CF91DF91089583
:1007B000DF93CF930F92CDB7DEB7898389818130E4
:1007C00051F48091040290910502019790930502E3
:1007D0008093040209C08091040290910502019661
:1007E00090930502809304028981882331F08091DF
:1007F000B6018F5F8093B60105C08091B60181502C
:100800008093B6018091B60187708093B601809184
:10081000B6010E9485048091B6010F90CF91DF91BF
:100820000895DF93CF9300D0CDB7DEB78A838A8156
:10083000882F90E089569E4FFC01808189838BE24E
:1008400090E02BE230E0F9012081422F2981222F14
:1008500030E022953295307F3227207F3227242BBB
:10086000FC0120838BE290E02BE230E0F901208153
:10087000422F2981222F30E022953295307F322776
:10088000207F32272F602423FC0120830F900F90BC
:10089000CF91DF910895DF93CF9300D0CDB7DEB72E
:1008A0008A838A81882F90E089569E4FFC0180813F
:1008B000898382E290E022E230E0F9012081422F38
:1008C0002981222F30E022953295307F3227207FF8
:1008D0003227242BFC01208382E290E022E230E0E8
:1008E000F9012081422F2981222F30E02295329573
:1008F000307F3227207F32272F602423FC01208382
:100900000F900F90CF91DF910895DF93CF9300D098
:10091000CDB7DEB78A838A81882F90E089569E4FB3
:10092000FC018081898385E290E025E230E0F901D5
:100930002081422F2981222F30E022953295307F6D
:100940003227207F3227242BFC01208385E290E090
:1009500025E230E0F9012081422F2981222F30E069
:1009600022953295307F3227207F32272F60242333
:10097000FC0120830F900F90CF91DF910895DF93BA
:10098000CF93CDB7DEB780911702887F809317028F
:1009900081E890E028E0FC0120838FE690E022E0EF
:1009A000FC01208380910C02887F80930C0285E4F7
:1009B00090E028E0FC0120838EE690E022E0FC013C
:1009C0002083109207021092060280912202887FF3
:1009D0008093220281EB90E028E0FC01208380E7F5
:1009E00090E022E0FC0120831092010210920002AC
:1009F000CF91DF910895EF92FF920F931F93DF93B2
:100A0000CF93CDB7DEB72C970FB6F894DEBF0FBEED
:100A1000CDBF9E838D8378876F835A8749873C87B4
:100A20002B8710920702109206028B859C856EE53B
:100A300071E00E94DC109C878B8782E290E022E2CA
:100A400030E0F90120812860FC0120838D819E81A6
:100A500099236CF480910C02886080930C028D8144
:100A60009E81909581959F4F9E838D8305C0809137
:100A70000C02877F80930C028D819E8181309105CD
:100A8000E9F48FEF9FEF9093160280931502809107
:100A90000C02887F826080930C0288EE93E0909332
:100AA0000E0280930D028091FE0181608093FE0111
:100AB00087E490E02AE0FC01208326C18D819E819D
:100AC000009709F421C18B859C859C0140E050E092
:100AD00083E29EEDA6E2B0E0BC01CD010E94DA13F4
:100AE000DA01C90190931402809313028F819885D3
:100AF0009C0140E050E080E09DE5AEE3B4E1BC0144
:100B0000CD010E94DA13DA01C901BC01CD010E94B6
:100B10005710DC01CB012CE937E240E050E0BC018A
:100B2000CD010E948513DC01CB0124E630E040E0DA
:100B300050E0BC01CD010E94B813DA01C9019093C5
:100B40000E0280930D028B859C85CC01A0E0B0E065
:100B50002B853C85990140E050E0BC01CD010E940D
:100B600085137B018C018F819885CC01A0E0B0E0DA
:100B700023E531E040E050E0BC01CD010E94851347
:100B8000DC01CB0124E630E040E050E0BC01CD01C7
:100B90000E94DA13C801B7010E94DA13DA01C90111
:100BA0009A83898389819A81009721F481E090E07A
:100BB0009A8389838D819E81AA2797FDA095BA2F5C
:100BC00029853A85990140E050E0BC01CD010E94A1
:100BD0008513DC01CB014F81588529853A85240F87
:100BE000351F990140E050E0BC01CD010E94DA13AD
:100BF000DA01C9019C838B838B819C81009721F44E
:100C000081E090E09C838B832B813C8189819A8158
:100C10008217930768F08D819E812B813C81A90109
:100C2000481B590BCA01909312028093110226C0EF
:100C300089819A81CC01A0E0B0E02F8138859901AB
:100C400040E050E0BC01CD010E948513DC01CB01E6
:100C5000B095A095909581959F4FAF4FBF4F298537
:100C60003A85990140E050E0BC01CD010E94DA13C1
:100C7000DA01C9019093120280931102809111024E
:100C800090911202009731F48FEF9FEF9093120230
:100C90008093110220911102309112028D819E8168
:100CA000820F931F9093100280930F0220910D02E8
:100CB00030910E02809113029091140282179307D3
:100CC00078F0809113029091140290930E02809319
:100CD0000D0280910C02887F836080930C0206C015
:100CE00080910C02887F816080930C021092160222
:100CF000109215028091FE0181608093FE0187E4CD
:100D000090E02AE0FC01208380910D0290910E0278
:100D100090930702809306022C960FB6F894DEBFDC
:100D20000FBECDBFCF91DF911F910F91FF90EF903C
:100D30000895EF92FF920F931F93DF93CF93CDB758
:100D4000DEB72C970FB6F894DEBF0FBECDBF9E83E3
:100D50008D8378876F835A8749873C872B871092CA
:100D60000102109200028B859C856EE571E00E9465
:100D7000DC109C878B8785E290E025E230E0F9016A
:100D800020812860FC0120838D819E8199236CF451
:100D9000809122028860809322028D819E819095AD
:100DA00081959F4F9E838D8305C080912202877F0E
:100DB000809322028D819E8181309105E9F48FEF2D
:100DC0009FEF90932C0280932B0280912202887FC8
:100DD00082608093220288EE93E0909324028093B5
:100DE00023028091080281608093080283EB90E0E7
:100DF0002AE0FC01208326C18D819E81009709F4A1
:100E000021C18B859C859C0140E050E083E29EEDF2
:100E1000A6E2B0E0BC01CD010E94DA13DA01C901FB
:100E200090932A02809329028F8198859C0140E04B
:100E300050E080E09DE5AEE3B4E1BC01CD010E944D
:100E4000DA13DA01C901BC01CD010E945710DC019F
:100E5000CB012CE937E240E050E0BC01CD010E941B
:100E60008513DC01CB0124E630E040E050E0BC011A
:100E7000CD010E94B813DA01C90190932402809336
:100E800023028B859C85CC01A0E0B0E02B853C85BE
:100E9000990140E050E0BC01CD010E9485137B0127
:100EA0008C018F819885CC01A0E0B0E023E531E092
:100EB00040E050E0BC01CD010E948513DC01CB0174
:100EC00024E630E040E050E0BC01CD010E94DA139E
:100ED000C801B7010E94DA13DA01C9019A83898334
:100EE00089819A81009721F481E090E09A83898337
:100EF0008D819E81AA2797FDA095BA2F29853A85D5
:100F0000990140E050E0BC01CD010E948513DC0155
:100F1000CB014F81588529853A85240F351F9901CA
:100F200040E050E0BC01CD010E94DA13DA01C901B2
:100F30009C838B838B819C81009721F481E090E0DE
:100F40009C838B832B813C8189819A8182179307B3
:100F500068F08D819E812B813C81A901481B590B32
:100F6000CA01909328028093270226C089819A8122
:100F7000CC01A0E0B0E02F813885990140E050E03D
:100F8000BC01CD010E948513DC01CB01B095A09579
:100F9000909581959F4FAF4FBF4F29853A85990115
:100FA00040E050E0BC01CD010E94DA13DA01C90132
:100FB0009093280280932702809127029091280223
:100FC000009731F48FEF9FEF9093280280932702D0
:100FD00020912702309128028D819E81820F931FDC
:100FE00090932602809325022091230230912402BF
:100FF0008091290290912A028217930778F08091BC
:10100000290290912A0290932402809323028091D6
:101010002202887F83608093220206C08091220290
:10102000887F81608093220210922C0210922B0202
:101030008091080281608093080283EB90E02AE0AF
:10104000FC0120838091230290912402909301025D
:10105000809300022C960FB6F894DEBF0FBECDBF72
:10106000CF91DF911F910F91FF90EF900895EF9234
:10107000FF920F931F93DF93CF93CDB7DEB72C97DB
:101080000FB6F894DEBF0FBECDBF9E838D837887E9
:101090006F835A8749873C872B878B859C856EE5B4
:1010A00071E00E94DC109C878B878BE290E02BE242
:1010B00030E0F90120812860FC0120838D819E8130
:1010C00099236CF4809117028860809317028D81B8
:1010D0009E81909581959F4F9E838D8305C08091C1
:1010E0001702877F809317028D819E818130910541
:1010F000F9F48FEF9FEF909321028093200280916B
:101100001702887F82608093170288EE93E09093A5
:101110001902809318028091FD0181608093FD0186
:1011200088E890E02AE030E0FC013183208328C188
:101130008D819E81009709F423C18B859C859C013C
:1011400040E050E083E29EEDA6E2B0E0BC01CD01BC
:101150000E94DA13DA01C90190931F0280931E02E4
:101160008F8198859C0140E050E080E09DE5AEE3F2
:10117000B4E1BC01CD010E94DA13DA01C901BC015E
:10118000CD010E945710DC01CB012CE937E240E091
:1011900050E0BC01CD010E948513DC01CB0124E6A7
:1011A00030E040E050E0BC01CD010E94B813DA010C
:1011B000C90190931902809318028B859C85CC01FC
:1011C000A0E0B0E02B853C85990140E050E0BC01F7
:1011D000CD010E9485137B018C018F819885CC0104
:1011E000A0E0B0E023E531E040E050E0BC01CD01FB
:1011F0000E948513DC01CB0124E630E040E050E0A2
:10120000BC01CD010E94DA13C801B7010E94DA13B4
:10121000DA01C9019A83898389819A81009721F42F
:1012200081E090E09A8389838D819E81AA2797FD32
:10123000A095BA2F29853A85990140E050E0BC017C
:10124000CD010E948513DC01CB014F815885298592
:101250003A85240F351F990140E050E0BC01CD01D3
:101260000E94DA13DA01C9019C838B838B819C81F4
:10127000009721F481E090E09C838B832B813C815B
:1012800089819A818217930768F08D819E812B81D5
:101290003C81A901481B590BCA0190931D02809300
:1012A0001C0226C089819A81CC01A0E0B0E02F8188
:1012B0003885990140E050E0BC01CD010E948513C2
:1012C000DC01CB01B095A095909581959F4FAF4FD4
:1012D000BF4F29853A85990140E050E0BC01CD011E
:1012E0000E94DA13DA01C90190931D0280931C0257
:1012F00080911C0290911D02009731F48FEF9FEFB7
:1013000090931D0280931C0220911C0230911D02BB
:101310008D819E81820F931F90931B0280931A02EE
:10132000209118023091190280911E0290911F02A3
:101330008217930778F080911E0290911F0290937C
:1013400019028093180280911702887F836080932E
:10135000170206C080911702887F81608093170270
:1013600010922102109220028091FD0181608093F1
:10137000FD0188E890E02AE030E0FC013183208321
:101380002C960FB6F894DEBF0FBECDBFCF91DF9184
:101390001F910F91FF90EF900895DF93CF93CDB7FA
:1013A000DEB785E490E025E430E0F9012081226099
:1013B000FC012083CF91DF910895DF93CF93CDB7C8
:1013C000DEB781EB90E021EB30E0F9012081226073
:1013D000FC012083CF91DF910895DF93CF93CDB7A8
:1013E000DEB781E890E021E830E0F9012081226059
:1013F000FC012083CF91DF9108951F920F920FB6C9
:101400000F9211240F931F932F933F934F935F934A
:101410006F937F938F939F93AF93BF93EF93FF93BC
:10142000DF93CF9300D0CDB7DEB7809106029091C5
:1014300007028F3F910589F084F080910602909118
:1014400007028F5F9040909307028093060287E423
:1014500090E02FEFFC012083E0C180910D0290917C
:101460000E029093070280930602809106029091EB
:1014700007028F3F910539F034F087E490E02FEFB9
:10148000FC01208308C087E490E02091060230919F
:101490000702FC01208380910C028770882F90E066
:1014A0008130910579F1823091051CF4009751F05B
:1014B000AEC18230910509F419C18330910509F458
:1014C000DDC0A5C182E290E022E230E0F901208196
:1014D000277FFC0120831092C6011092C501109253
:1014E000C8011092C70185E490E025E430E0F901DD
:1014F0002081287FFC0120838091FE018E7F8093D4
:10150000FE0185C180910C02869586958695817035
:101510000E949F038091C5019091C601019690930E
:10152000C6018093C5018091150290911602019623
:10153000909316028093150200910D0210910E02F5
:1015400080910D0290910E02CC01A0E0B0E09C01D0
:10155000AD01220F331F441F551F8091C701909189
:10156000C801CC01A0E0B0E0820F931FA41FB51FFB
:101570002091150230911602220F331F220F331FC4
:101580002F5F3F4F442737FD4095542FBC01CD01BD
:101590000E94DA13DA01C9019801281B390BC9012D
:1015A0009A83898380910D0290910E02CC01A0E074
:1015B000B0E09C01AD01220F331F441F551F8091E5
:1015C000C7019091C801CC01A0E0B0E0820F931F49
:1015D000A41FB51F2091150230911602220F331F50
:1015E000220F331F2F5F3F4F442737FD4095542F65
:1015F000BC01CD010E94DA13DC01CB019093C8013C
:101600008093C70120910F02309110028091C50193
:101610009091C6018217930778F080911102909102
:101620001202909316028093150280910C02887F1B
:10163000826080930C02EBC080911302909114029F
:101640009C0189819A812817390708F4DBC08981B8
:101650009A819093CA018093C9018091130290915D
:1016600014029A8389831092C8011092C701809155
:101670000C02887F836080930C02C9C080910C02A9
:1016800086958695869581700E949F038091C501FD
:101690009091C60101969093C6018093C5018091F7
:1016A0001302909114029A83898320910F02309142
:1016B00010028091C5019091C6018217930708F42A
:1016C000A3C0809111029091120290931602809310
:1016D00015028091C9019091CA019A8389838091F2
:1016E0000C02887F826080930C0291C0809122025C
:1016F00086958695869581700E949F038091C5018D
:101700009091C60101969093C6018093C501809186
:10171000150290911602019690931602809315027D
:1017200000910D0210910E0280910D0290910E0217
:10173000CC01A0E0B0E09C01AD01220F331F441F9B
:10174000551F8091C7019091C801CC01A0E0B0E085
:10175000820F931FA41FB51F20911502309116020E
:10176000220F331F220F331F2F5F3F4F442737FDB8
:101770004095542FBC01CD010E94DA13DA01C90152
:10178000F801E81BF90BCF019A83898380910D0240
:1017900090910E02CC01A0E0B0E09C01AD01220FBF
:1017A000331F441F551F8091C7019091C801CC0180
:1017B000A0E0B0E0820F931FA41FB51F2091150277
:1017C00030911602220F331F220F331F2F5F3F4F1E
:1017D000442737FD4095542FBC01CD010E94DA13F8
:1017E000DC01CB019093C8018093C7018091150261
:1017F00090911602992354F080910C02887F809377
:101800000C0205C0000003C0000001C00000898177
:101810009A8190930E0280930D020F900F90CF91BA
:10182000DF91FF91EF91BF91AF919F918F917F9148
:101830006F915F914F913F912F911F910F910F9059
:101840000FBE0F901F9018951F920F920FB60F9218
:1018500011240F931F932F933F934F935F936F9395
:101860007F938F939F93AF93BF93EF93FF93DF93F8
:10187000CF9300D0CDB7DEB782E290E022E230E035
:10188000F90120812260FC01208388E890E020910A
:10189000180230911902FC013183208380911702D4
:1018A0008770882F90E08130910579F18230910521
:1018B0001CF4009751F0AEC18230910509F419C1B2
:1018C0008330910509F4DDC0A5C18BE290E02BE2E5
:1018D00030E0F9012081277FFC0120831092C001B4
:1018E0001092BF011092C2011092C10181E890E0F4
:1018F00021E830E0F9012081287FFC0120838091DC
:10190000FD018E7F8093FD0185C180911702869530
:101910008695869581700E9466038091BF019091A3
:10192000C00101969093C0018093BF018091200275
:1019300090912102019690932102809320020091C0
:101940001802109119028091180290911902CC018D
:10195000A0E0B0E09C01AD01220F331F441F551FD2
:101960008091C1019091C201CC01A0E0B0E0820F52
:10197000931FA41FB51F2091200230912102220F36
:10198000331F220F331F2F5F3F4F442737FD4095F2
:10199000542FBC01CD010E94DA13DA01C90198016C
:1019A000281B390BC9019A83898380911802909171
:1019B0001902CC01A0E0B0E09C01AD01220F331F61
:1019C000441F551F8091C1019091C201CC01A0E03C
:1019D000B0E0820F931FA41FB51F20912002309109
:1019E0002102220F331F220F331F2F5F3F4F442747
:1019F00037FD4095542FBC01CD010E94DA13DC0164
:101A0000CB019093C2018093C10120911A023091C1
:101A10001B028091BF019091C0018217930778F05B
:101A200080911C0290911D029093210280932002CC
:101A300080911702887F826080931702EBC08091AB
:101A40001E0290911F029C0189819A8128173907F3
:101A500008F4DBC089819A819093C4018093C3010B
:101A600080911E0290911F029A8389831092C20175
:101A70001092C10180911702887F836080931702C2
:101A8000C9C08091170286958695869581700E94BF
:101A900066038091BF019091C00101969093C001AF
:101AA0008093BF0180911E0290911F029A838983C7
:101AB00020911A0230911B028091BF019091C001C8
:101AC0008217930708F4A3C080911C0290911D0215
:101AD00090932102809320028091C3019091C401D0
:101AE0009A83898380911702887F8260809317028E
:101AF00091C08091170286958695869581700E9487
:101B000066038091BF019091C00101969093C0013E
:101B10008093BF01809120029091210201969093C1
:101B200021028093200200911802109119028091E5
:101B3000180290911902CC01A0E0B0E09C01AD0127
:101B4000220F331F441F551F8091C1019091C20184
:101B5000CC01A0E0B0E0820F931FA41FB51F20911D
:101B6000200230912102220F331F220F331F2F5FDB
:101B70003F4F442737FD4095542FBC01CD010E94B3
:101B8000DA13DA01C901F801E81BF90BCF019A83D6
:101B900089838091180290911902CC01A0E0B0E0F5
:101BA0009C01AD01220F331F441F551F8091C101BD
:101BB0009091C201CC01A0E0B0E0820F931FA41F5E
:101BC000B51F2091200230912102220F331F220FD6
:101BD000331F2F5F3F4F442737FD4095542FBC01E3
:101BE000CD010E94DA13DC01CB019093C2018093F6
:101BF000C1018091200290912102992354F080919B
:101C00001702887F8093170205C0000003C0000000
:101C100001C0000089819A81909319028093180273
:101C200082E290E022E230E0F90120812D7FFC0188
:101C300020830F900F90CF91DF91FF91EF91BF9193
:101C4000AF919F918F917F916F915F914F913F9154
:101C50002F911F910F910F900FBE0F901F9018950D
:101C60001F920F920FB60F9211240F931F932F9371
:101C70003F934F935F936F937F938F939F93AF9314
:101C8000BF93EF93FF93DF93CF9300D0CDB7DEB731
:101C900080910002909101028F3F910589F084F0BC
:101CA00080910002909101028F5F90409093010219
:101CB0008093000283EB90E02FEFFC012083E0C1D2
:101CC000809123029091240290930102809300025C
:101CD00080910002909101028F3F910539F034F01C
:101CE00083EB90E02FEFFC01208308C083EB90E0B2
:101CF0002091000230910102FC0120838091220298
:101D00008770882F90E08130910579F182309105BC
:101D10001CF4009751F0AEC18230910509F419C14D
:101D20008330910509F4DDC0A5C185E290E025E28C
:101D300030E0F9012081277FFC0120831092BA0155
:101D40001092B9011092BC011092BB0181EB90E09E
:101D500021EB30E0F9012081287FFC012083809174
:101D600008028E7F8093080285C1809122028695A9
:101D70008695869581700E94D8038091B9019091D3
:101D8000BA0101969093BA018093B90180912B0218
:101D900090912C02019690932C0280932B0200913B
:101DA0002302109124028091230290912402CC01FD
:101DB000A0E0B0E09C01AD01220F331F441F551F6E
:101DC0008091BB019091BC01CC01A0E0B0E0820FFA
:101DD000931FA41FB51F20912B0230912C02220FBC
:101DE000331F220F331F2F5F3F4F442737FD40958E
:101DF000542FBC01CD010E94DA13DA01C901980108
:101E0000281B390BC9019A83898380912302909101
:101E10002402CC01A0E0B0E09C01AD01220F331FF1
:101E2000441F551F8091BB019091BC01CC01A0E0E3
:101E3000B0E0820F931FA41FB51F20912B02309199
:101E40002C02220F331F220F331F2F5F3F4F4427D7
:101E500037FD4095542FBC01CD010E94DA13DC01FF
:101E6000CB019093BC018093BB012091250230915E
:101E700026028091B9019091BA018217930778F0F8
:101E8000809127029091280290932C0280932B023C
:101E900080912202887F826080932202EBC0809131
:101EA000290290912A029C0189819A812817390779
:101EB00008F4DBC089819A819093BE018093BD01B3
:101EC0008091290290912A029A8389831092BC0101
:101ED0001092BB0180912202887F8360809322024E
:101EE000C9C08091220286958695869581700E9450
:101EF000D8038091B9019091BA0101969093BA01EB
:101F00008093B9018091290290912A029A83898352
:101F100020912502309126028091B9019091BA0159
:101F20008217930708F4A3C080912702909128029A
:101F300090932C0280932B028091BD019091BE0161
:101F40009A83898380912202887F82608093220213
:101F500091C08091220286958695869581700E9417
:101F6000D8038091B9019091BA0101969093BA017A
:101F70008093B90180912B0290912C02019690934D
:101F80002C0280932B020091230210912402809155
:101F9000230290912402CC01A0E0B0E09C01AD01AD
:101FA000220F331F441F551F8091BB019091BC012C
:101FB000CC01A0E0B0E0820F931FA41FB51F2091B9
:101FC0002B0230912C02220F331F220F331F2F5F61
:101FD0003F4F442737FD4095542FBC01CD010E944F
:101FE000DA13DA01C901F801E81BF90BCF019A8372
:101FF00089838091230290912402CC01A0E0B0E07B
:102000009C01AD01220F331F441F551F8091BB015E
:102010009091BC01CC01A0E0B0E0820F931FA41FFF
:10202000B51F20912B0230912C02220F331F220F5B
:10203000331F2F5F3F4F442737FD4095542FBC017E
:10204000CD010E94DA13DC01CB019093BC01809397
:10205000BB0180912B0290912C02992354F0809126
:102060002202887F8093220205C0000003C0000086
:1020700001C0000089819A819093240280932302F9
:102080000F900F90CF91DF91FF91EF91BF91AF91A2
:102090009F918F917F916F915F914F913F912F9180
:1020A0001F910F910F900FBE0F901F9018956F9278
:1020B0007F928F929F92AF92BF92CF92DF92EF92D8
:1020C000FF920F931F93DF93CF9300D000D0CDB733
:1020D000DEB769837A838B839C83EE24FF24870198
:1020E000AA24BB2465016894D6F8A80197012A0D9B
:1020F0003B1D4C1D5D1D89819A81AB81BC8182177E
:102100009307A407B507C8F0D801C7018A0D9B1D26
:10211000AC1DBD1D29813A814B815C8139014A0189
:10212000681A790A8A0A9B0AD401C30189839A83AF
:10213000AB83BC839924939401C099241695079589
:10214000F794E794992021F0EA0CFB1C0C1D1D1D4F
:10215000D694C794B794A794D694C794B794A794E9
:10216000A114B104C104D10409F0BFCF89819A81BF
:10217000AB81BC81E816F9060A071B0730F4D801C9
:10218000C7010196A11DB11D02C0D801C701BC0144
:10219000CD010F900F900F900F90CF91DF911F9175
:1021A0000F91FF90EF90DF90CF90BF90AF909F90F6
:1021B0008F907F906F900895DF93CF9300D000D0E1
:1021C000CDB7DEB79A8389837C836B8329813A817B
:1021D0008B819C812817390718F489819A8102C064
:1021E0008B819C810F900F900F900F90CF91DF917A
:1021F0000895DF93CF9300D0CDB7DEB79A8389835C
:1022000085EC90E029813A81232F3327FC0120833C
:1022100084EC90E02981FC01208381EC90E028E1AE
:10222000FC01208382EC90E026E0FC01208381EC1D
:1022300090E021EC30E0F90120812068FC0120834E
:1022400010920B0280910B02882F90E085539E4FD5
:10225000FC0110821092FF010F900F90CF91DF913F
:102260000895DF93CF930F92CDB7DEB78983000037
:1022700080EC90E0FC018081882F90E0807290706B
:102280000097B1F386EC90E02981FC0120830F9048
:10229000CF91DF910895DF93CF93CDB7DEB70000E4
:1022A00080EC90E0FC0180818823D4F786EC90E0FC
:1022B000FC018081CF91DF910895DF93CF9300D00F
:1022C00000D0CDB7DEB79C838B8380E197E29A8301
:1022D00089838B819C819923ACF48B819C8190951F
:1022E00081959F4F9C838B838DE20E9431110AC0A0
:1022F00089819A812AE030E0B9010E94A4139B01F0
:102300003A83298389819A818230910538F02B8123
:102310003C8189819A812817390750F38B819C81F0
:1023200029813A81B9010E94A4139B01C9018555F5
:102330009E4FFC0180810E9431118B819C812981FB
:102340003A81B9010E94A4139C838B8389819A816D
:102350002AE030E0B9010E94A4139B013A8329834B
:1023600089819A810097D1F60F900F900F900F906E
:10237000CF91DF910895DF93CF9300D00F92CDB727
:10238000DEB79B838A8319820EC08981882F90E0F3
:102390002A813B81820F931FFC01808199819F5F7D
:1023A00099830E9431118981882F90E02A813B8195
:1023B000820F931FFC018081882339F70F900F90C3
:1023C0000F90CF91DF910895DF93CF9300D0CDB7D9
:1023D000DEB71092FF011A8219820BC089819A819F
:1023E00085539E4FFC01108289819A8101969A83C0
:1023F000898380910B02282F30E089819A8182178E
:10240000930764F310920B0280910B02882F90E0E7
:1024100085539E4FFC0110820F900F90CF91DF915A
:1024200008951F920F920FB60F9211242F933F938E
:102430004F935F936F937F938F939F93AF93BF93CC
:10244000EF93FF93DF93CF9300D00F92CDB7DEB71A
:1024500086EC90E0FC0180818B838B81803641F596
:102460008FE991E00E94BB111A8219820DC0898107
:102470009A8185539E4FFC0180810E943111898190
:102480009A8101969A83898380910B02282F30E0EC
:1024900089819A818217930754F388EA91E00E9418
:1024A000BB118DE00E9431118AE00E94311132C0CF
:1024B0008B818C3A49F40E94E4118DE00E94311125
:1024C0008AE00E94311126C08B818D3051F481E069
:1024D0008093FF018DE00E9431118AE00E9431114A
:1024E00019C08B810E94311120910B02822F90E044
:1024F00085539E4F3B81FC013083822F8F5F8093F9
:102500000B028B818D3031F489E58093FF018AE0E5
:102510000E9431112396DEBFCDBFCF91DF91FF9195
:10252000EF91BF91AF919F918F917F916F915F914B
:102530004F913F912F910F900FBE0F901F901895C4
:1025400004D06894B11150C0089533D088F09F57DB
:1025500090F0B92F9927B751A0F0D1F0660F771FEF
:10256000881F991F1AF0BA95C9F712C0B13081F0CF
:102570003AD0B1E0089537C0672F782F8827B85F29
:1025800039F0B93FCCF3869577956795B395D9F730
:102590003EF490958095709561957F4F8F4F9F4F3A
:1025A000089557FD9058440F551F59F05F3F71F043
:1025B0004795880F97FB991F61F09F3F79F08795AA
:1025C0000895121613061406551FF2CF4695F1DF33
:1025D00008C0161617061806991FF1CF86957105C3
:1025E000610508940895E894BB2766277727CB01F7
:1025F00097F908950BD078C069D028F06ED018F004
:10260000952309F05AC05FC01124EECFCADFA0F3B2
:10261000959FD1F3950F50E0551F629FF001729F77
:10262000BB27F00DB11D639FAA27F00DB11DAA1F96
:10263000649F6627B00DA11D661F829F2227B00DE3
:10264000A11D621F739FB00DA11D621F839FA00D6E
:10265000611D221F749F3327A00D611D231F849FBE
:10266000600D211D822F762F6A2F11249F57504015
:102670008AF0E1F088234AF0EE0FFF1FBB1F661FB0
:10268000771F881F91505040A9F79E3F510570F069
:1026900014C0AACF5F3FECF3983EDCF386957795A4
:1026A0006795B795F795E7959F5FC1F7FE2B880F64
:1026B000911D9695879597F9089597F99F6780E8FA
:1026C00070E060E008959FEF80EC089500240A9484
:1026D0001616170618060906089500240A941216FD
:1026E0001306140605060895092E0394000C11F430
:1026F000882352F0BB0F40F4BF2B11F460FF04C0DD
:102700006F5F7F4F8F4F9F4F0895629FD001739FE0
:10271000F001829FE00DF11D649FE00DF11D929F7D
:10272000F00D839FF00D749FF00D659FF00D9927BC
:10273000729FB00DE11DF91F639FB00DE11DF91FE0
:10274000BD01CF0111240895AA1BBB1B51E107C095
:10275000AA1FBB1FA617B70710F0A61BB70B881F31
:10276000991F5A95A9F780959095BC01CD010895C0
:10277000A1E21A2EAA1BBB1BFD010DC0AA1FBB1F85
:10278000EE1FFF1FA217B307E407F50720F0A21BF7
:10279000B30BE40BF50B661F771F881F991F1A9464
:1027A00069F760957095809590959B01AC01BD018E
:1027B000CF01089597FB092E05260ED057FD04D0B2
:1027C000D7DF0AD0001C38F45095409530952195FC
:1027D0003F4F4F4F5F4F0895F6F790958095709556
:1027E00061957F4F8F4F9F4F0895662777270C94F1
:1027F0001F14FC0188279927E89421912032E9F3DE
:10280000293010F02E30C8F32B3241F02D3239F43C
:10281000689404C00E941714820F911D21912053C7
:102820002A30C0F31EF4909581959F4F08957AE069
:10283000979F902D879F802D910D11240895A1E0E1
:10284000B0E0E5E2F4E10C9422165B01611571053C
:1028500021F0DB018C9311969C93482F592F6A012C
:10286000F601E1906F018F018E2D90E00E94961588
:102870000097B1F7FE2DFD3229F4D601ED908D01C0
:1028800021E007C0BE2DBB3219F4F601E1908F01A3
:1028900020E068010894C108D108C6016CE770E027
:1028A00043E050E029830E949E152981009711F58D
:1028B00072E0E72EF12CE00EF11EC7016FE770E029
:1028C00045E050E00E949E152981009729F467E0B9
:1028D000E62EF12CE00EF11EA114B10421F0D50179
:1028E0001196FC92EE9220FF0FC130E020E090E8BC
:1028F0008FEF12C1C60164E870E043E050E0298325
:102900000E949E152981009731F060E070E0CB01B4
:10291000662477240AC0A114B10409F4F9C00E5F3B
:102920001F4FF50111830083F3C03E2D30533A3021
:10293000A0F52260E22FF0E0AF014870507022FF56
:1029400007C04115510571F50894611C711C2AC01E
:102950004115510519F00894610871086B017C015B
:1029600052E0CC0CDD1CEE1CFF1C5A95D1F76C0D0F
:102970007D1D8E1D9F1D660F771F881F991F630F7A
:10298000711D811D911D6839F9E97F07F9E98F07EC
:10299000F9E19F0738F0246005C03E3F39F423FD7C
:1029A0003FC02860D801ED908D01BFCF353311F0C5
:1029B0003531B1F5F80131913D3211F4206102C099
:1029C0003B3241F4D80111963C911197319642E087
:1029D00050E002C041E050E030533A3020F08F0127
:1029E000041B150B1DC040E050E0BCE040385B0705
:1029F0005CF4DA01AA0FBB1FAA0FBB1F4A0F5B1FB3
:102A0000440F551F430F511D319130538F013A3000
:102A100060F324FF03C0509541955F4F640E751E0F
:102A2000C22EDD2421FF08C0A114B10429F00150F9
:102A30001040F501118300830E94BA157B018C01BF
:102A4000F3E0CF22DD2433E0C316D10421F417FBD9
:102A5000109517F91095C801B70120E030E0A901E1
:102A60000E94B615882309F44AC077FE09C04BE9D5
:102A7000C42E40E0D42E709461947108739404C005
:102A800033EBC32E30E0D32E26E0822E912C90E241
:102A9000A92EB12C0FC0F601259135914591549185
:102AA000C801B7010E94FA12E62EF72E082F192F3F
:102AB0006A187B086A147B0474F7B594A794089489
:102AC000810891088114910429F08CEF9FEFC80EC2
:102AD000D91EF0CFB701C801282F220F292F221F9E
:102AE0002F3F39F020E030E0A9010E94B61588237D
:102AF00031F482E290E090932E0280932D023E2DDD
:102B00002F2D902F812F08C030E020E090E803C0E7
:102B100030E020E090EC8FE7F901AC016F2F722FCD
:102B2000852F942F2196EEE00C943E16911183C0D0
:102B3000803219F089508550D0F70895FB01DC01EF
:102B40004150504088F08D9181341CF08B350CF44D
:102B5000805E659161341CF06B350CF4605E861B01
:102B6000611171F3990B0895881BFCCF40D008F4D4
:102B700081E00895E89409C097FB3EF49095809514
:102B8000709561957F4F8F4F9F4F9923A9F0F92F33
:102B900096E9BB279395F695879577956795B795B1
:102BA000F111F8CFFAF4BB0F11F460FF1BC06F5F97
:102BB0007F4F8F4F9F4F16C0882311F096E911C0A9
:102BC000772321F09EE8872F762F05C0662371F0CA
:102BD00096E8862F70E060E02AF09A95660F771FDE
:102BE000881FDAF7880F9695879597F90895990FBA
:102BF0000008550FAA0BE0E8FEEF16161706E807C7
:102C0000F907C0F012161306E407F50798F0621BE7
:102C1000730B840B950B39F40A2661F0232B242BBC
:102C2000252B21F408950A2609F4A140A6958FEFDB
:102C3000811D811D08959927882708952F923F921D
:102C40004F925F926F927F928F929F92AF92BF92BC
:102C5000CF92DF92EF92FF920F931F93CF93DF9368
:102C6000CDB7DEB7CA1BDB0B0FB6F894DEBF0FBEC5
:102C7000CDBF09942A88398848885F846E847D8412
:102C80008C849B84AA84B984C884DF80EE80FD8014
:102C90000C811B81AA81B981CE0FD11D0FB6F8948A
:0E2CA000DEBF0FBECDBFED010895F894FFCF4B
:102CAE00436F6D6D616E6420526563656976656410
:102CBE00005365742055702E2E2E0A0D005265613C
:102CCE006479210A0D00556E737570706F7274659C
:102CDE0064204720436F6465005741524E494E476A
:102CEE003A204558434545444544204D4158494DA9
:102CFE00554D205350454544000A0D53746570736D
:102D0E003A20000A0D416363656C3A20000A0D53A8
:102D1E00706565643A20000A0D446563656C3A205F
:102D2E0000496E636F727265637420436F6D6D61DF
:102D3E006E64000A0D3E00080A02060405010942EF
:102D4E0075666665723A22002220003031323334C5
:062D5E003536373839005C
:00000001FF
