:100000000C943E000C9450000C9450000C94500042
:100010000C9450000C9450000C9450000C94500020
:100020000C9450000C9450000C9450000C94500010
:100030000C9450000C9450000C9450000C94500000
:100040000C9450000C9450000C9450000C945000F0
:100050000C94A8000C9450000C9450000C94500088
:100060000C9450000C9450000C9450000C945000D0
:100070000C9450000C9450000C94500011241FBE9E
:10008000CFEFD0E1DEBFCDBF11E0A0E0B1E001C015
:100090001D92A130B107E1F70E9452000C94C600F6
:1000A0000C940000DF93CF93CDB7DEB70E945900C8
:1000B000FFCFDF93CF93CDB7DEB785EC90E0FC01A7
:1000C000108284EC90E02FEFFC01208381EC90E023
:1000D00028E1FC01208382EC90E026E0FC012083F3
:1000E00081EC90E021EC30E0F90120812068FC01F6
:1000F0002083CF91DF910895DF93CF930F92CDB7F7
:10010000DEB78983000080EC90E0FC018081882FBD
:1001100090E0807290700097B1F386EC90E02981B6
:10012000FC0120830F90CF91DF910895DF93CF934F
:10013000CDB7DEB7000080EC90E0FC018081882321
:10014000D4F786EC90E0FC018081CF91DF91089597
:100150001F920F920FB60F9211248F939F93EF93DC
:10016000FF93DF93CF93CDB7DEB786EC90E0FC0131
:10017000808180930001CF91DF91FF91EF919F915A
:100180008F910F900FBE0F901F901895F894FFCF8E
:00000001FF
