:100000000C9434000C9451000C9451000C94510049
:100010000C9451000C9451000C9451000C9451001C
:100020000C9451000C9451000C9451000C9451000C
:100030000C9451000C9451000C9451000C945100FC
:100040000C9451000C9451000C948A000C945100B3
:100050000C9451000C9451000C9451000C945100DC
:100060000C9451000C94510011241FBECFEFD4E02A
:10007000DEBFCDBF11E0A0E0B1E0ECE7F3E002C0ED
:1000800005900D92A830B107D9F711E0A8E0B1E0D2
:1000900001C01D92A231B107E1F70E9472010C94D8
:1000A000BC010C9400008FEF84B987B91AB88BB9E2
:1000B00081E48093080110920C018CE08093090187
:1000C000109211011092100110920B0110920A016E
:1000D00010920F0110920E0108959093C500809325
:1000E000C400E1ECF0E088E1808386E08093C20008
:1000F00080818068808308959091C00095FFFCCF37
:100100008093C60008958091C00087FFFCCF809146
:10011000C60008951F920F920FB60F9211242F93CD
:100120003F934F935F936F937F938F939F93AF937F
:10013000BF93EF93FF938091C600809308018BE4F7
:100140000E947C00FF91EF91BF91AF919F918F91A1
:100150007F916F915F914F913F912F910F900FBEC3
:100160000F901F901895E0E0F1E0819185B987E24A
:1001700093E20197F1F700C0000091E0E830F90741
:10018000A1F70895E8E0F1E0829185B987E293E272
:100190000197F1F700C0000091E0E030F907A1F706
:1001A00008958CE090E00EC0229125B9A7E2B3E259
:1001B0001197F1F700C00000B1E0E030FB07A1F7B4
:1001C000019719F0E8E0F1E0EFCF08958CE090E0BE
:1001D0000EC0219125B9A7E2B3E21197F1F700C053
:1001E0000000B1E0E830FB07A1F7019719F0E0E06B
:1001F000F1E0EFCF089580911001909111010196E7
:100200009093110180931001409A80910D018823F1
:1002100019F40E94E60002C00E94B30040980895BD
:100220008091100190911101019790931101809399
:1002300010018091070185B9409A80910D018823B2
:1002400019F40E94D10002C00E94C2004098089593
:1002500088E085B9419A80910D01882319F40E94A4
:10026000E60002C00E94B3004198089589E085B974
:10027000419A80910D01882319F40E94D10002C097
:100280000E94C200419880910A0190910B01019750
:1002900090930B0180930A01089588E085B9429AF2
:1002A00080910D01882319F40E94E60002C00E948B
:1002B000B3004298089589E085B9429A80910D0172
:1002C000882319F40E94D10002C00E94C200429803
:1002D00080910E0190910F01019790930F018093EF
:1002E0000E0108950F931F930E9453008CE090E03D
:1002F0000E946D00789410920D0110E201E080914F
:1003000008018835F9F0893560F48F34D1F38035F0
:1003100018F48534A1F7F5CF823541F1833579F7AB
:1003200028C0883761F0893728F4893589F08A3503
:1003300031F714C0893749F08A3709F70CC00E9499
:10034000FB000EC00E9410010BC00E94360108C0C5
:100350000E94280105C00E945B0102C00E944D015D
:1003600084E40E947C0010930801C9CF10920D0113
:0C037000C6CF00930D01C3CFF894FFCF5F
:08037C00080A0206040501094C
:00000001FF
