:100000000C943E000C945B000C945B000C945B0021
:100010000C945B000C945B000C945B000C945B00F4
:100020000C945B000C945B000C945B000C945B00E4
:100030000C945B000C9488040C945B000C945B00A3
:100040000C945B000C945B000C945B000C945B00C4
:100050000C943A080C945B000C94C3080C945B005D
:100060000C945B000C945B000C945B000C945B00A4
:100070000C945B000C945B000C945B0011241FBE7D
:10008000CFEFD0E1DEBFCDBF13E0A0E0B1E0ECE305
:10009000F3E102C005900D92A63DB107D9F714E037
:1000A000A6EDB3E001C01D92A035B107E1F70E94B3
:1000B00070000C949C090C940000DF93CF93CDB793
:1000C000DEB70E944F028CE090E00E941B0780E0A8
:1000D0000E94A1020E9472047894CF91DF9108954A
:1000E0000F931F93DF93CF93CDB7DEB72B970FB648
:1000F000F894DEBF0FBECDBF88EE93E09A8389836C
:1001000084E690E09C838B8384E690E09E838D83DD
:1001100080E293E098878F8319860E945D0080E0DB
:1001200091E00E94A2070E94DF018091D703909185
:10013000D8036B817C814D815E812F813885E98177
:10014000FA818F010E94020201C000008091D60353
:1001500082708823D1F3809130048D3609F0B3C0CA
:10016000809131048032B9F482E394E00E947609F0
:100170009A8389836B817C814D815E812F81388553
:1001800089819A810E94DB0281E0898783E091E086
:100190000E94A207E5C0809131048F3609F0E0C0CB
:1001A00080913204863709F0DBC0809133048536B4
:1001B00009F0D6C080913404803209F0D1C086E0C5
:1001C00090E09B878A8785E394E00E9476099A8372
:1001D000898305C08A859B8501969B878A878A8546
:1001E0009B85805D9B4FFC018081803241F08A8538
:1001F0009B85805D9B4FFC0180818D3059F78A85FE
:100200009B8501969B878A878A859B85805D9B4F0E
:100210000E9476099C838B8305C08A859B85019605
:100220009B878A878A859B85805D9B4FFC018081A7
:10023000803241F08A859B85805D9B4FFC018081E7
:100240008D3059F78A859B8501969B878A878A8599
:100250009B85805D9B4F0E9476099E838D8305C0A0
:100260008A859B8501969B878A878A859B85805D89
:100270009B4FFC018081803241F08A859B85805DA7
:100280009B4FFC0180818D3059F78A859B850196B3
:100290009B878A878A859B85805D9B4F0E94760914
:1002A00098878F836B817C814D815E812F8138851A
:1002B00089819A810E94DB0281E0898783E091E055
:1002C0000E94A2074DC080913004813671F4809164
:1002D0003104803209F044C082E394E00E94760940
:1002E0009C838B8381E089873BC080913004843676
:1002F00069F480913104803299F582E394E00E94A0
:1003000076099E838D8381E089872AC0809130049D
:10031000833769F480913104803211F582E394E0EF
:100320000E94760998878F8381E0898719C0809120
:1003300030048D3069F46B817C814D815E812F8129
:10034000388589819A810E94DB0281E0898708C013
:10035000809130048F3321F40E94DF0181E089878E
:100360008985813011F00E94DF018091D6038D7F55
:100370008093D6030E9429088091D6038170882338
:1003800071F088E091E00E94A20700008091D603FE
:1003900081708823D9F783E191E00E94A2078091C0
:1003A000D7039091D8036B817C814D815E812F8131
:1003B0003885E981FA818F010E940202C7CEDF935E
:1003C000CF9300D0CDB7DEB71A8219820EC08981D3
:1003D0009A81885E9E4FFC01208189819A810196D5
:1003E0009A838983822F0E94780789819A81885E07
:1003F0009E4FFC018081882351F70F900F90CF9181
:10040000DF9108950F931F93DF93CF93CDB7DEB79E
:100410002A970FB6F894DEBF0FBECDBF9A838983AB
:100420007C836B835E834D8338872F831A8709878C
:1004300087E993E00E94A20789819A810E94CB07F5
:1004400087EA93E00E94A2078B819C810E94CB07E0
:100450008EEA93E00E94A2078D819E810E94CB07C5
:1004600083EB93E00E94A2078F8198850E94CB07BF
:1004700088EB93E00E94A20789859A850E94CB07AA
:100480008DEB93E00E94A2072A960FB6F894DEBF88
:100490000FBECDBFCF91DF911F910F910895DF93D4
:1004A000CF93CDB7DEB78BE290E02BE230E0F901DD
:1004B00020812F70FC0120838AE290E02AE230E064
:1004C000F9012081206FFC012083CF91DF910895F5
:1004D000DF93CF930F92CDB7DEB7898389818130C7
:1004E00051F48091D7039091D80301979093D8034A
:1004F0008093D70309C08091D7039091D8030196C8
:100500009093D8038093D7038981882331F0809119
:10051000D9038F5F8093D90305C08091D90381509F
:100520008093D9038091D90387708093D9038091F8
:10053000D9030E94A1028091D9030F90CF91DF913E
:100540000895DF93CF9300D0CDB7DEB78A838A8139
:10055000882F90E08E539C4FFC01808189838BE231
:1005600090E02BE230E0F9012081422F2981222FF7
:1005700030E022953295307F3227207F3227242B9E
:10058000FC0120838BE290E02BE230E0F901208136
:10059000422F2981222F30E022953295307F322759
:1005A000207F32272F602423FC0120830F900F909F
:1005B000CF91DF910895EF92FF920F931F93DF93F6
:1005C000CF93CDB7DEB72C970FB6F894DEBF0FBE32
:1005D000CDBF9E838D8378876F835A8749873C87F9
:1005E0002B878D819E8199236CF4809124048860EF
:1005F000809324048D819E81909581959F4F9E8349
:100600008D8305C080912404877F809324048D818D
:100610009E818130910541F58FEF9FEF90932E04DD
:1006200080932D0480912404887F82608093240429
:1006300088EE93E090932604809325048091D6035E
:1006400081608093D60388E890E02AE030E0FC01E6
:100650003183208381E890E021E830E0F9012081B6
:100660002260FC01208331C18D819E81009709F4B5
:100670002CC18B859C859C0140E050E08FE19BE084
:10068000ABE0B0E0BC01CD010E945B09DA01C90119
:1006900090932C0480932B048F8198859C0140E0DB
:1006A00050E080EA9FEAA9EBB2E1BC01CD010E94D3
:1006B0005B09DA01C901BC01CD010E947906DC01A8
:1006C000CB012AE23CE040E050E0BC01CD010E94B9
:1006D0000609DC01CB0124E630E040E050E0BC013B
:1006E000CD010E943909DA01C90190932604809353
:1006F00025048B859C85CC01A0E0B0E02B853C8552
:10070000990140E050E0BC01CD010E9406097B0147
:100710008C018F819885CC01A0E0B0E02AE331E024
:1007200040E050E0BC01CD010E940609DC01CB0194
:1007300024E630E040E050E0BC01CD010E945B09BE
:10074000C801B7010E945B09DA01C9019A83898354
:1007500089819A81009721F481E090E09A838983CE
:100760008D819E81AA2797FDA095BA2F29853A856C
:10077000990140E050E0BC01CD010E940609DC0176
:10078000CB014F81588529853A85240F351F990162
:1007900040E050E0BC01CD010E945B09DA01C901D3
:1007A0009C838B838B819C81009721F481E090E076
:1007B0009C838B832B813C8189819A81821793074B
:1007C00068F08D819E812B813C81A901481B590BCA
:1007D000CA0190932A048093290426C089819A81B2
:1007E000CC01A0E0B0E02F813885990140E050E0D5
:1007F000BC01CD010E940609DC01CB01B095A0959A
:10080000909581959F4FAF4FBF4F29853A859901AC
:1008100040E050E0BC01CD010E945B09DA01C90152
:1008200090932A04809329048091290490912A04AA
:10083000009731F48FEF9FEF90932A04809329045F
:100840002091290430912A048D819E81820F931F6B
:100850009093280480932704209125043091260446
:1008600080912B0490912C048217930778F080914B
:100870002B0490912C04909326048093250480915E
:100880002404887F83608093240406C0809124041C
:10089000887F81608093240410922E0410922D048E
:1008A0008091D60381608093D60388E890E02AE0A7
:1008B00030E0FC013183208381E890E021E830E0E2
:1008C000F90120812260FC0120832C960FB6F89458
:1008D000DEBF0FBECDBFCF91DF911F910F91FF9073
:1008E000EF900895DF93CF93CDB7DEB780912404C6
:1008F000887F8093240481E890E028E0FC01208335
:100900008FE690E022E0FC012083CF91DF910895F3
:100910001F920F920FB60F9211240F931F932F93D4
:100920003F934F935F936F937F938F939F93AF9377
:10093000BF93EF93FF93DF93CF9300D0CDB7DEB794
:1009400088E890E02091250430912604FC01318351
:100950002083809124048770882F90E08130910556
:1009600031F1823091051CF4009751F0A5C182301D
:10097000910509F410C18330910509F4D4C09CC1DC
:100980001092DB031092DA031092DD031092DC0365
:1009900081E890E021E830E0F9012081287FFC0126
:1009A00020838091D6038E7F8093D60385C180916A
:1009B000240486958695869581700E9468028091B0
:1009C000DA039091DB0301969093DB038093DA03C3
:1009D00080912D0490912E04019690932E04809383
:1009E0002D040091250410912604809125049091F6
:1009F0002604CC01A0E0B0E09C01AD01220F331F22
:100A0000441F551F8091DC039091DD03CC01A0E0D1
:100A1000B0E0820F931FA41FB51F20912D043091C9
:100A20002E04220F331F220F331F2F5F3F4F442707
:100A300037FD4095542FBC01CD010E945B09DA01BE
:100A4000C9019801281B390BC9019A8389838091B8
:100A5000250490912604CC01A0E0B0E09C01AD01FA
:100A6000220F331F441F551F8091DC039091DD033B
:100A7000CC01A0E0B0E0820F931FA41FB51F20910E
:100A80002D0430912E04220F331F220F331F2F5FAE
:100A90003F4F442737FD4095542FBC01CD010E94A4
:100AA0005B09DC01CB019093DD038093DC03209193
:100AB0002704309128048091DA039091DB03821798
:100AC000930778F08091290490912A0490932E0442
:100AD00080932D0480912404887F82608093240475
:100AE000EBC080912B0490912C049C0189819A8108
:100AF0002817390708F4DBC089819A819093DF03B6
:100B00008093DE0380912B0490912C049A83898337
:100B10001092DD031092DC0380912404887F8360AF
:100B200080932404C9C08091240486958695869577
:100B300081700E9468028091DA039091DB03019634
:100B40009093DB038093DA0380912B0490912C0423
:100B50009A83898320912704309128048091DA03B5
:100B60009091DB038217930708F4A3C080912904B6
:100B700090912A0490932E0480932D048091DE039B
:100B80009091DF039A83898380912404887F826017
:100B90008093240491C0809124048695869586953F
:100BA00081700E9468028091DA039091DB030196C4
:100BB0009093DB038093DA0380912D0490912E04AF
:100BC000019690932E0480932D040091250410919A
:100BD00026048091250490912604CC01A0E0B0E089
:100BE0009C01AD01220F331F441F551F8091DC0370
:100BF0009091DD03CC01A0E0B0E0820F931FA41F11
:100C0000B51F20912D0430912E04220F331F220F87
:100C1000331F2F5F3F4F442737FD4095542FBC01B2
:100C2000CD010E945B09DA01C901F801E81BF90B4B
:100C3000CF019A8389838091250490912604CC0169
:100C4000A0E0B0E09C01AD01220F331F441F551FEF
:100C50008091DC039091DD03CC01A0E0B0E0820F35
:100C6000931FA41FB51F20912D0430912E04220F35
:100C7000331F220F331F2F5F3F4F442737FD40950F
:100C8000542FBC01CD010E945B09DC01CB01909384
:100C9000DD038093DC0380912D0490912E04992331
:100CA00054F080912404887F8093240405C00000C0
:100CB00003C0000001C0000089819A81909326043E
:100CC000809325040F900F90CF91DF91FF91EF91CA
:100CD000BF91AF919F918F917F916F915F914F9154
:100CE0003F912F911F910F910F900FBE0F901F906A
:100CF00018956F927F928F929F92AF92BF92CF92F0
:100D0000DF92EF92FF920F931F93DF93CF9300D068
:100D100000D0CDB7DEB769837A838B839C83EE24C2
:100D2000FF248701AA24BB2465016894D6F8A80192
:100D300097012A0D3B1D4C1D5D1D89819A81AB8158
:100D4000BC8182179307A407B507C8F0D801C70173
:100D50008A0D9B1DAC1DBD1D29813A814B815C8193
:100D600039014A01681A790A8A0A9B0AD401C30127
:100D700089839A83AB83BC839924939401C099247B
:100D800016950795F794E794992021F0EA0CFB1C3F
:100D90000C1D1D1DD694C794B794A794D694C794E0
:100DA000B794A794A114B104C104D10409F0BFCF32
:100DB00089819A81AB81BC81E816F9060A071B0775
:100DC00030F4D801C7010196A11DB11D02C0D801A0
:100DD000C701BC01CD010F900F900F900F90CF91E4
:100DE000DF911F910F91FF90EF90DF90CF90BF9018
:100DF000AF909F908F907F906F900895DF93CF93E7
:100E000000D000D0CDB7DEB79A8389837C836B8313
:100E100029813A818B819C812817390718F48981AF
:100E20009A8102C08B819C810F900F900F900F9040
:100E3000CF91DF910895DF93CF9300D0CDB7DEB788
:100E40009A83898385EC90E029813A81232F332787
:100E5000FC01208384EC90E02981FC01208381EC5B
:100E600090E028E1FC01208382EC90E026E0FC0188
:100E7000208381EC90E021EC30E0F90120812068B2
:100E8000FC01208380E280932204109223040F90BF
:100E90000F90CF91DF910895DF93CF930F92CDB74D
:100EA000DEB78983000080EC90E0FC018081882F10
:100EB00090E0807290700097B1F386EC90E0298109
:100EC000FC0120830F90CF91DF910895DF93CF93A2
:100ED000CDB7DEB7000080EC90E0FC018081882374
:100EE000D4F786EC90E0FC018081CF91DF910895EA
:100EF000DF93CF9300D0CDB7DEB78A8380912004F3
:100F00008F5F8F73898300008091210499819817E6
:100F1000D9F38981882F90E080529C4F2A81FC016F
:100F2000208389818093200481EC90E021EC30E0E3
:100F3000F90120812062FC0120830F900F90CF9156
:100F4000DF910895DF93CF9300D00F92CDB7DEB736
:100F50009B838A8319820EC08981882F90E02A8121
:100F60003B81820F931FFC01808199819F5F998350
:100F70000E9478078981882F90E02A813B81820F27
:100F8000931FFC018081882339F70F900F900F90F9
:100F9000CF91DF910895DF93CF9300D000D0CDB7EC
:100FA000DEB79C838B8380E197E29A8389838B8170
:100FB0009C819923ACF48B819C81909581959F4F66
:100FC0009C838B838DE20E9478070AC089819A8175
:100FD0002AE030E0B9010E9425099B013A83298368
:100FE00089819A818230910538F02B813C818981F9
:100FF0009A812817390750F38B819C8129813A8186
:10100000B9010E9425099B01C90186539C4FFC012F
:1010100080810E9478078B819C8129813A81B90166
:101020000E9425099C838B8389819A812AE030E084
:10103000B9010E9425099B013A83298389819A81FC
:101040000097D1F60F900F900F900F90CF91DF91F6
:101050000895DF93CF93CDB7DEB710922F04809120
:101060002F04882F90E0805D9B4FFC011082CF9170
:10107000DF9108951F920F920FB60F9211242F93B4
:101080003F934F935F936F937F938F939F93AF9310
:10109000BF93EF93FF93DF93CF930F92CDB7DEB75C
:1010A00086EC90E0FC01808189838091D603817079
:1010B000882309F054C089818830E1F480912F049D
:1010C000882309F44CC088E00E94780780E20E94DF
:1010D000780788E00E94780780912F0481508093E0
:1010E0002F0480912F04882F90E0805D9B4FFC019E
:1010F000108235C080912F048F31C0F480912F046D
:10110000882F90E0805D9B4F2981FC012083809196
:101110002F04882F90E00196805D9B4FFC01108288
:1011200080912F048F5F80932F040DC080912F0436
:10113000882F90E00197805D9B4F2981FC012083DF
:1011400088E00E94780789818D3031F48091D60340
:1011500082608093D60303C089810E9478070F9034
:10116000CF91DF91FF91EF91BF91AF919F918F91BF
:101170007F916F915F914F913F912F910F900FBE93
:101180000F901F9018951F920F920FB60F92112477
:101190002F933F938F939F93EF93FF93DF93CF937F
:1011A0000F92CDB7DEB780912104898390912004FE
:1011B00089819817A1F0809121048F5F8F738983B3
:1011C00089818093210486EC90E02981222F30E0F0
:1011D00020523C4FF9012081FC01208309C081ECA1
:1011E00090E021EC30E0F90120812F7DFC0120838B
:1011F0000F90CF91DF91FF91EF919F918F913F9150
:101200002F910F900FBE0F901F901895629FD001E5
:10121000739FF001829FE00DF11D649FE00DF11DB1
:10122000929FF00D839FF00D749FF00D659FF00D60
:101230009927729FB00DE11DF91F639FB00DE11D4D
:10124000F91FBD01CF0111240895AA1BBB1B51E159
:1012500007C0AA1FBB1FA617B70710F0A61BB70B26
:10126000881F991F5A95A9F780959095BC01CD01CB
:101270000895A1E21A2EAA1BBB1BFD010DC0AA1FD7
:10128000BB1FEE1FFF1FA217B307E407F50720F0EF
:10129000A21BB30BE40BF50B661F771F881F991F6A
:1012A0001A9469F760957095809590959B01AC01B3
:1012B000BD01CF01089597FB092E05260ED057FDDD
:1012C00004D0D7DF0AD0001C38F4509540953095F3
:1012D00021953F4F4F4F5F4F0895F6F790958095BA
:1012E000709561957F4F8F4F9F4F0895FC01882720
:1012F0009927E89421912032E9F3293010F02E301B
:10130000C8F32B3241F02D3239F4689404C00E94A6
:101310009409820F911D219120532A30C0F31EF4AD
:10132000909581959F4F08957AE0979F902D879F84
:0C133000802D910D11240895F894FFCF3A
:10133C000A0D000A0D20200052756E6E696E672E24
:10134C002E2E004F4B0A0D000A0D2D2D2D2D2D2D5F
:10135C002D2D2D2D2D2D2D2D2D2D2D2D2D2D2D2DB1
:10136C002D2D2D2D2D2D2D2D2D2D2D2D2D2D2D2DA1
:10137C002D2D2D2D2D2D2D2D2D2D2D2D2D2D2D2D91
:10138C002D2D2D2D2D2D2D2D0A0D41746D656C20BF
:10139C00415652343436202D204C696E65617220D2
:1013AC00737065656420636F6E74726F6C206F660A
:1013BC002073746570706572206D6F746F720A0D96
:1013CC000A0D3F20202020202020202D2053686F44
:1013DC00772068656C700A0D61205B646174615DD7
:1013EC00202D2053657420616363656C6572617494
:1013FC00696F6E202872616E67653A203731202D37
:10140C00203332303030290A0D64205B6461746102
:10141C005D202D2053657420646563656C65726175
:10142C0074696F6E202872616E67653A20373120BF
:10143C002D203332303030290A0D73205B646174F7
:10144C00615D202D205365742073706565642028C0
:10145C0072616E67653A203132202D206D6F746F8A
:10146C0072206C696D6974290A0D6D205B6461745E
:10147C00615D202D204D6F7665205B646174615D2C
:10148C00207374657073202872616E67653A202D25
:10149C003634303030202D203634303030290A0D9F
:1014AC006D6F7665205B73746570735D205B616333
:1014BC0063656C5D205B646563656C5D205B73705C
:1014CC006565645D0A0D2020202020202020202D21
:1014DC00204D6F7665207769746820616C6C207084
:1014EC006172616D657465727320676976656E0AE9
:1014FC000D3C656E7465723E20202D205265706522
:10150C006174206C617374206D6F76650A0D0A0D21
:10151C00202020206163632F646563206461746103
:10152C0020676976656E20696E20302E30312A7204
:10153C0061642F7365635E322028313030203D208A
:10154C0031207261642F7365635E32290A0D20208D
:10155C00202073706565642064617461206769760E
:10156C00656E20696E20302E30312A7261642F73C3
:10157C0065632028313030203D2031207261642F8A
:10158C00736563290A0D2D2D2D2D2D2D2D2D2D2D12
:10159C002D2D2D2D2D2D2D2D2D2D2D2D2D2D2D2D6F
:1015AC002D2D2D2D2D2D2D2D2D2D2D2D2D2D2D2D5F
:1015BC002D2D2D2D2D2D2D2D2D2D2D2D2D2D2D2D4F
:1015CC002D2D2D2D0A0D000A0D20204D6F746F72DC
:1015DC0020706F733A200020202020613A002020D8
:1015EC00643A002020733A0020206D3A000A0D3E28
:1015FC002000080A02060405010930313233343563
:06160C00363738390000FA
:00000001FF
