:100000000C9434000C9451000C9451000C94510049
:100010000C9451000C9451000C9451000C9451001C
:100020000C9451000C9451000C9451000C9451000C
:100030000C9451000C9451000C9451000C945100FC
:100040000C9451000C9451000C9467010C945100D5
:100050000C9451000C9451000C9451000C945100DC
:100060000C9451000C94510011241FBECFEFD4E02A
:10007000DEBFCDBF11E0A0E0B1E0EAEAF3E002C0EC
:1000800005900D92A830B107D9F711E0A8E0B1E0D2
:1000900001C01D92A932B107E1F70E94A1010C94A1
:1000A000D3010C9400008FEF84B987B91AB88BB9CB
:1000B00081E4809308011092090110922801809335
:1000C0000A0108959093C5008093C400E1ECF0E02C
:1000D00088E1808386E08093C2008081806880838D
:1000E00008959091C00095FFFCCF8093C6000895BD
:1000F0008091C00087FFFCCF8091C6000895E0E0AA
:10010000F1E0819185B987E293E20197F1F700C0B0
:10011000000091E0E830F907A1F70895E8E0F1E088
:10012000829185B987E293E20197F1F700C0000060
:1001300091E0E030F907A1F708958CE090E00EC05F
:10014000229125B9A7E2B3E21197F1F700C00000B0
:10015000B1E0E030FB07A1F7019719F0E8E0F1E02A
:10016000EFCF08958CE090E00EC0219125B9A7E271
:10017000B3E21197F1F700C00000B1E0E830FB07EF
:10018000A1F7019719F0E0E0F1E0EFCF0895409A70
:1001900080910901882319F40E94B20002C00E94D4
:1001A0007F00409808958091070185B9409A809119
:1001B0000901882319F40E949D0002C00E948E004C
:1001C0004098089588E085B9419A80910901882373
:1001D00019F40E94B20002C00E947F004198089565
:1001E00089E085B9419A80910901882319F40E9418
:1001F0009D0002C00E948E004198089588E085B954
:10020000429A80910901882319F40E94B20002C029
:100210000E947F004298089589E085B9429A8091B2
:100220000901882319F40E949D0002C00E948E00DB
:10023000429808951F93CF93DF93C0E0D0E011E080
:10024000809108018135C1F1FE01E65FFE4F80819A
:10025000893519F18A3560F4823541F1833518F416
:10026000853461F529C0833521F1883539F50FC012
:10027000883751F0893718F48A3501F514C0893769
:1002800049F08A37D9F40CC00E94C70017C00E94F9
:10029000D30014C00E94F00011C00E94E2000EC002
:1002A0000E940C010BC00E94FE0008C010920901C0
:1002B00005C01093090102C0CEE1D0E02196CE31F5
:1002C000D1050CF4BDCFDF91CF911F9108951F92FE
:1002D0000F920FB60F9211242F933F934F935F937A
:1002E0006F937F938F939F93AF93BF93EF93FF93FE
:1002F0008091C60080930801873491F09091280185
:10030000E92FF0E0E65FFE4F8083892F8F5F8093B7
:1003100028018E3129F41092280178940E941A0144
:10032000FF91EF91BF91AF919F918F917F916F91CD
:100330005F914F913F912F910F900FBE0F901F90A3
:1003400018950F931F93CF93DF930E9453008CE077
:1003500090E00E94620078941092090110E20EE28F
:1003600080910801823461F41093080110922801F1
:10037000EAE0F1E0019381E0E832F807D9F7F0CF45
:10038000853419F40E941A010BC0873449F7CAE07A
:10039000D1E089910E94710081E0C832D807C9F785
:0A03A00010930801DDCFF894FFCFA1
:0803AA00080A0206040501091E
:00000001FF
