:100000000C943E000C945B000C945B000C945B0021
:100010000C945B000C945B000C945B000C945B00F4
:100020000C945B000C945B000C945B000C945B00E4
:100030000C945B000C9495020C945B000C945B0098
:100040000C945B000C945B000C945B000C945B00C4
:100050000C94B1040C945B000C94FC040C945B00B5
:100060000C945B000C945B000C945B000C945B00A4
:100070000C945B000C945B000C945B0011241FBE7D
:10008000CFEFD0E1DEBFCDBF13E0A0E0B1E0E0E311
:10009000FBE002C005900D92A03CB107D9F714E037
:1000A000A0ECB3E001C01D92AA33B107E1F70E94B2
:1000B000B7000C9496050C9400000E94DD008CE0C3
:1000C00090E00E94260480E00E94E4000E948902E1
:1000D00078940895CF93DF93CEE2D1E002C00E94DE
:1000E000480489918823D9F7DF91CF910895AF9281
:1000F000BF92CF92DF92EF92FF920F931F93CF9315
:10010000DF935C016B017A01E90180E091E00E94DC
:100110004B04C5010E945E0480E191E00E944B0403
:10012000C6010E945E0487E191E00E944B04C70172
:100130000E945E048CE191E00E944B04CE010E947B
:100140005E0481E291E00E944B04C8010E945E04BB
:1001500086E291E00E944B04DF91CF911F910F91B5
:10016000FF90EF90DF90CF90BF90AF9008950F93E6
:100170001F930E945D008BE291E00E944B040E945D
:100180006A008091C1039091C20364E670E044E686
:1001900050E020E233E008EE13E00E947700809107
:1001A000C00381FF09C081E40E9448048091C0031C
:1001B0008D7F8093C003F3CFFFCF8BB18F708BB94E
:1001C0008AB1806F8AB908959BB1EDEAF3E0E80F38
:1001D000F11D80818295807F982B9BB99BB18F60A8
:1001E00089238BB908951F932091C1033091C203D5
:1001F000813039F4215030403093C2032093C10341
:1002000008C02F5F3F4F3093C2032093C103882360
:1002100021F08091C3038F5F03C08091C30381509D
:100220008093C3031091C30317701093C303812FEE
:100230000E94E400812F1F9108952F923F924F92C8
:100240005F926F927F928F929F92AF92BF92CF9266
:10025000DF92EF92FF920F931F93DF93CF93CDB76F
:10026000DEB72A970FB6F894DEBF0FBECDBF4C01A4
:100270007E836D831A0180910E0497FE08C088600A
:1002800080930E04909481949108939403C0877F87
:1002900080930E0481E08816910499F48FEF9FEF0C
:1002A000909318048093170480910E04887F8260D5
:1002B00080930E0488EE93E09093100480930F04D3
:1002C000FFC08114910409F40BC12901662477242D
:1002D0006FE17BE08BE090E0A30192010E947B053F
:1002E00029873A872093150430931604AD81BE8187
:1002F000CD01A0E0B0E089839A83AB83BC8360EA40
:100300007FEA89EB92E129813A814B815C810E94ED
:100310007B0559016A01E0E1F0E020E030E040E0D7
:1003200050E460E070E0CB0179018A01E60EF71E2F
:10033000081F191FAE14BF04C006D10630F0AE1856
:10034000BF08C00AD10AA1E001C0A0E09695879538
:1003500077956795AA2321F0620F731F841F951F5D
:10036000A2E05695479537952795AA95D1F73197ED
:10037000D9F66A157B058C059D0520F46F5F7F4FCC
:100380008F4F9F4F2AE23CE040E050E00E9426055C
:1003900024E6E22EF12C012D112DA80197010E94D7
:1003A000590538872F833093100420930F04C3011D
:1003B000B201A30192010E9426055B016C016981D3
:1003C0007A818B819C812AE331E040E050E00E94F9
:1003D0002605A80197010E947B05C601B5010E9470
:1003E0007B0559012115310519F481E0A82EB12CA6
:1003F000710100E010E0B401882777FD8095982F07
:10040000A80197010E9426052D813E81220D331DF2
:1004100040E050E00E947B052115310521F0A21635
:10042000B30630F002C021E030E02819390914C0C9
:10043000B50180E090E029813A814B815C810E9486
:10044000260590958095709561957F4F8F4F9F4FB2
:10045000A80197010E947B05309314042093130494
:100460008091130490911404009731F48FEF9FEF63
:1004700090931404809313048091130490911404B6
:10048000880D991D909312048093110489859A8593
:10049000EF81F8858E179F0748F0909310048093A2
:1004A0000F0480910E04887F836004C080910E0445
:1004B000887F816080930E041092180410921704B4
:1004C0008091C00381608093C0038AE090E09093A4
:1004D00089008093880080918100826080938100F0
:1004E0002A960FB6F894DEBF0FBECDBFCF91DF9135
:1004F0001F910F91FF90EF90DF90CF90BF90AF9042
:100500009F908F907F906F905F904F903F902F9033
:10051000089580910E04887F80930E0488E0809374
:10052000810082E080936F0008951F920F920FB6B2
:100530000F9211244F925F926F927F928F929F92AF
:10054000AF92BF92CF92DF92EF92FF920F931F93E1
:100550002F933F934F935F936F937F938F939F93CB
:10056000AF93BF93CF93DF93EF93FF9380910F04EB
:100570009091100490938900809388006EE0C62EBD
:1005800064E0D62E80910E04282F277030E02130B1
:10059000310519F12230310524F42115310551F0CE
:1005A00028C12230310509F4C8C02330310509F0D3
:1005B00020C192C01092C7031092C6031092C503C7
:1005C0001092C40380918100887F80938100809184
:1005D000C0038E7F8093C0030CC186958695869557
:1005E00081700E94F3000091C6031091C7030F5F52
:1005F0001F4F1093C7030093C603C0901704D090F9
:1006000018040894C11CD11CD0921804C09217047D
:10061000C0910F04D09110044E01AA24BB24409035
:10062000C4035090C50366247724CC0CDD1CCC0C8D
:10063000DD1C0894C11CD11CEE24D7FCE094FE2CD8
:10064000C501B4012EEF3FEF4FEF5FEF0E9426058B
:100650006419750986099709A70196010E947B050F
:10066000C20FD31FC501B401660F771F881F991FE2
:10067000640D751D861D971DA70196010E947B05BF
:100680007093C5036093C403809111049091120488
:100690000817190748F0809113049091140490935F
:1006A00018048093170444C0809115049091160497
:1006B0008C179D0708F49DC0D093C903C093C8034D
:1006C0001092C5031092C40320910E04287F23606A
:1006D00020930E04EC018DC08695869586958170D9
:1006E0000E94F3008091C6039091C70301969093F6
:1006F000C7038093C60350911504409116042091BE
:100700001104309112048217930738F4CA01E92EBC
:10071000E7017E01F82EE7016CC0809113049091EF
:100720001404F60192878187C091C803D091C90350
:1007300080910E04887F82605AC086958695869542
:1007400081700E94F3008091C6039091C7030196C7
:100750009093C7038093C603009117041091180467
:100760000F5F1F4FF60112870187C0910F04D091D0
:1007700010044E01AA24BB244090C4035090C5032A
:10078000662477246801CC0CDD1CCC0CDD1C08949D
:10079000C11CD11CEE24D7FCE094FE2CC501B40191
:1007A0002EEF3FEF4FEF5FEF0E94260564197509AA
:1007B00086099709A70196010E947B05C20FD31FE6
:1007C000C501B401660F771F881F991F640D751D41
:1007D000861D971DA70196010E947B057093C50396
:1007E0006093C40317FD05C080910E04887F809339
:1007F0000E04D0931004C0930F04FF91EF91DF918A
:10080000CF91BF91AF919F918F917F916F915F91A8
:100810004F913F912F911F910F91FF90EF90DF909B
:10082000CF90BF90AF909F908F907F906F905F9090
:100830004F900F900FBE0F901F901895262F372FB7
:100840008217930708F49C01C90108959093C5008D
:100850008093C400E1ECF0E088E1808386E080933F
:10086000C20080818068808380E280930C041092B3
:100870000D0408959091C00095FFFCCF8093C600B1
:1008800008958091C00087FFFCCF8091C600089535
:100890000E943A0408951F93CF93DF93EC0110E078
:1008A00003C01F5F0E943A04FE01E10FF11D808129
:1008B0008823B9F7DF91CF911F910895AF92BF922E
:1008C000DF92EF92FF920F931F93DF93CF930F92DC
:1008D000CDB7DEB78C0197FF06C0109501951F4F6D
:1008E0008DE20E943A0424E030E090E1A92E97E2E4
:1008F000B92EEAE0F0E008C0C501BF010E9445053D
:100900005B012150304019F00A151B05A8F38AE05D
:10091000E82EF12CC801B5010E944505D82E6B5474
:100920007C4FFB01808199830E943A040D2D9981AF
:10093000192FC501B7010E9445055B0161157105BD
:1009400049F70F90CF91DF911F910F91FF90EF909A
:10095000DF90BF90AF9008951092190410921A047E
:1009600008951F920F920FB60F9211241F932F9389
:100970003F934F935F936F937F938F939F93AF9327
:10098000BF93EF93FF931091C6008091C00380FD49
:1009900021C080911904282F30E08F3148F4F901EB
:1009A000E65EFB4F108311828F5F8093190407C0AE
:1009B000275E3B4FF901108382E60E943A041D3006
:1009C00031F48091C00382608093C00303C0812F03
:1009D0000E943A04FF91EF91BF91AF919F918F9147
:1009E0007F916F915F914F913F912F911F910F9048
:1009F0000FBE0F901F9018951F920F920FB60F9277
:100A000011248F939F93EF93FF938091CA0390914A
:100A1000CB03981769F0E091CA03EF5FEF73E0939F
:100A2000CA03F0E0E453FC4F80818093C60005C008
:100A30008091C1008F7D8093C100FF91EF919F91C4
:100A40008F910F900FBE0F901F901895629FD0014D
:100A5000739FF001829FE00DF11D649FE00DF11D79
:100A6000929FF00D839FF00D749FF00D659FF00D28
:100A70009927729FB00DE11DF91F639FB00DE11D15
:100A8000F91FBD01CF0111240895AA1BBB1B51E121
:100A900007C0AA1FBB1FA617B70710F0A61BB70BEE
:100AA000881F991F5A95A9F780959095BC01CD0193
:100AB0000895A1E21A2EAA1BBB1BFD010DC0AA1F9F
:100AC000BB1FEE1FFF1FA217B307E407F50720F0B7
:100AD000A21BB30BE40BF50B661F771F881F991F32
:100AE0001A9469F760957095809590959B01AC017B
:100AF000BD01CF01089597FB092E05260ED057FDA5
:100B000004D0D7DF0AD0001C38F4509540953095BA
:100B100021953F4F4F4F5F4F0895F6F79095809581
:100B2000709561957F4F8F4F9F4F0895F894FFCF39
:100B30000A0D20204D6F746F7220706F733A200081
:100B400020202020613A002020643A002020733ABF
:100B50000020206D3A000A0D3E20000A0D000A0D0B
:100B60002D2D2D2D2D2D2D2D2D2D2D2D2D2D2D2DB5
:100B70002D2D2D2D2D2D2D2D2D2D2D2D2D2D2D2DA5
:100B80002D2D2D2D2D2D2D2D2D2D2D2D2D2D2D2D95
:100B90002D2D2D2D2D2D2D2D2D2D2D2D2D2D0A0DC8
:100BA00041746D656C20415652343436202D204CF2
:100BB000696E65617220737065656420636F6E7421
:100BC000726F6C206F662073746570706572206D33
:100BD0006F746F720A0D0A0D3F2020202020202004
:100BE000202D2053686F772068656C700A0D612096
:100BF0005B646174615D202D2053657420616363C3
:100C0000656C65726174696F6E202872616E6765CC
:100C10003A203731202D203332303030290A0D640C
:100C2000205B646174615D202D20536574206465D0
:100C300063656C65726174696F6E202872616E679E
:100C4000653A203731202D203332303030290A0DDB
:100C500073205B646174615D202D20536574207383
:100C600070656564202872616E67653A20313220B4
:100C70002D206D6F746F72206C696D6974290A0D77
:100C80006D205B646174615D202D204D6F76652061
:100C90005B646174615D2073746570732028726198
:100CA0006E67653A202D3634303030202D203634B2
:100CB000303030290A0D6D6F7665205B7374657076
:100CC000735D205B616363656C5D205B6465636578
:100CD0006C5D205B73706565645D0A0D20202020CB
:100CE00020202020202D204D6F76652077697468A4
:100CF00020616C6C20706172616D65746572732027
:100D0000676976656E0A0D3C656E7465723E2020DB
:100D10002D20526570656174206C617374206D6F55
:100D200076650A0D0A0D202020206163632F64651B
:100D300063206461746120676976656E20696E2046
:100D4000302E30312A7261642F7365635E32202841
:100D5000313030203D2031207261642F7365635E35
:100D600032290A0D2020202073706565642064619B
:100D7000746120676976656E20696E20302E30318F
:100D80002A7261642F7365632028313030203D2042
:100D900031207261642F736563290A0D2D2D2D2D6D
:100DA0002D2D2D2D2D2D2D2D2D2D2D2D2D2D2D2D73
:100DB0002D2D2D2D2D2D2D2D2D2D2D2D2D2D2D2D63
:100DC0002D2D2D2D2D2D2D2D2D2D2D2D2D2D2D2D53
:100DD0002D2D2D2D2D2D2D2D2D2D0A0D00080A0226
:100DE00006040501093031323334353637383900DD
:00000001FF
