:100000000C943E000C945B000C945B000C945B0021
:100010000C945B000C945B000C945B000C945B00F4
:100020000C945B000C945B000C945B000C945B00E4
:100030000C945B000C94D7020C945B000C945B0056
:100040000C94A7050C945B000C945B000C945B0073
:100050000C94DB070C945B000C945B000C945B002D
:100060000C945B000C945B000C945B000C945B00A4
:100070000C945B000C945B000C945B0011241FBE7D
:10008000CFEFD0E1DEBFCDBF11E0A0E0B1E0E2EB09
:10009000F1E102C005900D92AE38B107D9F711E039
:1000A000AEE8B1E001C01D92AB3EB107E1F70E949E
:1000B0005D000C94D7080C940000AF92BF92CF92D1
:1000C000DF92EF92FF920F931F93CF93DF938CE019
:1000D00090E00E9444070E94BF020E94FC007894B6
:1000E0008FEF81B912B884B915B887B918B88AB931
:1000F0001BB8CCE0D0E007E410E097E4E92EF12C47
:1001000084E6C82ED12C8091D001813009F071C0D5
:1001100080919D018734A9F480919E01813339F447
:10012000C601B701A8019E010E94870159C0823310
:1001300009F056C0C601B701A8019E010E946904DA
:100140004FC0833531F48FE991E00E94B1086C0112
:1001500047C0813439F48FE991E00E94B108E82E5C
:10016000F92E3EC0843639F48FE991E00E94B1083F
:10017000082F192F35C0833781F48FE991E00E9451
:10018000B108A82EE5015E01B92EE50191E0CF3559
:10019000D90730F180E091E021C08934E9F480E2B0
:1001A00091E00E94B507C6010E9467078AE291E0CC
:1001B0000E94B507C7010E94670784E391E00E948F
:1001C000B507CE010E9467078EE391E00E94B50754
:1001D000C8010E94670704C088E491E00E94B50747
:1001E0001092D0010E94C8078AE591E00E94B507ED
:1001F0008ACF82B182B987CF8BB18F708BB98AB128
:10020000806F8AB908959BB1EFE6F1E0E80FF11D28
:1002100080818295807F982B9BB99BB18F608923C9
:100220008BB908951F9320918E0130918F018130F9
:1002300039F42150304030938F0120938E0108C053
:100240002F5F3F4F30938F0120938E01882321F041
:10025000809190018F5F03C08091900181508093C5
:10026000900110919001177010939001812F0E94BE
:100270000301812F1F910895AF92BF92CF92DF9219
:10028000EF92FF920F931F93E0E1F0E0A12CB12CCD
:10029000C12C10E4D12E20E030E0A90186017501C7
:1002A000E20EF31E041F151F6E157F0580079107D0
:1002B00030F06E197F09800B910BA1E001C0A0E026
:1002C0005695479537952795AA2321F02A0D3B1D72
:1002D0004C1D5D1DA2E0D694C794B794A794AA952F
:1002E000D1F73197D9F6261737074807590720F471
:1002F0002F5F3F4F4F4F5F4FB901CA011F910F91C1
:10030000FF90EF90DF90CF90BF90AF9008952F9225
:100310003F924F925F926F927F928F929F92AF9295
:10032000BF92CF92DF92EF92FF920F931F93DF93D2
:10033000CF9300D000D000D0CDB7DEB79E838D83A1
:100340001B012A0141E02E35340710F02EE531E083
:10035000289A8091E001ED81FE81F7FF09C0886055
:100360008093E001F095E195FF4FFE83ED8303C09C
:10037000877F8093E0014D815E814130510599F482
:100380008FEF9FEF9093EA018093E9018091E00164
:10039000887F82608093E00188EE93E09093E20191
:1003A0008093E101C3C08D819E81009709F4CEC086
:1003B0005901CC24DD2463E27EED86E290E0A601C3
:1003C00095010E9496082B833C832093E70130938C
:1003D000E80131018824992460E07DE58EE394E111
:1003E000A40193010E949608CA01B9010E943C0130
:1003F0002CE937E240E050E00E94410824E6E22E7A
:10040000F12C012D112DA80197010E9474083A8347
:1004100029833093E2012093E101C601B501A601D1
:1004200095010E9441085B016C01C401B30123E501
:1004300031E040E050E00E944108A80197010E948D
:100440009608C601B5010E9496088901211531055B
:1004500011F401E010E06201EE24FF24ED81FE8141
:10046000BF01882777FD8095982FA70196010E94EC
:1004700041089201220D331D40E050E00E94960891
:100480002115310521F00217130740F002C021E0C9
:1004900030E04D815E81241B350B12C0B80180E035
:1004A00090E0A40193010E94410890958095709579
:1004B00061957F4F8F4F9F4FA70196010E9496082D
:1004C0003093E6012093E5018091E5019091E601EA
:1004D000009731F48FEF9FEF9093E6018093E50151
:1004E0008091E5019091E601ED81FE818E0F9F1FC5
:1004F0009093E4018093E3018B819C8129813A816F
:100500008217930748F09093E2018093E101809174
:10051000E001887F836004C08091E001887F816072
:100520008093E0011092EA011092E9018091D401D8
:1005300081608093D4018AE090E090938900809359
:1005400088008091810082608093810026960FB69A
:10055000F894DEBF0FBECDBFCF91DF911F910F91F9
:10056000FF90EF90DF90CF90BF90AF909F908F90D3
:100570007F906F905F904F903F902F900895809163
:10058000E001887F8093E00128E02093810092E0E1
:1005900090936F008091D501887F8093D50125BD10
:1005A00090936E001092D2011092D10108951F9283
:1005B0000F920FB60F9211244F925F926F927F921B
:1005C0008F929F92AF92BF92CF92DF92EF92FF9263
:1005D0000F931F932F933F934F935F936F937F934B
:1005E0008F939F93AF93BF93CF93DF93EF93FF933B
:1005F0008091E1019091E2019093890080938800BD
:1006000070EEC72E71E0D72E8091E001282F277061
:1006100030E02130310521F12230310524F421155B
:10062000310551F029C12230310509F4C9C0233008
:10063000310509F021C193C0289810929A011092B7
:100640009901109298011092970180918100887F02
:10065000809381008091D4018E7F8093D4010CC15E
:1006600086958695869581700E9412010091990168
:1006700010919A010F5F1F4F10939A0100939901F7
:10068000C090E901D090EA010894C11CD11CD0921D
:10069000EA01C092E901C091E101D091E2014E016D
:1006A000AA24BB2440909701509098016624772497
:1006B000CC0CDD1CCC0CDD1C0894C11CD11CEE2420
:1006C000D7FCE094FE2CC501B4012EEF3FEF4FEFB5
:1006D0005FEF0E9441086419750986099709A7010F
:1006E00096010E949608C20FD31FC501B401660F80
:1006F000771F881F991F640D751D861D971DA70103
:1007000096010E94960870939801609397018091DA
:10071000E3019091E4010817190748F08091E50181
:100720009091E6019093EA018093E90144C08091A1
:10073000E7019091E8018C179D0708F49DC0D093C4
:100740009C01C0939B0110929801109297012091F7
:10075000E001287F23602093E001EC018DC08695A5
:100760008695869581700E941201809199019091E1
:100770009A01019690939A01809399015091E70113
:100780004091E8012091E3013091E4018217930741
:1007900038F4CA01E92EE7017E01F82EE7016CC0AA
:1007A0008091E5019091E601F60192878187C091E1
:1007B0009B01D0919C018091E001887F82605AC0AA
:1007C00086958695869581700E9412018091990187
:1007D00090919A01019690939A01809399010091CA
:1007E000E9011091EA010F5F1F4FF601128701879F
:1007F000C091E101D091E2014E01AA24BB244090B6
:10080000970150909801662477246801CC0CDD1C78
:10081000CC0CDD1C0894C11CD11CEE24D7FCE09448
:10082000FE2CC501B4012EEF3FEF4FEF5FEF0E94AA
:1008300041086419750986099709A70196010E9464
:100840009608C20FD31FC501B401660F771F881F1A
:10085000991F640D751D861D971DA70196010E94A5
:100860009608709398016093970117FD05C08091D9
:10087000E001887F8093E001D093E201C093E10121
:10088000FF91EF91DF91CF91BF91AF919F918F91A8
:100890007F916F915F914F913F912F911F910F9198
:1008A000FF90EF90DF90CF90BF90AF909F908F9090
:1008B0007F906F905F904F900F900FBE0F901F90A2
:1008C0001895262F372F8217930708F49C01C9012A
:1008D00008952F923F924F925F926F927F928F92E4
:1008E0009F92AF92BF92CF92DF92EF92FF920F93BF
:1008F0001F93DF93CF9300D000D000D0CDB7DEB7E9
:100900009E838D831B012A011092D2011092D10186
:1009100041E02E35340710F02EE531E0289A809121
:10092000D501ED81FE81F7FF09C088608093D50174
:10093000F095E195FF4FFE83ED8303C0877F8093A1
:10094000D5014D815E814130510599F48FEF9FEFC4
:100950009093DF018093DE018091D501887F8260D2
:100960008093D50188EE93E09093D7018093D601D0
:10097000C3C08D819E81009709F4C8C05901CC2461
:10098000DD2463E27EED86E290E0A60195010E94FF
:1009900096082B833C832093DC013093DD013101E9
:1009A0008824992460E07DE58EE394E1A40193011D
:1009B0000E949608CA01B9010E943C012CE937E265
:1009C00040E050E00E944108E4E6EE2EF12C012DBB
:1009D000112DA80197010E9474083A83298330934E
:1009E000D7012093D601C601B501A60195010E9449
:1009F00041085B016C01C401B30123E531E040E033
:100A000050E00E944108A80197010E949608C60183
:100A1000B5010E94960889012115310511F401E004
:100A200010E06201EE24FF24ED81FE81BF018827E2
:100A300077FD8095982FA70196010E9441089201A9
:100A4000220D331D40E050E00E949608211531052B
:100A500021F00217130740F002C021E030E04D8181
:100A60005E81241B350B12C0B80180E090E0A40128
:100A700093010E94410890958095709561957F4FF4
:100A80008F4F9F4FA70196010E9496083093DB017C
:100A90002093DA018091DA019091DB01009731F423
:100AA0008FEF9FEF9093DB018093DA018091DA0161
:100AB0009091DB01ED81FE818E0F9F1F9093D901F4
:100AC0008093D8018B819C8129813A818217930779
:100AD00048F09093D7018093D6018091D501887F0B
:100AE000836004C08091D501887F81608093D501A7
:100AF0001092DF011092DE018091CF01816080931E
:100B0000CF018AE087BD85B5826085BD8091D60121
:100B10009091D7019093D2018093D10126960FB680
:100B2000F894DEBF0FBECDBFCF91DF911F910F9123
:100B3000FF90EF90DF90CF90BF90AF909F908F90FD
:100B40007F906F905F904F903F902F9008951F92ED
:100B50000F920FB60F9211244F925F926F927F9275
:100B60008F929F92AF92BF92CF92DF92EF92FF92BD
:100B70000F931F932F933F934F935F936F937F93A5
:100B80008F939F93AF93BF93CF93DF93EF93FF9395
:100B90008091D1019091D2018F3F910551F04CF09D
:100BA0008F5F90409093D2018093D1018FEF87BDEA
:100BB0004AC18091D6019091D7019093D201809340
:100BC000D1018F3F910511F00CF08FEF87BD80911F
:100BD000D501282F277030E02130310511F1223066
:100BE000310524F42115310551F029C12230310598
:100BF00009F4C8C02330310509F021C191C02898FB
:100C0000109294011092930110929201109291010E
:100C100085B5887F85BD8091CF018E7F8093CF0180
:100C20000EC186958695869581700E94120100916D
:100C30009301109194010F5F1F4F10939401009343
:100C40009301C090DE01D090DF010894C11CD11C3B
:100C5000D092DF01C092DE01C091D601D091D701C0
:100C60004E01AA24BB244090910150909201662429
:100C70007724CC0CDD1CCC0CDD1C0894C11CD11CD1
:100C8000EE24D7FCE094FE2CC501B4012EEF3FEF1B
:100C90004FEF5FEF0E9441086419750986099709B3
:100CA000A70196010E949608C20FD31FC501B40187
:100CB000660F771F881F991F640D751D861D971D70
:100CC000A70196010E94960870939201609391018A
:100CD0008091D8019091D9010817190748F08091A7
:100CE000DA019091DB019093DF018093DE0145C032
:100CF0008091DC019091DD018C179D0708F49FC065
:100D0000D0939601C0939501109292011092910197
:100D10002091D501287F23602093D501EC018FC05D
:100D200086958695869581700E9412018091930127
:100D30009091940101969093940180939301509126
:100D4000DC014091DD012091D8013091D901821759
:100D5000930738F4CA01E92EE7017E01F82EE70176
:100D60006EC08091DA019091DB019093DF01809356
:100D7000DE01C0919501D09196018091D501887FC7
:100D800082605BC086958695869581700E9412016F
:100D90008091930190919401019690939401809396
:100DA00093010091DE011091DF010F5F1F4F10933F
:100DB000DF010093DE01C091D601D091D7014E0131
:100DC000AA24BB244090910150909201662477247C
:100DD0006801CC0CDD1CCC0CDD1C0894C11CD11CA2
:100DE000EE24D7FCE094FE2CC501B4012EEF3FEFBA
:100DF0004FEF5FEF0E944108641975098609970952
:100E0000A70196010E949608C20FD31FC501B40125
:100E1000660F771F881F991F640D751D861D971D0E
:100E2000A70196010E949608709392016093910128
:100E300017FD05C08091D501887F8093D501D0939F
:100E4000D701C093D601FF91EF91DF91CF91BF9170
:100E5000AF919F918F917F916F915F914F913F9152
:100E60002F911F910F91FF90EF90DF90CF90BF9047
:100E7000AF909F908F907F906F905F904F900F906A
:100E80000FBE0F901F9018959093C5008093C400DB
:100E9000E1ECF0E088E1808386E08093C20080810D
:100EA000806880831092D30110929D011092D0012E
:100EB00008959091C00095FFFCCF8093C6000895DF
:100EC0008091C00087FFFCCF8091C6000895AF924B
:100ED000BF92DF92EF92FF920F931F93DF93CF9316
:100EE0000F92CDB7DEB78C0197FF06C01095019524
:100EF0001F4F8DE20E94590724E030E090E1A92EB7
:100F000097E2B92EEAE0F0E008C0C501BF010E94F7
:100F100060085B012150304019F00A151B05A8F349
:100F20008AE0E82EF12CC801B5010E946008D82E95
:100F30006D577E4FFB01808199830E9459070D2DCB
:100F40009981192FC501B7010E9460085B016115E5
:100F5000710549F70F90CF91DF911F910F91FF908D
:100F6000EF90DF90BF90AF9008951F93CF93DF93E2
:100F7000EC0110E003C01F5F0E945907FE01E10F62
:100F8000F11D80818823B9F7DF91CF911F910895DA
:100F90001092D001EDE9F1E08091D30190E08E0F45
:100FA0009F1F01C01192E817F907E1F71092D301D2
:100FB00010929D0108951F920F920FB60F92112467
:100FC0000F931F932F933F934F935F936F937F9351
:100FD0008F939F93AF93BF93CF93DF93EF93FF9341
:100FE0000091C6000036D1F487E791E00E94B50772
:100FF0000DE911E0C0E0D0E006C0F80181918F0159
:101000000E94590721968091D30190E0C817D90713
:10101000A4F380E891E00E94B5070AC00C3A19F4E5
:101020000E94C80705C00D3051F481E08093D001C3
:101030008DE00E9459078AE00E9459070DC0802F59
:101040000E9459078091D301E82FF0E0E356FE4F4C
:1010500000838F5F8093D301FF91EF91DF91CF9158
:10106000BF91AF919F918F917F916F915F914F91C0
:101070003F912F911F910F910F900FBE0F901F90D6
:101080001895629FD001739FF001829FE00DF11DC2
:10109000649FE00DF11D929FF00D839FF00D749FF2
:1010A000F00D659FF00D9927729FB00DE11DF91F9E
:1010B000639FB00DE11DF91FBD01CF0111240895FB
:1010C000AA1BBB1B51E107C0AA1FBB1FA617B7076E
:1010D00010F0A61BB70B881F991F5A95A9F780958A
:1010E0009095BC01CD010895A1E21A2EAA1BBB1B4D
:1010F000FD010DC0AA1FBB1FEE1FFF1FA217B307E4
:10110000E407F50720F0A21BB30BE40BF50B661FF9
:10111000771F881F991F1A9469F7609570958095BD
:1011200090959B01AC01BD01CF01089597FB092E5D
:1011300005260ED057FD04D0D7DF0AD0001C38F4A6
:1011400050954095309521953F4F4F4F5F4F0895F3
:10115000F6F790958095709561957F4F8F4F9F4FD3
:101160000895FC0188279927E89421912032E9F31A
:10117000293010F02E30C8F32B3241F02D3239F4E3
:10118000689404C00E94CF08820F911D21912053C2
:101190002A30C0F31EF4909581959F4F08957AE010
:1011A000979F902D879F802D910D11240895F8947D
:0211B000FFCF6F
:1011B2005741524E494E473A2045584345454445CA
:1011C20044204D4158494D554D205350454544000A
:1011D2000A0D53746570733A20000A0D416363650A
:1011E2006C3A20000A0D53706565643A20000A0DBE
:1011F200446563656C3A2000496E636F7272656381
:101202007420436F6D6D616E64000A0D3E00436F82
:101212006D6D616E64205265636569766564000870
:101222000A0206040501094275666665723A2200E1
:0E12320022200030313233343536373839005F
:00000001FF
