:100000000C943E000C9450000C9450000C94500042
:100010000C9450000C9450000C9450000C94500020
:100020000C9450000C9450000C9450000C94500010
:100030000C9450000C9450000C9450000C94500000
:100040000C9450000C9450000C9450000C945000F0
:100050000C947C000C9450000C9450000C945000B4
:100060000C9450000C9450000C9450000C945000D0
:100070000C9450000C9450000C94500011241FBE9E
:10008000CFEFD0E1DEBFCDBF11E0A0E0B1E001C015
:100090001D92A130B107E1F70E9452000C948C0030
:1000A0000C9400008CE090E00E945F0078948FEF49
:1000B00081B912B887B98091000188B9FCCF9093BB
:1000C000C5008093C400E1ECF0E088E1808386E025
:1000D0008093C20080818068808308959091C000E1
:1000E00095FFFCCF8093C60008958091C00087FFE4
:1000F000FCCF8091C60008951F920F920FB60F9209
:1001000011248F938091C600809300018F910F90EE
:0C0110000FBE0F901F901895F894FFCFC1
:00000001FF
