:100000000C943E000C945B000C945B000C945B0021
:100010000C945B000C945B000C945B000C945B00F4
:100020000C945B000C94A9090C945B000C945B008D
:100030000C945B000C941D080C945B000C945B000A
:100040000C947E060C945B000C945B000C945B009B
:100050000C94E90B0C945B000C945B000C945B001B
:100060000C945B000C945B000C945B000C945B00A4
:100070000C945B000C945B000C945B0011241FBE7D
:10008000C0E0D0E1DEBFCDBF11E0A0E0B1E0EEEC1A
:10009000F9E102C005900D92A03CB107D9F712E03A
:1000A000A0ECB1E001C01D92A733B107E1F70E94B7
:1000B0005D000C94E50C0C940000AF92BF92CF92BF
:1000C000DF92EF92FF920F931F93CF93DF938CE019
:1000D00090E00E94520B80E091E00E94C30B0E94CE
:1000E0009F020E94960110920D0210920C02109233
:1000F0000F0210920E0210921402109213027894C2
:100100008FEF81B912B884B915B887B918B88AB910
:100110001BB88CE091E00E94C30BCCE0D0E007E478
:1001200010E097E4E92EF12C84E6C82ED12C8091C2
:100130000902813009F0F7C08091D501883509F4B2
:100140004AC0893598F4893409F47FC08A3438F478
:10015000803309F4CEC0873409F0D8C01BC08C347A
:1001600009F490C0833509F0D1C04AC0813609F442
:100170004DC0823630F48935A9F18A3509F0C6C000
:1001800038C08736A9F0833709F44EC0843609F0A9
:10019000BDC043C08091D601803339F48091D7012E
:1001A000803319F485E191E0B3C080E291E0B0C002
:1001B0008091080280FF02C00E946E0680911202A8
:1001C00080FF02C00E9472068091070280FFA2C0D9
:1001D0000E9478069FC0C601B701A8019E010E9437
:1001E000C40298C0C601B701A8019E010E94FF0386
:1001F00091C0C601B701A8019E010E943B058AC0BB
:1002000087ED91E00E94BF0C6C0184C087ED91E006
:100210000E94BF0CE82EF92E7DC087ED91E00E9470
:10022000BF0C082F192F76C087ED91E00E94BF0CFC
:10023000A82EE5015E01B92EE50191E0CF35D90781
:1002400008F468C081E391E063C081E591E00E9419
:10025000C30BC6010E94750B8BE591E00E94C30B96
:10026000C7010E94750B85E691E00E94C30BCE0189
:100270000E94750B8FE691E00E94C30BC8010E949B
:10028000750B48C088E50E94670B8DE30E94670BE1
:1002900080910C0290910D020E94750B8DE00E94DE
:1002A000670B8AE00E94670B89E50E94670B8DE36C
:1002B0000E94670B80910E0290910F020E94750BB5
:1002C0008DE00E94670B8AE00E94670B8AE50E941E
:1002D000670B8DE30E94670B8091130290911402CB
:1002E0000E94750B8DE00E94670B8AE00E94670BED
:1002F00011C010920D0210920C0210920F02109277
:100300000E02109214021092130204C089E791E0C9
:100310000E94C30B109209020E94D60B8BE891E059
:100320000E94C30B04CF82B182B901CF8BB18F7011
:100330008BB98AB1806F8AB982B18F7082B981B16D
:10034000806F81B985B18F7085B984B1806F84B9B0
:1003500008959BB1E0EAF1E0E80FF11D80818295FC
:10036000807F982B9BB99BB18F6089238BB90895AF
:100370001F932091130230911402813039F42150DF
:100380003040309314022093130208C02F5F3F4F78
:100390003093140220931302882321F08091C2012C
:1003A0008F5F03C08091C20181508093C201109180
:1003B000C20117701093C201812F0E94A901812FE1
:1003C0001F91089592B1E0EAF1E0E80FF11D8081FC
:1003D0008295807F982B92B992B18F60892382B9E0
:1003E00008951F9320910C0230910D02813039F451
:1003F0002150304030930D0220930C0208C02F5F33
:100400003F4F30930D0220930C02882321F08091FE
:10041000C1018F5F03C08091C10181508093C101F0
:100420001091C10117701093C101812F0E94E20148
:10043000812F1F91089595B1E0EAF1E0E80FF11DD9
:1004400080818295807F982B95B995B18F608923A3
:1004500085B908951F9320910E0230910F028130CB
:1004600039F42150304030930F0220930E0208C01F
:100470002F5F3F4F30930F0220930E02882321F00D
:100480008091C0018F5F03C08091C0018150809333
:10049000C0011091C00117701093C001812F0E94FC
:1004A0001B02812F1F910895AF92BF92CF92DF92CE
:1004B000EF92FF920F931F93E0E1F0E0A12CB12C9B
:1004C000C12C10E4D12E20E030E0A9018601750195
:1004D000E20EF31E041F151F6E157F05800791079E
:1004E00030F06E197F09800B910BA1E001C0A0E0F4
:1004F0005695479537952795AA2321F02A0D3B1D40
:100500004C1D5D1DA2E0D694C794B794A794AA95FC
:10051000D1F73197D9F6261737074807590720F43E
:100520002F5F3F4F4F4F5F4FB901CA011F910F918E
:10053000FF90EF90DF90CF90BF90AF9008958091A3
:100540002102887F8093210298E09093810082E0CD
:1005500080936F0020911602287F2093160295BD8C
:1005600080936E00109211021092100220912C02C2
:10057000287F20932C029093B100809370001092FA
:100580000B0210920A0208952F923F924F925F92AF
:100590006F927F928F929F92AF92BF92CF92DF9293
:1005A000EF92FF920F931F93DF93CF9300D000D071
:1005B00000D0CDB7DEB79E838D831B012A01109238
:1005C00011021092100241E02E35340710F02EE592
:1005D00031E0139A80911602ED81FE81F7FF09C088
:1005E000886080931602F095E195FF4FFE83ED83BE
:1005F00003C0877F809316024D815E814130510593
:1006000099F48FEF9FEF9093200280931F028091C7
:100610001602887F82608093160288EE93E09093A2
:10062000180280931702C3C08D819E81009709F440
:10063000C5C05901CC24DD2463E27EED86E290E062
:10064000A60195010E94A40C2B833C8320931D02DC
:1006500030931E0231018824992460E07DE58EE309
:1006600094E1A40193010E94A40CCA01B9010E9463
:1006700054022CE937E240E050E00E944F0C24E69F
:10068000E22EF12C012D112DA80197010E94820C60
:100690003A8329833093180220931702C601B501CB
:1006A000A60195010E944F0C5B016C01C401B301CE
:1006B00023E531E040E050E00E944F0CA801970193
:1006C0000E94A40CC601B5010E94A40C8901211549
:1006D000310511F401E010E06201EE24FF24ED8108
:1006E000FE81BF01882777FD8095982FA70196018D
:1006F0000E944F0C9201220D331D40E050E00E94F9
:10070000A40C2115310521F00217130740F002C097
:1007100021E030E04D815E81241B350B12C0B80111
:1007200080E090E0A40193010E944F0C9095809589
:10073000709561957F4F8F4F9F4FA70196010E9443
:10074000A40C30931C0220931B0280911B029091F9
:100750001C02009731F48FEF9FEF90931C0280935F
:100760001B0280911B0290911C02ED81FE818E0F75
:100770009F1F90931A02809319028B819C8129817B
:100780003A818217930748F09093180280931702DA
:1007900080911602887F836004C080911602887F52
:1007A0008160809316021092200210921F028091A5
:1007B00008028160809308028AE087BD8091170259
:1007C00090911802909311028093100226960FB612
:1007D000F894DEBF0FBECDBFCF91DF911F910F9177
:1007E000FF90EF90DF90CF90BF90AF909F908F9051
:1007F0007F906F905F904F903F902F9008952F9231
:100800003F924F925F926F927F928F929F92AF92A0
:10081000BF92CF92DF92EF92FF920F931F93DF93DD
:10082000CF9300D000D000D0CDB7DEB79E838D83AC
:100830001B012A0110920B0210920A0241E02E3590
:10084000340710F02EE531E02B9A80912C02ED81D7
:10085000FE81F7FF09C0886080932C02F095E19536
:10086000FF4FFE83ED8303C0877F80932C024D8171
:100870005E814130510599F48FEF9FEF90933602DE
:100880008093350280912C02887F826080932C02B5
:1008900088EE93E090932E0280932D02C3C08D8149
:1008A0009E81009709F4C6C05901CC24DD2463E27F
:1008B0007EED86E290E0A60195010E94A40C2B83B8
:1008C0003C832093330230933402310188249924ED
:1008D00060E07DE58EE394E1A40193010E94A40C05
:1008E000CA01B9010E9454022CE937E240E050E00D
:1008F0000E944F0C34E6E32EF12C012D112DA8019E
:1009000097010E94820C3A83298330932E02209310
:100910002D02C601B501A60195010E944F0C5B0195
:100920006C01C401B30123E531E040E050E00E94D6
:100930004F0CA80197010E94A40CC601B5010E94AA
:10094000A40C89012115310511F401E010E06201C8
:10095000EE24FF24ED81FE81BF01882777FD80957D
:10096000982FA70196010E944F0C9201220D331D72
:1009700040E050E00E94A40C2115310521F002173F
:10098000130740F002C021E030E04D815E81241B5E
:10099000350B12C0B80180E090E0A40193010E94E1
:1009A0004F0C90958095709561957F4F8F4F9F4F1D
:1009B000A70196010E94A40C3093320220933102C9
:1009C0008091310290913202009731F48FEF9FEFC6
:1009D00090933202809331028091310290913202E1
:1009E000ED81FE818E0F9F1F9093300280932F0226
:1009F0008B819C8129813A818217930748F09093DB
:100A00002E0280932D0280912C02887F836004C087
:100A100080912C02887F816080932C021092360294
:100A200010923502809112028160809312028AE056
:100A30008093B30080912D0290912E0290930B022F
:100A400080930A0226960FB6F894DEBF0FBECDBF84
:100A5000CF91DF911F910F91FF90EF90DF90CF909A
:100A6000BF90AF909F908F907F906F905F904F90CE
:100A70003F902F9008952F923F924F925F926F92E6
:100A80007F928F929F92AF92BF92CF92DF92EF921E
:100A9000FF920F931F93DF93CF9300D000D000D02D
:100AA000CDB7DEB79E838D831B012A0141E02E3531
:100AB000340710F02EE531E05B9A80912102ED8140
:100AC000FE81F7FF09C0886080932102F095E195CF
:100AD000FF4FFE83ED8303C0877F809321024D810A
:100AE0005E814130510599F48FEF9FEF90932B0277
:100AF00080932A0280912102887F82608093210264
:100B000088EE93E09093230280932202C3C08D81EC
:100B10009E81009709F4C9C05901CC24DD2463E209
:100B20007EED86E290E0A60195010E94A40C2B8345
:100B30003C83209328023093290231018824992490
:100B400060E07DE58EE394E1A40193010E94A40C92
:100B5000CA01B9010E9454022CE937E240E050E09A
:100B60000E944F0C44E6E42EF12C012D112DA8011A
:100B700097010E94820C3A832983309323022093A9
:100B80002202C601B501A60195010E944F0C5B012E
:100B90006C01C401B30123E531E040E050E00E9464
:100BA0004F0CA80197010E94A40CC601B5010E9438
:100BB000A40C89012115310511F401E010E0620156
:100BC000EE24FF24ED81FE81BF01882777FD80950B
:100BD000982FA70196010E944F0C9201220D331D00
:100BE00040E050E00E94A40C2115310521F00217CD
:100BF000130740F002C021E030E04D815E81241BEC
:100C0000350B12C0B80180E090E0A40193010E946E
:100C10004F0C90958095709561957F4F8F4F9F4FAA
:100C2000A70196010E94A40C30932702209326026C
:100C30008091260290912702009731F48FEF9FEF69
:100C4000909327028093260280912602909127029A
:100C5000ED81FE818E0F9F1F9093250280932402C9
:100C60008B819C8129813A818217930748F0909368
:100C700023028093220280912102887F836004C036
:100C800080912102887F81608093210210922B0243
:100C900010922A02809107028160809307028AE005
:100CA00090E0909389008093880026960FB6F89480
:100CB000DEBF0FBECDBFCF91DF911F910F91FF908F
:100CC000EF90DF90CF90BF90AF909F908F907F90EC
:100CD0006F905F904F903F902F90089585B5826000
:100CE00085BD0895E1EBF0E0808182608083089506
:100CF000E1E8F0E080818260808308951F920F9286
:100D00000FB60F9211244F925F926F927F928F9243
:100D10009F92AF92BF92CF92DF92EF92FF920F938A
:100D20001F932F933F934F935F936F937F938F9373
:100D30009F93AF93BF93CF93DF93EF93FF938091F4
:100D40001002909111028F3F910551F04CF08F5F8E
:100D5000904090931102809310028FEF87BD4CC199
:100D600080911702909118029093110280931002C3
:100D70008F3F910511F00CF08FEF87BD8091160227
:100D8000282F277030E02130310511F12230310554
:100D900024F42115310551F02BC12230310509F41D
:100DA000C8C02330310509F023C191C013981092B7
:100DB000D2011092D1011092D0011092CF0185B5CD
:100DC000887F85BD809108028E7F8093080210C1C4
:100DD00086958695869581700E94F1010091D101DA
:100DE0001091D2010F5F1F4F1093D2010093D101D8
:100DF000C0901F02D09020020894C11CD11CD09238
:100E00002002C0921F02C0911702D09118024E0119
:100E1000AA24BB244090CF015090D00166247724AF
:100E2000CC0CDD1CCC0CDD1C0894C11CD11CEE24A8
:100E3000D7FCE094FE2CC501B4012EEF3FEF4FEF3D
:100E40005FEF0E944F0C6419750986099709A70185
:100E500096010E94A40CC20FD31FC501B401660FF6
:100E6000771F881F991F640D751D861D971DA7018B
:100E700096010E94A40C7093D0016093CF018091E1
:100E8000190290911A020817190748F080911B0265
:100E900090911C029093200280931F0245C0809184
:100EA0001D0290911E028C179D0708F4A1C0D093DB
:100EB000D401C093D3011092D0011092CF012091A0
:100EC0001602287F236020931602EC0191C08695BC
:100ED0008695869581700E94F1018091D101909153
:100EE000D20101969093D2018093D10150911D02BD
:100EF00040911E022091190230911A028217930725
:100F000038F4CA01E92EE7017E01F82EE70170C02E
:100F100080911B0290911C029093200280931F02EB
:100F2000C091D301D091D40180911602887F826054
:100F30005DC080912C0286958695869581700E9471
:100F4000F1018091D1019091D20101969093D2014B
:100F50008093D10100911F02109120020F5F1F4F5B
:100F60001093200200931F02C0911702D091180223
:100F70004E01AA24BB244090CF015090D00166249A
:100F800077246801CC0CDD1CCC0CDD1C0894C11C42
:100F9000D11CEE24D7FCE094FE2CC501B4012EEF49
:100FA0003FEF4FEF5FEF0E944F0C64197509860900
:100FB0009709A70196010E94A40CC20FD31FC50177
:100FC000B401660F771F881F991F640D751D861D5C
:100FD000971DA70196010E94A40C7093D001609305
:100FE000CF0117FD05C080911602887F80931602FD
:100FF000D0931802C0931702FF91EF91DF91CF9128
:10100000BF91AF919F918F917F916F915F914F9120
:101010003F912F911F910F91FF90EF90DF90CF9014
:10102000BF90AF909F908F907F906F905F904F9008
:101030000F900FBE0F901F9018951F920F920FB632
:101040000F9211244F925F926F927F928F929F9294
:10105000AF92BF92CF92DF92EF92FF920F931F93C6
:101060002F933F934F935F936F937F938F939F93B0
:10107000AF93BF93CF93DF93EF93FF93119A809138
:10108000220290912302909389008093880041E28C
:10109000C42E42E0D42E80912102282F277030E008
:1010A0002130310521F12230310524F4211531059B
:1010B00051F029C12230310509F4C9C0233031056E
:1010C00009F021C193C05B981092CC011092CB0122
:1010D0001092CA011092C90180918100887F80938B
:1010E0008100809107028E7F809307020CC1869554
:1010F0008695869581700E94B8010091CB01109170
:10110000CC010F5F1F4F1093CC010093CB01C09017
:101110002A02D0902B020894C11CD11CD0922B0221
:10112000C0922A02C0912202D09123024E01AA2429
:10113000BB244090C9015090CA0166247724CC0C8E
:10114000DD1CCC0CDD1C0894C11CD11CEE24D7FC8A
:10115000E094FE2CC501B4012EEF3FEF4FEF5FEF9F
:101160000E944F0C6419750986099709A701960119
:101170000E94A40CC20FD31FC501B401660F771FD4
:10118000881F991F640D751D861D971DA701960167
:101190000E94A40C7093CA016093C901809124023B
:1011A000909125020817190748F080912602909126
:1011B000270290932B0280932A0244C08091280238
:1011C000909129028C179D0708F49DC0D093CE0101
:1011D000C093CD011092CA011092C9012091210241
:1011E000287F236020932102EC018DC0869586958F
:1011F000869581700E94B8018091CB019091CC01BD
:1012000001969093CC018093CB015091280240919C
:10121000290220912402309125028217930738F485
:10122000CA01E92EE7017E01F82EE7016CC080912A
:10123000260290912702F60192878187C091CD0105
:10124000D091CE0180912102887F82605AC086951C
:101250008695869581700E94B8018091CB0190910E
:10126000CC0101969093CC018093CB0100912A028E
:1012700010912B020F5F1F4FF60112870187C0915B
:101280002202D09123024E01AA24BB244090C9011E
:101290005090CA01662477246801CC0CDD1CCC0C6C
:1012A000DD1C0894C11CD11CEE24D7FCE094FE2C5C
:1012B000C501B4012EEF3FEF4FEF5FEF0E944F0CDF
:1012C0006419750986099709A70196010E94A40C63
:1012D000C20FD31FC501B401660F771F881F991F66
:1012E000640D751D861D971DA70196010E94A40C13
:1012F0007093CA016093C90117FD05C08091210256
:10130000887F80932102D0932302C09322021198F8
:10131000FF91EF91DF91CF91BF91AF919F918F910D
:101320007F916F915F914F913F912F911F910F91FD
:10133000FF90EF90DF90CF90BF90AF909F908F90F5
:101340007F906F905F904F900F900FBE0F901F9007
:1013500018951F920F920FB60F9211244F925F9221
:101360006F927F928F929F92AF92BF92CF92DF92B5
:10137000EF92FF920F931F932F933F934F935F939F
:101380006F937F938F939F93AF93BF93CF93DF938D
:10139000EF93FF9380910A0290910B028F3F91058A
:1013A00059F054F08F5F904090930B0280930A02A3
:1013B0008FEF8093B3004DC180912D0290912E024A
:1013C00090930B0280930A028F3F910511F00CF06D
:1013D0008FEF8093B30080912C02282F277030E08C
:1013E0002130310521F12230310524F42115310558
:1013F00051F02BC12230310509F4CAC02330310528
:1014000009F023C193C02B981092C6011092C50118
:101410001092C4011092C3018091B100887F809323
:10142000B100809112028E7F809312020EC18695C8
:101430008695869581700E942A020091C5011091BF
:10144000C6010F5F1F4F1093C6010093C501C090E6
:101450003502D09036020894C11CD11CD0923602BD
:10146000C0923502C0912D02D0912E024E01AA24C5
:10147000BB244090C3015090C40166247724CC0C57
:10148000DD1CCC0CDD1C0894C11CD11CEE24D7FC47
:10149000E094FE2CC501B4012EEF3FEF4FEF5FEF5C
:1014A0000E944F0C6419750986099709A7019601D6
:1014B0000E94A40CC20FD31FC501B401660F771F91
:1014C000881F991F640D751D861D971DA701960124
:1014D0000E94A40C7093C4016093C30180912F02F9
:1014E000909130020817190748F0809131029091CD
:1014F0003202909336028093350245C080913302C8
:10150000909134028C179D0708F49FC0D093C801B6
:10151000C093C7011092C4011092C30120912C0204
:10152000287F236020932C02EC018FC0869586953E
:10153000869581700E942A028091C5019091C60112
:1015400001969093C6018093C5015091330240915A
:10155000340220912F02309130028217930738F421
:10156000CA01E92EE7017E01F82EE7016EC08091E5
:101570003102909132029093360280933502C091ED
:10158000C701D091C80180912C02887F82605BC026
:1015900086958695869581700E942A028091C50164
:1015A0009091C60101969093C6018093C501009168
:1015B0003502109136020F5F1F4F109336020093D1
:1015C0003502C0912D02D0912E024E01AA24BB24D7
:1015D0004090C3015090C401662477246801CC0C6C
:1015E000DD1CCC0CDD1C0894C11CD11CEE24D7FCE6
:1015F000E094FE2CC501B4012EEF3FEF4FEF5FEFFB
:101600000E944F0C6419750986099709A701960174
:101610000E94A40CC20FD31FC501B401660F771F2F
:10162000881F991F640D751D861D971DA7019601C2
:101630000E94A40C7093C4016093C30117FD05C000
:1016400080912C02887F80932C02D0932E02C0932D
:101650002D02FF91EF91DF91CF91BF91AF919F91BB
:101660008F917F916F915F914F913F912F911F913A
:101670000F91FF90EF90DF90CF90BF90AF909F9031
:101680008F907F906F905F904F900F900FBE0F9054
:101690001F901895262F372F8217930708F49C0167
:1016A000C90108959093C5008093C400E1ECF0E077
:1016B00088E1808386E08093C20080818068808397
:1016C000109215021092D50110920902089590917E
:1016D000C00095FFFCCF8093C60008958091C000A4
:1016E00087FFFCCF8091C6000895AF92BF92DF9232
:1016F000EF92FF920F931F93DF93CF930F92CDB78B
:10170000DEB78C0197FF06C0109501951F4F8DE243
:101710000E94670B24E030E090E1A92E97E2B92EF9
:10172000EAE0F0E008C0C501BF010E946E0C5B0159
:101730002150304019F00A151B05A8F38AE0E82E65
:10174000F12CC801B5010E946E0CD82E6C547E4F4E
:10175000FB01808199830E94670B0D2D9981192FC0
:10176000C501B7010E946E0C5B016115710549F757
:101770000F90CF91DF911F910F91FF90EF90DF902D
:10178000BF90AF9008951F93CF93DF93EC0110E0CB
:1017900003C01F5F0E94670BFE01E10FF11D8081F6
:1017A0008823B9F7DF91CF911F9108951092090214
:1017B000E5EDF1E08091150290E08E0F9F1F01C0D2
:1017C0001192E817F907E1F7109215021092D5016E
:1017D00008951F920F920FB60F9211240F931F932B
:1017E0002F933F934F935F936F937F938F939F9329
:1017F000AF93BF93CF93DF93EF93FF930091C60016
:101800000036D1F488EA91E00E94C30B05ED11E0A7
:10181000C0E0D0E006C0F80181918F010E94670B03
:1018200021968091150290E0C817D907A4F381EBA7
:1018300091E00E94C30B0AC00C3A19F40E94D60B27
:1018400005C00D3051F481E0809309028DE00E94C3
:10185000670B8AE00E94670B0DC0802F0E94670B08
:1018600080911502E82FF0E0EB52FE4F00838F5F6E
:1018700080931502FF91EF91DF91CF91BF91AF91CE
:101880009F918F917F916F915F914F913F912F9198
:101890001F910F910F900FBE0F901F901895629F90
:1018A000D001739FF001829FE00DF11D649FE00D58
:1018B000F11D929FF00D839FF00D749FF00D659FB9
:1018C000F00D9927729FB00DE11DF91F639FB00DB8
:1018D000E11DF91FBD01CF0111240895AA1BBB1BF7
:1018E00051E107C0AA1FBB1FA617B70710F0A61B20
:1018F000B70B881F991F5A95A9F780959095BC0141
:10190000CD010895A1E21A2EAA1BBB1BFD010DC03B
:10191000AA1FBB1FEE1FFF1FA217B307E407F5079F
:1019200020F0A21BB30BE40BF50B661F771F881F7B
:10193000991F1A9469F760957095809590959B0111
:10194000AC01BD01CF01089597FB092E05260ED0ED
:1019500057FD04D0D7DF0AD0001C38F450954095CD
:10196000309521953F4F4F4F5F4F0895F6F7909573
:101970008095709561957F4F8F4F9F4F0895FC0123
:1019800088279927E89421912032E9F3293010F033
:101990002E30C8F32B3241F02D3239F4689404C054
:1019A0000E94DD0C820F911D219120532A30C0F33B
:1019B0001EF4909581959F4F08957AE0979F902D02
:0E19C000879F802D910D11240895F894FFCF7C
:1019CE005365742055702E2E2E0A0D0052656164DB
:1019DE0079210A0D005261706964204D6F766500A1
:1019EE00496E636F7272656374204720436F64653E
:1019FE00005741524E494E473A20455843454544BB
:101A0E004544204D4158494D554D20535045454470
:101A1E00000A0D53746570733A20000A0D4163631A
:101A2E00656C3A20000A0D53706565643A20000A11
:101A3E000D446563656C3A2000496E636F72726582
:101A4E00637420436F6D6D616E64000A0D3E00433A
:101A5E006F6D6D616E6420526563656976656400B5
:101A6E00080A0206040501094275666665723A2285
:101A7E000022200030313233343536373839000009
:00000001FF
