:100000000C943E000C945B000C945B000C945B0021
:100010000C945B000C945B000C945B000C945B00F4
:100020000C945B000C945B000C945B000C945B00E4
:100030000C945B000C94AD020C945B000C945B0080
:100040000C945B000C945B000C945B000C945B00C4
:100050000C94D6040C945B000C945B000C945B0035
:100060000C945B000C945B000C945B000C945B00A4
:100070000C945B000C945B000C945B0011241FBE7D
:10008000CFEFD0E1DEBFCDBF11E0A0E0B1E0E8EA04
:10009000FBE002C005900D92AE38B107D9F711E030
:1000A000AEE8B1E001C01D92A73DB107E1F70E94A3
:1000B0005D000C94D2050C940000AF92BF92CF92D9
:1000C000DF92EF92FF920F931F93CF93DF938CE019
:1000D00090E00E943F040E94A1020E94EE007894EA
:1000E0008FEF81B912B884B915B887B918B88AB931
:1000F0001BB8CCE0D0E007E410E097E4E92EF12C47
:1001000084E6C82ED12C8091C901813009F063C0EA
:1001100080919701873439F4C601B701A8019E0187
:100120000E942E014FC0833531F489E991E00E948D
:10013000AC056C0147C0813439F489E991E00E9433
:10014000AC05E82EF92E3EC0843639F489E991E0F9
:100150000E94AC05082F192F35C0833781F489E937
:1001600091E00E94AC05A82EE5015E01B92EE501E3
:1001700091E0CF35D90730F180E091E021C089349A
:10018000E9F480E291E00E94B004C6010E9462049A
:100190008AE291E00E94B004C7010E94620484E3F5
:1001A00091E00E94B004CE010E9462048EE391E0CF
:1001B0000E94B004C8010E94620404C088E491E077
:1001C0000E94B0041092C9010E94C3048AE591E024
:1001D0000E94B00498CF82B182B995CF8BB18F7055
:1001E0008BB98AB1806F8AB908959BB1EFE6F1E0CF
:1001F000E80FF11D80818295807F982B9BB99BB180
:100200008F6089238BB908951F9320918E013091BF
:100210008F01813039F42150304030938F01209389
:100220008E0108C02F5F3F4F30938F0120938E01C6
:10023000882321F0809190018F5F03C0809190010D
:10024000815080939001109190011770109390014C
:10025000812F0E94F500812F1F9108952F923F92C8
:100260004F925F926F927F928F929F92AF92BF92C6
:10027000CF92DF92EF92FF920F931F93DF93CF9372
:10028000CDB7DEB72A970FB6F894DEBF0FBECDBF4D
:100290004C017E836D831A0181E02E35380710F002
:1002A0002EE531E0289A8091CC0197FE08C0886045
:1002B0008093CC01909481949108939403C0877F9C
:1002C0008093CC0191E08916910499F48FEF9FEF10
:1002D0009093D6018093D5018091CC01887F826074
:1002E0008093CC0188EE93E09093CE018093CD0172
:1002F000FFC08114910409F40BC1290166247724FD
:100300006FE17BE08BE090E0A30192010E949105F8
:1003100029873A872093D3013093D401AD81BE81E0
:10032000CD01A0E0B0E089839A83AB83BC8360EA0F
:100330007FEA89EB92E129813A814B815C810E94BD
:10034000910559016A01E0E1F0E020E030E040E091
:1003500050E460E070E0CB0179018A01E60EF71EFF
:10036000081F191FAE14BF04C006D10630F0AE1826
:10037000BF08C00AD10AA1E001C0A0E09695879508
:1003800077956795AA2321F0620F731F841F951F2D
:10039000A2E05695479537952795AA95D1F73197BD
:1003A000D9F66A157B058C059D0520F46F5F7F4F9C
:1003B0008F4F9F4F2AE23CE040E050E00E943C0516
:1003C00024E6E22EF12C012D112DA80197010E94A7
:1003D0006F0538872F833093CE012093CD01C30161
:1003E000B201A30192010E943C055B016C0169818D
:1003F0007A818B819C812AE331E040E050E00E94C9
:100400003C05A80197010E949105C601B5010E9413
:10041000910559012115310519F481E0A82EB12C5F
:10042000710100E010E0B401882777FD8095982FD6
:10043000A80197010E943C052D813E81220D331DAC
:1004400040E050E00E9491052115310521F0A216EF
:10045000B30630F002C021E030E02819390914C099
:10046000B50180E090E029813A814B815C810E9456
:100470003C0590958095709561957F4F8F4F9F4F6C
:10048000A80197010E9491053093D2012093D101D8
:100490008091D1019091D201009731F48FEF9FEFBD
:1004A0009093D2018093D1018091D1019091D2019A
:1004B000880D991D9093D0018093CF0189859A85ED
:1004C000EF81F8858E179F0748F09093CE018093B7
:1004D000CD018091CC01887F836004C08091CC01E4
:1004E000887F81608093CC011092D6011092D50153
:1004F0008091CB0181608093CB018AE090E0909362
:1005000089008093880080918100826080938100BF
:100510002A960FB6F894DEBF0FBECDBFCF91DF9104
:100520001F910F91FF90EF90DF90CF90BF90AF9011
:100530009F908F907F906F905F904F903F902F9003
:1005400008958091CC01887F8093CC0188E08093CE
:10055000810082E080936F0008951F920F920FB682
:100560000F9211244F925F926F927F928F929F927F
:10057000AF92BF92CF92DF92EF92FF920F931F93B1
:100580002F933F934F935F936F937F938F939F939B
:10059000AF93BF93CF93DF93EF93FF938091CD0100
:1005A0009091CE0190938900809388006CECC62EC8
:1005B00061E0D62E8091CC01282F277030E02130C9
:1005C000310521F12230310524F42115310551F096
:1005D00029C12230310509F4C9C02330310509F0A1
:1005E00021C193C028981092940110929301109207
:1005F00092011092910180918100887F8093810007
:100600008091CB018E7F8093CB010CC1869586951E
:10061000869581700E9404010091930110919401CC
:100620000F5F1F4F1093940100939301C090D50169
:10063000D090D6010894C11CD11CD092D601C09292
:10064000D501C091CD01D091CE014E01AA24BB2489
:10065000409091015090920166247724CC0CDD1CCF
:10066000CC0CDD1C0894C11CD11CEE24D7FCE094FA
:10067000FE2CC501B4012EEF3FEF4FEF5FEF0E945C
:100680003C056419750986099709A70196010E941E
:100690009105C20FD31FC501B401660F771F881FD4
:1006A000991F640D751D861D971DA70196010E9457
:1006B000910570939201609391018091CF01909187
:1006C000D0010817190748F08091D1019091D2010B
:1006D0009093D6018093D50144C08091D30190912D
:1006E000D4018C179D0708F49DC0D0939601C09348
:1006F000950110929201109291012091CC01287FD6
:1007000023602093CC01EC018DC08695869586955B
:1007100081700E940401809193019091940101964F
:1007200090939401809393015091D3014091D4010F
:100730002091CF013091D0018217930738F4CA017C
:10074000E92EE7017E01F82EE7016CC08091D1010E
:100750009091D201F60192878187C0919501D09145
:1007600096018091CC01887F82605AC086958695DB
:10077000869581700E94040180919301909194016B
:10078000019690939401809393010091D50110916B
:10079000D6010F5F1F4FF60112870187C091CD016F
:1007A000D091CE014E01AA24BB24409091015090DB
:1007B0009201662477246801CC0CDD1CCC0CDD1C76
:1007C0000894C11CD11CEE24D7FCE094FE2CC5017A
:1007D000B4012EEF3FEF4FEF5FEF0E943C0564192D
:1007E000750986099709A70196010E949105C20F14
:1007F000D31FC501B401660F771F881F991F640DB1
:10080000751D861D971DA70196010E949105709385
:1008100092016093910117FD05C08091CC01887F02
:100820008093CC01D093CE01C093CD01FF91EF9185
:10083000DF91CF91BF91AF919F918F917F916F91F8
:100840005F914F913F912F911F910F91FF90EF90EA
:10085000DF90CF90BF90AF909F908F907F906F90E0
:100860005F904F900F900FBE0F901F901895262FFE
:10087000372F8217930708F49C01C90108959093BC
:10088000C5008093C400E1ECF0E088E1808386E05D
:100890008093C2008081806880831092CA01109288
:1008A00097011092C90108959091C00095FFFCCF67
:1008B0008093C60008958091C00087FFFCCF80918F
:1008C000C6000895AF92BF92DF92EF92FF920F930E
:1008D0001F93DF93CF930F92CDB7DEB78C0197FFB5
:1008E00006C0109501951F4F8DE20E94540424E02C
:1008F00030E090E1A92E97E2B92EEAE0F0E008C0DE
:10090000C501BF010E945B055B012150304019F019
:100910000A151B05A8F38AE0E82EF12CC801B501E1
:100920000E945B05D82E6D577E4FFB018081998315
:100930000E9454040D2D9981192FC501B7010E9401
:100940005B055B016115710549F70F90CF91DF9150
:100950001F910F91FF90EF90DF90BF90AF9008959F
:100960001F93CF93DF93EC0110E003C01F5F0E9441
:100970005404FE01E10FF11D80818823B9F7DF9156
:10098000CF911F9108951092C901E7E9F1E080919C
:10099000CA0190E08E0F9F1F01C01192E817F9075E
:1009A000E1F71092CA011092970108951F920F92D9
:1009B0000FB60F9211240F931F932F933F934F93D2
:1009C0005F936F937F938F939F93AF93BF93CF93D7
:1009D000DF93EF93FF930091C6000036D1F487E7D1
:1009E00091E00E94B00407E911E0C0E0D0E006C049
:1009F000F80181918F010E94540421968091CA01CF
:100A000090E0C817D907A4F380E891E00E94B004F1
:100A10000AC00C3A19F40E94C30405C00D3051F409
:100A200081E08093C9018DE00E9454048AE00E9415
:100A300054040DC0802F0E9454048091CA01E82FF5
:100A4000F0E0E956FE4F00838F5F8093CA01FF916B
:100A5000EF91DF91CF91BF91AF919F918F917F9156
:100A60006F915F914F913F912F911F910F910F9037
:100A70000FBE0F901F901895629FD001739FF001D9
:100A8000829FE00DF11D649FE00DF11D929FF00D1E
:100A9000839FF00D749FF00D659FF00D9927729F55
:100AA000B00DE11DF91F639FB00DE11DF91FBD01E0
:100AB000CF0111240895AA1BBB1B51E107C0AA1F37
:100AC000BB1FA617B70710F0A61BB70B881F991FEF
:100AD0005A95A9F780959095BC01CD010895A1E2A2
:100AE0001A2EAA1BBB1BFD010DC0AA1FBB1FEE1FA8
:100AF000FF1FA217B307E407F50720F0A21BB30BF3
:100B0000E40BF50B661F771F881F991F1A9469F76E
:100B100060957095809590959B01AC01BD01CF01CA
:100B2000089597FB092E05260ED057FD04D0D7DF78
:100B30000AD0001C38F450954095309521953F4FD0
:100B40004F4F5F4F0895F6F790958095709561959A
:100B50007F4F8F4F9F4F0895FC0188279927E89476
:100B600021912032E9F3293010F02E30C8F32B32D6
:100B700041F02D3239F4689404C00E94CA05820FF6
:100B8000911D219120532A30C0F31EF49095819538
:100B90009F4F08957AE0979F902D879F802D910D0C
:080BA00011240895F894FFCF21
:100BA8005741524E494E473A2045584345454445DA
:100BB80044204D4158494D554D205350454544001A
:100BC8000A0D53746570733A20000A0D416363651A
:100BD8006C3A20000A0D53706565643A20000A0DCE
:100BE800446563656C3A2000496E636F7272656391
:100BF8007420436F6D6D616E64000A0D3E00436F93
:100C08006D6D616E64205265636569766564000880
:100C18000A0206040501094275666665723A2200F1
:0E0C280022200030313233343536373839006F
:00000001FF
